:020000040800F2
:10000000A81300209D010008E140000869350008A0
:10001000213F0008E90700088D5500080000000096
:100020000000000000000000000000002949000856
:100030005D09000800000000F94700086149000858
:10004000B7010008B7010008B7010008B7010008B0
:10005000B7010008B7010008B7010008B7010008A0
:10006000750900087B09000881090008410800089B
:100070004D080008590800086508000871080008C4
:100080007D08000889080008B7010008B7010008CA
:10009000B7010008B7010008B70100088709000888
:1000A0000D4A0008414A0008254A0008194A00087C
:1000B0005D4A0008694A0008B7010008B701000856
:1000C000B7010008B7010008B7010008B701000830
:1000D000FD4700081155000849550008555500080E
:1000E0006D090008B7010008B7010008B701000852
:1000F000994A00088D4A0008B701000895080008D1
:10010000B7010008B7010008754A0008B7010008E8
:1001100069500008A1500008814A0008B701000892
:10012000B7010008B7010008A1080008B7010008DE
:10013000B7010008B7010008B7010008B7010008BF
:10014000B7010008B7010008B7010008B7010008AF
:10015000B7010008B7010008AD080008B7010008A2
:10016000B7010008B7010008B7010008B70100088F
:10017000B7010008B7010008B7010008000000003F
:10018000B7010008B7010008DFF80CD000F01AFB37
:1001900000480047B5590008A813002006488047CA
:1001A00006480047FEE7FEE7FEE7FEE7FEE7FEE75C
:1001B000FEE7FEE7FEE7FEE7FD49000889010008CB
:1001C0002DE9F05F0546002092469B46884606468C
:1001D000814640241BE0284641464746224600F01F
:1001E0003AFA53465A46C01A914110D3114618465E
:1001F000224600F021FA2D1A67EB01084F462246ED
:100200000120002100F018FA17EB00094E41201ED2
:10021000A4F10104DFDC484631462A464346BDE8E6
:10022000F09FD2B201E000F8012B491EFBD27047CB
:100230000022F6E710B513460A4604461946FFF7B2
:10024000F0FF204610BD2DE9FE4F804681EA0300F5
:10025000C00F0C46009021F0004123F00045B8EBA0
:100260000200A94105D24046214690461C460B4655
:10027000024623F00040104347D0270DC7F30A0081
:10028000C3F30A510290401A019040286BDAC3F37D
:10029000130040F4801B0098924620B10023D2EB5B
:1002A000030A63EB0B0B01985946C0F1400250461C
:1002B00000F0C2F906460D4650465946019A00F034
:1002C000DAF910EB08006141002487EA115284EA50
:1002D000E7731A4340D0009A62B3019A012A4FEAA9
:1002E000075215DC001B61EB02014FF0004202EAED
:1002F0000752CDE90042001C41F5801132462B46E1
:1003000000F011FA03B0BDE8F08F40462146F9E74E
:10031000001B61EB0201001C41F5801300185B41DA
:100320002018A2F5001747EB030140EAD570B61973
:100330006D4111E06D084FEA360645EAC0754FEA97
:100340000752001B61EB0201001C41F580114908B6
:100350004FEA30000019514132462B4603B0BDE848
:10036000F04F00F0D1B90098012240000023D0EBFB
:10037000020263EBE073009821464FEAE074B8EBA9
:10038000000061EB0401E9E783F000435BE781F0E3
:10039000004158E72DE9FE4F81EA030404F00044D0
:1003A00021F0004100944FF0000B23F0004350EA8D
:1003B00001045ED052EA03045BD0C3F30A54C1F3D4
:1003C0000A552C44A4F2F3340194A0FB0254C1F367
:1003D000130141F48011C3F3130343F4801301FBB1
:1003E000024400FB034E840A970A44EA815447EA18
:1003F0008357A4FB076802958D0A05FB07854FEA22
:10040000932C04FB0C542705029D4FEA065847EA3B
:100410001637B5EB08056EEB070C870E920E47EA10
:10042000811742EA8312A7FB0201B6EB0B0164EBD2
:1004300000042B0D43EA0C335E1844EB1C50DA46E3
:100440005146E7FB0201C5F313044FEA0B3343EABD
:1004500014534FEA0432019C43EA0603A4F10C044E
:100460000294009CCDE900B400F05DF903B0BDE852
:10047000F08F00200146F9E72DE9F04D81EA0304F1
:1004800004F0004B21F0004514464FF0000A23F021
:10049000004150EA050220D054EA01021DD0C5F304
:1004A0000A570246C5F31303C1F31300C1F30A56FA
:1004B00040F4801543F48013A7EB0608101BD646C2
:1004C00008F2FD3873EB050002D308F1010801E0E2
:1004D00092185B41B8F1000F03DA00200146BDE835
:1004E000F08D00204FF48011064684460EE0171B65
:1004F00073EB050705D3121B63EB050306434CEAB8
:10050000010C49084FEA300092185B4150EA01079C
:10051000EDD152EA030012D082EA040083EA050119
:10052000084305D0101BAB4106D20122002306E090
:1005300000224FF0004302E06FF0010253101AEB6B
:1005400006004CEB085110EB0A0041EB0B01BDE833
:10055000F04D00F0D9B80EB5C10F80EAE070084444
:10056000CA07002140F233438DE80E000A460B46CD
:1005700000F0D9F803B000BD0EB540F2334102914E
:100580000021CDE900110A460B4600F0CCF803B07B
:1005900000BD70B5C1F30A5201F000450024C1F35B
:1005A000130140F2FF3341F480119A4201DA002036
:1005B00070BD40F233439A42A2F2334203DC52420E
:1005C00000F049F800E090402C43F1D0404270BD6B
:1005D00030B5041E71F1000404DB4FF000444042CA
:1005E00064EB0101141E73F1000405DB1C464FF09F
:1005F0000043524263EB04038B4208BF824230BD8A
:1006000001F0004330B421F0004150EA010206D06D
:100610000A0DA2F56072C1F31301002A02DC30BC9E
:1006200000207047440F44EAC104C100E01830BC08
:1006300000EBC25000F031B8202A04DB203A00FA67
:1006400002F1002070479140C2F1200320FA03F329
:10065000194390407047202A04DB203A21FA02F027
:100660000021704721FA02F3D040C2F120029140EC
:10067000084319467047202A06DBCB17203A41FA77
:1006800002F043EAE07306E041FA02F3D040C2F11F
:10069000200291400843194670470029A8BF7047BF
:1006A000401C490008BF20F00100704710B4B0FAA8
:1006B00080FC00FA0CF050EA010404BF10BC704743
:1006C00049B1CCF1200421FA04F411FA0CF118BF5D
:1006D000012121430843A3EB0C01CB1D4FEA00612C
:1006E0004FEA102042BF002010BC704700EBC350FF
:1006F00010440029A4BF10BC7047401C490008BF2B
:1007000020F0010010BC704710B5141E73F10004F6
:1007100008DA401C41F1000192185B411A4301D1F3
:1007200020F0010010BD2DE9F04D92469B4611B11D
:10073000B1FA81F202E0B0FA80F220329046FFF77F
:100740007BFF04460F4640EA0A0041EA0B0153468C
:100750005A46084313D0114653EA010019D0C8F194
:1007600040025046FFF777FF05460E465046594671
:100770004246FFF761FF084305D0012004E0204610
:100780003946BDE8F08D0020054346EAE0762C436B
:1007900037430A986305E40AA0EB08000022FD0A2B
:1007A00044EA47540A3002D500200146E9E7010532
:1007B00010196941DDE9084500196941BDE8F04DAE
:1007C000A2E70000064C074D06E0E06840F0010398
:1007D00094E8070098471034AC42F6D3FFF7D8FCF2
:1007E000E487000804880008FEE700000349487811
:1007F000897841EA00200249088070471C000020E7
:100800000600002003494878897841EA002002491F
:10081000088070472000002008000020014803F0F5
:1008200007BF0000CC0D0020014803F045BE0000CA
:10083000040E0020014803F09DBE00003C0E002085
:10084000014800F085B9000014060020014800F0BE
:100850007FB9000054080020014800F079B9000079
:1008600054050020014800F073B90000B4080020CE
:10087000014800F06DB90000B4050020014800F007
:1008800067B9000094070020014800F061B900003A
:10089000F4070020014800F05BB900007406002056
:1008A000014800F055B90000D4060020014800F0CE
:1008B0004FB900003407002001681823CAB2103A6B
:1008C000B2FBF3F2054B6FF30901032A9B5CC3658E
:1008D00000D9091D8165084670470000B469000809
:1008E00010B5014600208B698A6A4FF0C07453B17D
:1008F000B3F5005F15D072B1012A0CD0022A0AD0DC
:10090000032A09D104E01AB1012A06D0022A03D130
:10091000C96AC90100D5012010BDC96AA142FAD037
:1009200010BD002AF7D0012AF2D0022AF3D0032A00
:10093000F3D010BD30B50468256825F48025256006
:10094000046863608368402B036803D09960006883
:10095000C26030BD9A600068C16030BD7047000061
:1009600001490870704700008C0000204FF40050CF
:1009700000F0A0BA042000F09DBA082000F09ABA56
:10098000102000F097BA10B5202000F093FABDE8CF
:100990001040402000F08EBA72B6FEE770B50C4EE3
:1009A00005460C463068401B204403F001FB3068CC
:1009B000401B001B03F0CCFA30682844001B03F0F6
:1009C0005BFB306828442044BDE8704003F020BB46
:1009D000100000202DE9F0410F4F064614463868FC
:1009E0000D463044081A001B03F0E2FA3868304420
:1009F00028442044404203F0ABFA3868301A401BC8
:100A0000204403F039FB3868301A28442044BDE8FC
:100A1000F04103F0FDBA0000100000202DE9F04184
:100A20000E4F06460D4638681446801B2844001BAE
:100A300003F0BEFA3868801B401B001B03F088FAE5
:100A400038683044401B204403F016FB38683044BB
:100A500028442044BDE8F04103F0DABA1000002039
:100A600070B50C4E05460C463068401B001B03F069
:100A70009FFA3068401B001B03F06AFA3068284474
:100A8000001B03F0F9FA30682844001BBDE87040F1
:100A900003F0BEBA100000202DE9F0410446876D36
:100AA00000F01EFB064694F835000025022806D00B
:100AB0008020606584F834500120BDE8F081206812
:100AC000016821F0160101602068416921F0800170
:100AD0004161206C08B9A06C20B12068016821F048
:100AE000080101602068016821F0010101600CE04B
:100AF00000F0F6FA801B052807D920206065032046
:100B000084F8350084F83450D7E720680068C007BF
:100B1000EED194F85C103F208840B860012084F842
:100B2000350084F834500020C7E790F835100229CA
:100B300003D08021416501207047052180F83510E0
:100B40000068016821F00101016000207047000089
:100B50002DE9F84304464FF00009CDF800906348B2
:100B60004FF41651A56D0068B0FBF1F72E6894F8AC
:100B70005C10082000FA01F131420FD021680A68A8
:100B800052070BD50A6822F004020A6094F85C1040
:100B90008840A860606D40F00100606594F85C10CA
:100BA0004FF0010808FA01F0304208D02168496985
:100BB000090604D5A860606D40F00200606594F8F5
:100BC0005C1004208840304208D0216809688907F9
:100BD00004D5A860606D40F00400606594F85C1076
:100BE00010208840304218D021680968090714D5C0
:100BF000A86020680168490304D50068000308D58F
:100C0000A16C07E00168C90503D4016821F008015F
:100C10000160216C09B12046884794F85C102020BF
:100C20008840304231D021680968C9062DD5A860B6
:100C300094F8350005282068016806D0490347D597
:100C4000006800031DD4616C1CE021F016010160F6
:100C50002068416921F080014161206C08B9A06CD5
:100C600020B12068016821F00801016094F85C104F
:100C70003F208840A86084F8358084F83490216D46
:100C80001FE0E16B09B120468847606D00282BD03A
:100C9000606DC00714D0052084F835002068016815
:100CA00021F0010101600098401C0090B84203D877
:100CB00020680068C007F6D184F8358084F8349045
:100CC000E16C002910D001B02046BDE8F043084790
:100CD0000168C905D5D4016821F01001016084F8CC
:100CE000358084F83490CCE7BDE8F8838400002098
:100CF0002DE9F041044600F0F3F906465CB102200C
:100D000084F83500002584F834502068016821F00B
:100D1000010101600DE00120BDE8F08100F0E0F983
:100D2000801B052805D920206065032084F8350044
:100D3000F2E720680068C007F0D1226811682048F7
:100D40000140D4E901031843D4E90336334318437F
:100D500063691843A3691843E3691843236A184376
:100D60000843616A042903D1D4E90B1319430843EA
:100D7000106020684069666A20F0070130460E4323
:100D8000012704280CD1A06A0643E06A40B120463E
:100D9000FFF7A6FD20B14020606584F83570BAE702
:100DA000206846612046FFF787FD94F85C203F21CC
:100DB00091408160656584F835700020ACE70000E3
:100DC0003F8010F02DE9F0410446866D90F8340024
:100DD000002501280DD0012084F8340094F83570E6
:100DE0000020012F07D084F8340002252846BDE8F2
:100DF000F0810220FBE7022784F835706065204609
:100E0000FFF798FD94F85C103F208840B0602068A0
:100E1000016841F016010160206C20B12068016872
:100E200041F0080101602068016841F001010160A2
:100E3000DCE7000070B5044600F052F90546601C7E
:100E400002D004480078044400F04AF9401BA04254
:100E5000FAD370BD78000020202819D00ADC0428BD
:100E600007D00F49082810D0102802D1012008709F
:100E70004870704740280FD0B0F5005FF9D10A23C1
:100E8000012208A1084802F085BA002008707047C6
:100E90000A23012205A1F5E70A23012204A1F1E7B3
:100EA000000000203000000010050020330000008A
:100EB00031000000044910B50A68024202D00860FF
:100EC000FFF7CAFF10BD0000143C01402DE9F84FA8
:100ED000DFF8BCA10022012503264FF00F090AF11B
:100EE000040BAAF1040E00BF0B6805FA02F42340BC
:100EF000A34270D10F7907F00307012F01D0022F11
:100F000016D187684FEA420806FA08FC27EA0C0760
:100F1000D1F80CC00CFA08FC4CEA070CC0F808C069
:100F20004768A7430C79C4F3001494403C434460E1
:100F30000C79E443A4070AD0C4684FEA420C06FACD
:100F40000CF7BC438F6807FA0CF72743C7600C798E
:100F500004F00304022C12D1D40800EB840CDCF85A
:100F600020405707FF0E09FA07F824EA0804D1F8D1
:100F7000108008FA07F848EA0408CCF820800468D2
:100F80004FEA420C06FA0CF7BC430F7907F003074F
:100F900007FA0CF7274307604C6814F4403F70D001
:100FA0003C4C276847F480472760246822F00307F9
:100FB00004F480440094384C07EB040CDCF8084837
:100FC00097074FEA177809FA08F7BC43334FB8423E
:100FD00002D1002724E054E0314FB84201D101276B
:100FE0001EE0304FB84201D1022719E02E4FB8421F
:100FF00001D1032714E02D4FB84201D104270FE09F
:101000002B4FB84201D105270AE02A4FB84201D13F
:10101000062705E0284FB84201D1072700E008273E
:1010200007FA08F72743CCF80878DAF80040574663
:10103000D1F804C09C435FEACC2C00D51C433C6033
:10104000DBF800405F46D1F804C09C435FEA8C2C7B
:1010500000D51C433C60DEF800407746D1F804C060
:101060009C435FEA8C3C00D51C433C60084F083F22
:101070003C68D1F804C09C435FEACC3C00D51C43DB
:101080003C60521C102AFFF42FAFBDE8F88F00001F
:10109000083C01404438024000300140000002405A
:1010A0000004024000080240000C02400010024010
:1010B0000014024000180240001C02400069084071
:1010C00000D001207047426921EA02030A4043EA46
:1010D0000241816170470AB1816170470904FBE7F1
:1010E000014880687047000078000020024881684D
:1010F0000278114481607047780000200B4810B5D9
:10110000016841F400710160016841F4806101608F
:10111000016841F480710160032000F06FF80F2036
:1011200000F006F800F024F8002010BD003C02405A
:1011300070B50D4D04464FF47A712878B1FBF0F08C
:101140000A490968B1FBF0F000F0D9FC48B9102C4D
:1011500007D200222146501E00F030F800206C60BB
:1011600070BD012070BD00007800002084000020C8
:101170000A4808B5016841F480410160006800F444
:10118000804000900548001F016841F080510160D7
:10119000006800F08050009008BD00004438024014
:1011A000002809DB00F01F02012191404009800066
:1011B00000F1E020C0F8001170470000F0B40E4BC1
:1011C0001B680C46C3F30223C3F10705042D00D9A5
:1011D0000425191D072901D2002300E0DB1E01268A
:1011E00006FA05F1491E214099409E40761E1640A0
:1011F0003143F0BC04F03EBA0CED00E0064900F0CB
:10120000070208684FF6FF03184040EA0220034A2D
:1012100010430860704700000CED00E00000FA0584
:101220002DE9F0470E46050065D0DFF81481D8F8A7
:101230000000F7B200F00700B04207D288F8007053
:10124000D8F8000000F00700B04254D128683D4CA7
:10125000810712D5400703D5206840F4E050206094
:101260002878000703D5206840F46040206020689B
:10127000A96820F0F000084320602878C0072DD02E
:10128000304968680839012812D0022813D0032891
:1012900011D00968890700292DDA216821F003019E
:1012A00001432160FFF71CFF814641F2883A0EE0BE
:1012B00009688903EFE709688901ECE7FFF710FF88
:1012C000A0EB0901514502D90320BDE8F087206851
:1012D000696800F00C00B0EB810FEFD1D8F8001076
:1012E000404601F00701B14207D90770006800F0DD
:1012F0000700B04201D00120E7E72878400705D574
:101300002068E96820F4E05008432060287800074E
:1013100006D52068296920F4604040EAC1002060B9
:1013200000F038F82168084AC1F30311515CC84045
:101330000649086006480068FFF7FAFE0020C4E787
:10134000003C024008380240BC69000884000020CC
:101350007C0000200448054900680968044AC1F37C
:101360008221515CC8407047840000200838024048
:10137000CC6900080448054900680968044AC1F3BB
:101380004231515CC8407047840000200838024058
:10139000CC690008154810B5006810F00C0214481C
:1013A00013D04110042A0FD0082A0ED10F4C241F4D
:1013B0002268236802F03F025B0207D52068C0F371
:1013C0008810A0FB010106E0084610BD2168C1F3AA
:1013D0008811A1FB00010023FEF7F2FE2168C1F392
:1013E0000141491C4900B0FBF1F010BD0838024032
:1013F0000024F4002DE9F84F04006ED02078DFF8C7
:101400004C93C007A9F104054AD009F10400016812
:10141000C1F38101012908D00068C0F381000228CE
:101420000AD1D9F80000400206D52868800337D5D4
:1014300060680028E1D033E06068B0F5803F10D0EC
:10144000B0F5A02F286810D020F4803028602868DC
:1014500020F4802028606068A8B1FFF741FE0646AE
:101460000DE0286840F48030F4E740F480202860E4
:10147000F7E700BFFFF734FE801B642873D82868A5
:101480008003F7D50CE0FFF72BFE064605E000BF12
:10149000FFF726FE801B6428F0D828688003F7D465
:1014A0002078DFF8AC8280074FF0000A3ED5A748CD
:1014B000001D016811F00C0F08D00068C0F3810016
:1014C00002280BD1D9F80000400207D42868800711
:1014D00016D5E068012800D112E033E1E068B8B128
:1014E0000120C8F80000FFF7FBFD064605E000BF3D
:1014F000FFF7F6FD801B0228C0D828688007F7D5C3
:101500002868216920F0F80040EAC10028600DE059
:10151000C8F800A0FFF7E4FD064604E0FFF7E0FD91
:10152000801B02281FD828688007F7D4207800077E
:1015300022D5864F87486169703771B101210160FA
:10154000FFF7CEFD064604E0FFF7CAFD801B022828
:1015500009D838688007F7D50EE0C0F800A0FFF77B
:10156000BFFD064605E082E0FFF7BAFD801B0228BA
:101570007DD838688007F7D42078400768D5DFF831
:10158000CCB100270BF13C0BDBF80000C0000BD402
:10159000DBF8001041F08051CBF80010DBF80000C0
:1015A000012700F0805000906B4E3068C00510D4C9
:1015B000306840F480703060FFF792FD009005E0E5
:1015C000FFF78EFD0099401A022850D83068C005F8
:1015D000F6D55E4EA0686C3601280FD0052830681D
:1015E00010D020F001003060306820F0040030603E
:1015F000A068B8B1FFF774FD00900FE0306840F0CC
:101600000100F4E740F004003060F7E7FFF768FD01
:101610000099411A41F28830814266D830688007CB
:10162000F4D50EE0FFF75CFD009007E0FFF758FDF2
:101630000099411A41F28830814256D830688007BB
:10164000F4D42FB1DBF8001021F08051CBF800105A
:10165000A069C8B33D49091D0968C1F38101022988
:101660004AD00228504607D0C8F8600000E03CE0AD
:10167000FFF736FD04463BE04746C8F86000FFF739
:101680002FFD064605E000BFFFF72AFD801B02285C
:101690002BD828688001F7D4D4E907010843A16A50
:1016A0002E4A490802EB0141626A41EA821108436D
:1016B00094F82C1040EA0161C9F800100120386646
:1016C000FFF70EFD044606E03EE000BFFFF708FD11
:1016D000001B022809D828688001F7D534E000BF34
:1016E000FFF7FEFC001B022802D90320BDE8F88F9B
:1016F00028688001F4D427E00128F7D0D9F8000049
:10170000E26900F4800191421CD1226A00F03F019D
:10171000914217D147F6C071626A0140B1EB821F56
:1017200010D1A26A4FF0FF3300F4403103EB5202B4
:10173000B1EB024F06D194F82C1000F07060B0EBC2
:10174000016F01D00120D1E70020CFE7043802402B
:1017500000004742800E4742007000400000FFFF3B
:101760007047000038B5016804464A688868C0437D
:10177000430606D5C30704D1D3435B0601D4216CCD
:1017800005E0830708D4D3431B0605D4616C01B080
:101790002046BDE830400847830603D5430601D5FF
:1017A000C30551D4D3439B064ED443060AD494F8C0
:1017B0005130032B49D0636D43F004036365CB685C
:1017C0008B680093830609D4636D43F0010363655E
:1017D0008B6800930B6823F040030B60C00506D4B0
:1017E000606D40F008006065206880680090606D62
:1017F000002829D02068416821F0E00141600120E3
:1018000084F85100900701D4D00722D020684168A5
:1018100021F003014160114DE06C40B10565E06CC1
:10182000FFF783F918B1606D40F040006065A06C6F
:10183000002809D00565A06CFFF777F9002803D0D0
:10184000606D40F04000606538BDC86888680090F1
:1018500038BD2046FFF784FF38BD00000948000866
:1018600070B5040009D0606A002540B1256165614A
:10187000A56294F8510040B10CE0012070BD606891
:10188000B0F5827FF4D0E561F2E784F8505020464D
:1018900000F044F8022084F851002068016821F02B
:1018A00040010160A088218900F4827001F40441A4
:1018B0000843A18901F400610843217C01F0020181
:1018C0000843217D01F001010843218B01F40071DF
:1018D0000843217F01F03801084394F8201001F0FB
:1018E00080010843218D01F40051084321680860FC
:1018F000A069042101EA104094F8241001F01001BD
:101900000843216848602068C16921F40061C16111
:101910006565012084F85100002070BD10B586B0C7
:10192000044614216846FEF783FC18492068884263
:1019300029D117480021026842F480420260006801
:1019400000F48040059012481038026842F002020C
:101950000260006800F0020005904FF42040009003
:101960000220CDE90101032003900520049069467F
:101970000848FFF7ABFA002211462420FFF71EFCAF
:101980002420FFF70DFC06B010BD00000038004019
:1019900040380240000402402DE9F84F044690F818
:1019A000500000271D461646894601280DD04FF0ED
:1019B000010B84F850B0FFF793FB804694F8510078
:1019C000BA46012804D0022793E00220BDE8F88F30
:1019D000B9F1000F73D0002E71D0032084F85100AC
:1019E000C4F854A0C4F83090A686E686C4F838A09F
:1019F000A4F83CA0A4F83EA0C4F844A0C4F840A0B9
:101A0000A068B0F5004F09D12068016821F04001BD
:101A100001602068016841F480410160206801682C
:101A2000490603D4016841F040010160E068B0F567
:101A3000006F606803D030B3012E24D041E008B1BC
:101A4000012E1CD1206B21680088C86006E0206848
:101A50008168890709D5216B0988C160206B801CCA
:101A60002063E08E401EE08609E0FFF739FBA0EB23
:101A70000800A84202D3681C01D031E07DB3E08E9B
:101A80000028E4D120E0206B21680078087306E08C
:101A900020688168890709D5216B09780173206B5B
:101AA000401C2063E08E401EE0860AE0FFF718FB32
:101AB000A0EB0800A84203D3681C02D010E017E096
:101AC0006DB1E08E0028E3D142462946204602F05F
:101AD000A3FE08B120206065A06818B106E0FFE70A
:101AE000032706E02068C16880680090606D00B13F
:101AF000012784F851B084F850A0384666E710B545
:101B0000401EB0F1807F01D3012010BD4FF0E024D2
:101B100060610F21601703F0ADFD0020A061072078
:101B20002061002010BD7047704710B590F83C2030
:101B3000012A22D0012280F83C20CA688C6822F455
:101B4000407222434C6822F4806222430C6822F4E3
:101B5000006222430C6922F4805222434C6922F431
:101B600000522243C969002322F480420A430168DB
:101B70004A6480F83C30002010BD022010BD0000F7
:101B800070B590F83C20012A32D0012480F83C4006
:101B9000022280F83D2003685A689D6822F0700692
:101BA0000A6832435A60134B02689A4214D0B2F169
:101BB000804F11D0104B9A420ED0104B9A420BD04E
:101BC0000F4B9A4208D00F4B9A4205D00E4B9A42C7
:101BD00002D00E4B9A4204D1496825F08003194384
:101BE000916080F83D40002180F83C10084670BDAF
:101BF000022070BD000001400004004000080040C9
:101C0000000C00400004014000400140001800406A
:101C100010B5040003D094F83D0010B107E0012096
:101C200010BD002084F83C00204600F01FF8022080
:101C300084F83D00211D206802F034FF012084F863
:101C4000460084F83E0084F83F0084F8400084F8A1
:101C5000410084F8420084F8430084F8440084F88A
:101C6000450084F83D00002010BD000070B586B02E
:101C7000044614216846FEF7DBFA794821680025FE
:101C8000784A814226D1106840F001001060106847
:101C9000002200F00100059011461820FFF78EFA8F
:101CA0001820FFF77DFA002211461920FFF786FA67
:101CB0001920FFF775FA002211461A20FFF77EFA65
:101CC0001A20FFF76DFA002211461B20FFF776FA63
:101CD0001B2038E06348001FB1F1804F25D0614CD4
:101CE000614E143C0223B14231D1016841F002013E
:101CF0000160006800F002000590206840F00200DA
:101D000020602068694600F00200059003208DE8FD
:101D10002900CDE903535548FFF7D8F800221146B2
:101D20001D20FFF74BFA1D200DE0016841F0010175
:101D300001600068002200F00100059011461C209F
:101D4000FFF73CFA1C20FFF72BFA06B070BD484E97
:101D5000B14208D1016841F004010160006800F05F
:101D600004000590F1E7434EB1421FD1016841F0F4
:101D700008010160006800F008000590206840F04C
:101D8000010020602068694600F0010005900F20E6
:101D90008DE82900CDE903533748FFF797F8002273
:101DA00011463220FFF70AFA3220CCE7334B994232
:101DB0000ED1016841F0100101600068002200F0BE
:101DC0001000059011463620FFF7F8F93620BAE7E3
:101DD0002B4B99420ED1106840F40030106010680F
:101DE000002200F40030059011461920FFF7E6F9B3
:101DF0001920A8E7234B99420ED1106840F48020A7
:101E000010601068002200F48020059011461A200E
:101E1000FFF7D4F91A2096E71B4A91420ED10168C8
:101E200041F0800101600068002200F08000059010
:101E300011462C20FFF7C2F92C2084E7134A914267
:101E400083D1016841F4807101600068002200F4D0
:101E50008070059011462D20FFF7B0F92D2072E714
:101E600000000140443802400004004000040240E9
:101E700000080040000C004000000240001000403C
:101E80000044014000480140001C00400020004088
:101E900090F83D10012901D001207047022180F8FF
:101EA0003D1000681149884214D0B0F1804F11D024
:101EB0000F4988420ED00F4988420BD00E49884204
:101EC00008D00E49884205D00D49884202D00D49FC
:101ED000884204D1816801F00701062903D0016816
:101EE00041F0010101600020704700000000014046
:101EF0000004004000080040000C004000040140C5
:101F0000004001400018004090F83D10012901D028
:101F100001207047022180F83D100168CA6842F034
:101F20000102CA6000681149884214D0B0F1804FA4
:101F300011D00F4988420ED00E4988420BD00E496D
:101F4000884208D00D49884205D00D49884202D008
:101F50000C49884204D1816801F00701062903D0A9
:101F6000016841F00101016000207047000001405C
:101F70000004004000080040000C00400004014044
:101F8000004001400018004070B5044690F83C0045
:101F90000025012817D0012684F83C60022084F82F
:101FA0003D002068826822F0770222F47F4282603E
:101FB0000868502838D00DDC20284FD005DC90B3BD
:101FC000102811D14AE0022070BD302846D04028A8
:101FD0000AD13BE060282FD070280DD0B0F5805F8B
:101FE00003D0B0F5005F12D0012584F83D600020D9
:101FF00084F83C00284670BDCB68D1E901212068F7
:1020000002F0C1FD2068816841F0770109E0CB68EA
:10201000D1E90121206802F0B6FD2068816841F411
:1020200080418160E1E719E0CA684968206802F0F0
:102030007FFE5021206806E0CA684968206802F0E7
:10204000C9FE6021206802F0A8FDCEE7CA68496891
:10205000206802F06DFE40212068F4E72268014606
:102060001046F0E72DE9F047DFF8D882B64D4FF083
:10207000400698F8001041F21117080640F2444952
:102080004FF0000435D440464A0612D541F0800195
:1020900088F800100021284600F07AFDA8F8120008
:1020A0002868016A21F00A0101622868016A016258
:1020B0001FE0448288F800602868016A394207D12D
:1020C000016A11EA090F03D1016821F001010160E1
:1020D000286844622868016A21F00A0101622868C0
:1020E000016A41F0020101622868016841F00101C2
:1020F000016098F80110080635D440464A0612D50A
:1021000041F0800188F8011004218F4800F040FD63
:10211000A8F814002868016A21F0A001016228686B
:10212000016A01621FE0848288F801602868016A00
:10213000394207D1016A11EA090F03D1016821F080
:1021400001010160286844622868016A21F0A00149
:1021500001622868016A41F0200101622868016873
:1021600041F00101016098F80210080635D440469C
:102170004A0612D541F0800188F802100821724801
:1021800000F006FDA8F816002868016A21F4206115
:1021900001622868016A01621FE0C48288F8026057
:1021A0002868016A394207D1016A11EA090F03D18F
:1021B000016821F001010160286844622868016A11
:1021C00021F4206101622868016A41F40071016212
:1021D0002868016841F00101016098F803100806C1
:1021E00035D440464A0612D541F0800188F80310E4
:1021F0000C21554800F0CCFCA8F818002868016AAA
:1022000021F4204101622868016A01621FE0048311
:1022100088F803602868016A394207D1016A11EA27
:10222000090F03D1016821F00101016028684462AF
:102230002868016A21F4204101622868016A41F49A
:10224000005101622868016841F00101016098F8BD
:1022500004103D4D0806A5F1900535D440464A06C8
:1022600012D541F0800188F804100821284600F0BA
:102270008FFCA8F81A002868016A21F42061016225
:102280002868016A01621FE0448388F804602868B6
:10229000016A394207D1016A11EA090F03D10168C5
:1022A00021F001010160286844622868016A21F474
:1022B000206101622868016A41F4007101622868A6
:1022C000016841F00101016098F80500010614D48D
:1022D000410614D540F0800088F805001A480C210A
:1022E000903800F055FCA8F81C002868016A21F419
:1022F000204101622868016A0162BDE8F087A8F800
:102300001C4088F805602868016A394207D1016AD3
:1023100011EA090F03D1016821F001010160286869
:1023200044622868016A21F4204101622868016A38
:1023300041F4005101622868016841F00101016027
:10234000DBE7000058000020500200202DE9F0419A
:10235000054690F83C0000260C46012810D00120CC
:1023600085F83C0072B1042A1CD0082A2CD00C2A13
:1023700050D00126002085F83C003046BDE8F081B1
:102380000220FBE7D4E90012E368286802F0E2FCCF
:102390002868816921F00C01816128688169A2683F
:1023A00011430FE0D4E90012E368286802F024FD2D
:1023B0002868816921F44061816128688169A26887
:1023C00041EA02218161D5E72868D4E9002C277B06
:1023D000016A21F480710162C169036A21F003017D
:1023E00041EA0C0121F0F00C39074FF420674CEA68
:1023F000116123F4206307EA02221A43C1610262D9
:102400002868C16921F00C01C1612868C169A2680E
:10241000114328E02868D4E90027E168036A23F41F
:1024200080530362D0F81CC0036A2CF4407C4CEA51
:1024300007274FF6FF7C27F470470CEA0131394338
:102440004FF4204723F4204307EA02321A43C161C4
:1024500002622868C16921F44061C1612868C169CC
:10246000A26841EA0221C16184E710B5040003D0EB
:1024700094F83D0010B107E0012010BD002084F861
:102480003C00204600F01EF8022084F83D00211D8B
:10249000206802F007FB012084F8460084F83E0023
:1024A00084F83F0084F8400084F8410084F842003A
:1024B00084F8430084F8440084F8450084F83D0023
:1024C000002010BD7047000030B50446002551B112
:1024D00004290DD0082910D094F8410094F8452023
:1024E000012811D10EE094F83E0094F84220F7E75D
:1024F00094F83F0094F84320F2E794F8400094F8F1
:102500004420EDE7012A01D0012030BD022059B15D
:10251000042912D0082919D084F8410084F8450014
:102520000C2944D0012540E084F83E0084F84200A4
:102530002068C26842F0020210E084F83F0084F88C
:1025400043002068C26842F0040207E084F84000BB
:1025500084F844002068C26842F00802C260012288
:10256000206802F003FB14492068884214D0B0F1BF
:10257000804F11D0114988420ED0114988420BD0AA
:102580001049884208D01049884205D00F49884236
:1025900002D00F49884204D1816801F00701062961
:1025A00003D0016841F001010160284630BD206878
:1025B000C26842F01002D1E7000001400004004070
:1025C00000080040000C00400004014000400140B1
:1025D0000018004070B50446006801694FF000051E
:1025E000C943890715D4C168C943890711D4E91EB5
:1025F000016101202077206880698007204602D091
:10260000FFF730FD04E000F03DF9204600F038FA15
:10261000257720680169C943490717D4C168C943B0
:10262000490713D46FF0040101610220207720686C
:10263000806910F4407F204602D0FFF713FD04E0CC
:1026400000F020F9204600F01BFA25772068016988
:10265000C943090716D4C168C943090712D46FF0EA
:1026600008010161042020772068C06980072046A6
:1026700002D0FFF7F7FC04E000F004F9204600F078
:10268000FFF9257720680169C943C90617D4C168D5
:10269000C943C90613D46FF01001016108202077E7
:1026A0002068C06910F4407F204602D0FFF7DAFCB2
:1026B00004E000F0E7F8204600F0E2F92577206812
:1026C0000169C943C90708D1C168C943C90704D111
:1026D000891E0161204600F0D5F920680169C943CF
:1026E000090609D4C168C943090605D46FF0800101
:1026F00001612046FFF717FA20680169C9434906BE
:1027000009D4C168C943490605D46FF0400101618D
:10271000204600F052FA20680169C94389060BD4AB
:10272000C168C943890607D46FF0200101612046C2
:10273000BDE87040FFF7F8B970BD0000F0B587B094
:10274000044614216846FDF773FD314D23680022CD
:10275000304902243048AB4211D10B6843F00103E9
:102760000B600968029201F0010105914FF470615C
:10277000CDE900140121CDE9034169460EE0274F60
:102780000326274DBB420DD1086840F002000860C7
:10279000086800F00200059098150FE0FEF796FB20
:1027A00007B0F0BD1F4FBB4210D1086840F00200D7
:1027B0000860086800F00200059058150090CDE907
:1027C0000142CDE9032669462846E7E7164E09256A
:1027D000B34209D10B6843F001030B60096801F0B3
:1027E0000101059140210BE0104EB342D8D10B6896
:1027F00043F001030B60096801F00101059180219C
:102800000091CDE90142CDE903256946C6E7000004
:102810000000014030380240000002400044014006
:102820000004024000480140001C0040002000401D
:1028300070B5044690F83C00002501280FD0012017
:1028400084F83C006AB1042A0FD0082A11D00C2A5F
:1028500013D00125002084F83C00284670BD0220DA
:1028600070BD206802F0A2F9F4E7206802F0CEF90A
:10287000F0E7206802F000FAECE7206802F030FA96
:10288000E8E7000038B5234A0168914241D1037F4F
:10289000214A2249012B0CD11378012B39D10B6825
:1028A0005C6AADF80040BDF800401D4D2D682C4419
:1028B0005C63037F022B0CD15378012B29D10B6869
:1028C0005C6AADF80040BDF80040164D2D682C4400
:1028D0009C63037F042B0CD19378012B19D10B68D7
:1028E0005C6AADF80040BDF800400F4D2D682C44E7
:1028F000DC63007F08280CD1D078012809D1086852
:10290000416AADF80010BDF80010084A1268114481
:10291000016438BD00000140880000203001002023
:102920003C0000204000002044000020480000201F
:1029300010B5040003D094F83D0010B107E0012069
:1029400010BD002084F83C00204600F01EF8022054
:1029500084F83D00211D206802F0A4F8012084F8CD
:10296000460084F83E0084F83F0084F8400084F874
:10297000410084F8420084F8430084F8440084F85D
:10298000450084F83D00002010BD704730B500259B
:102990000446022249B1042912D008294CD094F8E7
:1029A0004100012853D0012030BD94F83E00012899
:1029B000F9D184F83E202068C26842F0020209E0A2
:1029C00094F83F000128EED184F83F202068C268C7
:1029D00042F00402C2600122206802F0C7F82149D7
:1029E0002068214A884201D0904203D1436C43F4CD
:1029F000004343642068884213D0B0F1804F10D068
:102A00001A4988420DD01A4988420AD01949884289
:102A100007D0904205D01849884202D01749884211
:102A200004D1816801F00701062903D0016841F053
:102A300001010160284630BD94F840000128B2D160
:102A400084F840202068C26842F00802C2E784F897
:102A500041200C2901D00125ECE72068C26842F032
:102A60001002B7E7000001400004014000040040EC
:102A700000080040000C00400040014000180040E9
:102A80007047000070B540490646006809683F4C31
:102A9000884234D1E0880025401C80B2E080218942
:102AA000491C21816189491C6181A189491CA1813D
:102AB000E189491CE181022802D102F02FFAE58068
:102AC0002089052802D102F0AFFA258160890A2801
:102AD00002D102F0ACF96581A089142802D102F07C
:102AE000A9F9A581E089322802D102F025FAE58111
:102AF000208AB0F5FA7F02D102F018FA2582224925
:102B00003068D8310968884229D120784FF6FF71A2
:102B1000020606D4420604D5C243920620D0401CC9
:102B200020706078020606D4420604D5C24392069D
:102B30001BD0401C6070A078020606D4420604D563
:102B4000C243920616D0401CA070E078020606D45C
:102B5000420604D5C243920611D0401CE07070BDFD
:102B600040F0800020706182DBE740F08000607000
:102B7000A182E0E740F08000A070E182E5E740F04C
:102B80008000E070218370BD780100205800002093
:102B90000246002041B1042909D008290AD00C2995
:102BA00001D11068006C70471068406B7047106866
:102BB000806B70471068C06B70477047704710B5E6
:102BC00004460068406994F83D10C0F3C010212904
:102BD00011D180B12068143050E8001F21F080012D
:102BE00040E80012002AF5D1606B08B1FDF754FFF0
:102BF000204602F013FB2068406994F83E10C0F3B1
:102C00008010222911D180B12068143050E8001FB3
:102C100021F0400140E80012002AF5D1A06B08B174
:102C2000FDF73AFF204602F0D2FA002010BD7047AF
:102C3000F8B5016804460868CA684B6910F00F0FC0
:102C40004FF000055AD003F0010602F490773743A5
:102C500065D0C10705D0D10503D5216C41F0010134
:102C60002164410705D5D90703D0216C41F0020149
:102C70002164810705D5D90703D0216C41F00401F7
:102C80002164010707D502F02001314303D0216CF4
:102C900041F008012164216C00293BD0800604D555
:102CA000900602D5204602F0C7FA20684069216CE0
:102CB000C0F3801001F00801014320462BD002F040
:102CC00086FA20684069400621D52068143050E813
:102CD000001F21F0400140E80012002AF5D1A06B4E
:102CE000A8B16C490165A06BFDF71FFF002811D04A
:102CF000A06B016D01B0BDE8F040084783060ED51A
:102D000093060CD52046BDE8F84002F095BA20465F
:102D1000FFF78DFFF8BDFFF78AFF2564F8BD266B2E
:102D20002023012E79D1C60677D5D60675D5086839
:102D3000486800904869400640D5A16B0868406823
:102D40000004000CEAD0A28D8242E7D9E085C86970
:102D5000B0F5807F2DD020680C3050E8001F21F4A2
:102D6000807140E80012002AF5D12068143050E844
:102D7000001F21F0010140E80012002AF5D120686F
:102D8000143050E8001F21F0400140E80012002AF2
:102D9000F5D184F83E30256320680C3050E8001FE0
:102DA00021F0100140E80012002AF5D1A06BFDF7D8
:102DB00073FEA08DE18D401A81B229E0A08DE18DD6
:102DC000401A81B2E08D0028A8D00029A6D0206842
:102DD0000C3050E8002F22F4907240E80026002EBC
:102DE000F5D12068143050E8002F22F0010240E8AD
:102DF0000026002EF5D184F83E30256320680C3083
:102E000050E8002F22F0100240E80023002BF5D1FB
:102E10002046FFF7D3FEF8BDFFE705062BD51506C4
:102E200029D594F83D002128F5D1A068B0F5805F40
:102E300001D12069B0B1206A411C2162216800786B
:102E40004860E08C401E0004000CE084E3D1206860
:102E5000C16821F08001C1602068C16841F0400173
:102E6000C160D8E7206A0088C0F308004860206A83
:102E7000801C2062E5E74006CDD55006CBD5CA6858
:102E8000204622F04002CA6084F83D3000F0DBFAB0
:102E9000C1E70000D950000870B5040004D094F8D0
:102EA0003D00002510B106E0012070BD84F83C50C3
:102EB000204600F023F8242084F83D002068C168F3
:102EC00021F40051C160204602F016FA2068016921
:102ED00021F4904101612068416921F02A0141619A
:102EE0002068C16841F40051C1602564202084F845
:102EF0003D0084F83E00002070BD00002DE9F04F39
:102F000087B0044614216846FDF792F9FF48DFF8C0
:102F1000F88310380221D4F800C0FC4B0322DFF8FC
:102F2000F0E300258F0606154FF0080A4FF0400920
:102F3000C44556D1D3F800C04CF4002CC3F800C0EF
:102F40001B6803F400230593036843F00403036044
:102F5000006800F00400059090028DE82300CDE9A0
:102F6000032A69467046FDF7B1FFDFF8AC83E949F3
:102F70004046C8F80010C0E90175C0E90356C8F81A
:102F80001450C8F81850C8F81C50C8F82050BA4659
:102F9000C8F82450FDF7ACFE08B1FDF7FDFCDE4F8C
:102FA000C4F838806037C8F83840C7F80890C7E9D7
:102FB00003567D61BD61D748FD613D6230307D6261
:102FC000C7E9000A3846FDF793FE08B1FDF7E4FCB7
:102FD0006763002211463420BC63FEF7EFF834200B
:102FE00077E0DFF83883C44579D1D3F800C0A8462C
:102FF0004CF4801CC3F800C01B6803F480130593D5
:10300000036843F004030360036803F004030593BB
:10301000036843F00803036000688B4600F0080073
:1030200005904FF48050CDE900010320CDE9025016
:103030006946CDF810A07046FDF748FF0420CDE9A1
:10304000000B0320CDE902506946CDF810A0B4482A
:10305000FDF73CFFDFF8C0A2AE490AF1C00A3039E3
:103060005046CAF80010C0E90175C0E90356CAF815
:103070001450CAF81850CAF81C50CAF82050CAF8A0
:103080002450FDF735FE08B1FDF786FCA148A54D9B
:10309000C4F838A07830CAF8384085E88102C5E91C
:1030A0000386C5F81480C5F81880C5F81C80C5F8DB
:1030B00020802846C5F82480FDF71AFE08B1FDF7E8
:1030C0006BFC6563002211463520AC63FEF776F891
:1030D0003520FEF765F807B0BDE8F08FFFE7DFF8B1
:1030E00048824FF0070AC4455DD1884BAB461B1D93
:1030F000D3F800C04CF0100CC3F800C01B6803F0FC
:1031000010030593036843F002030360006800F0B6
:1031100002000590C0208DE82300CDE9032A69460E
:103120008248FDF7D3FEDFF8FC81814908F1600891
:103130004046C8F80010C0E90175C0E90356C8F858
:103140001450C8F81850C8F81C50C8F82050C8F8D7
:103150002450FDF7CDFD08B1FDF71EFC714D7448FC
:10316000C4F83880C0357830C8F8384085E8810226
:10317000C5E903B6C5F814B0C5F818B0C5F81CB059
:10318000C5F820B02846C5F824B0FDF7B1FD08B158
:10319000FDF702FC6563002211462520AC63FEF7B3
:1031A0000DF8252095E7DFF88C81C4455AD1D3F876
:1031B00000C0A8464CF4003CC3F800C01B6803F4F0
:1031C00000330593036843F008030360006800F0D0
:1031D0000800059060208DE82300CDE9032A6946A8
:1031E0004F48FDF773FE4B49DFF84CA1483150467C
:1031F000CAF80010C0E90175C0E90356CAF81450B6
:10320000CAF81850CAF81C50CAF82050CAF82450FE
:10321000FDF76EFD08B1FDF7BFFB474D3D48C4F813
:1032200038A060356030CAF8384085E88102C5E9C9
:103230000386C5F81480C5F81880C5F81C80C5F849
:1032400020802846C5F82480FDF752FD08B1FDF71F
:10325000A3FB6563002211462620AC63FDF7AEFF99
:10326000262036E7DFF8D480C4457FF434AFD3F8A6
:1032700000C0A8464CF4802CC3F800C01B6803F4BF
:1032800080230593036843F008030360006800F09F
:10329000080005904FF440708DE82300CDE9032A23
:1032A00069461F48FDF712FEDFF88CA019490AF1A4
:1032B000C00A18395046CAF80010C0E90175C0E9C3
:1032C0000356CAF81450CAF81850CAF81C50CAF865
:1032D0002050CAF82450FDF70BFD08B1FDF75CFB48
:1032E0000C48174DC4F838A01830CAF8384085E8A3
:1032F0008102C5E90386C5F81480C5F81880C5F8B1
:103300001C80C5F820801DE0004C00404038024081
:103310000008024040600240540500200050004078
:10332000000C02407406002000100140000402401E
:1033300040640240004400409407002000480040E0
:10334000B40800202846C5F82480FDF7D1FC08B158
:10335000FDF722FB6563002211462720AC63FDF7D1
:103360002DFF2720B5E690F83E30202B0ED159B125
:1033700052B190F83C30012B08D0012380F83C304A
:103380000023036302F03EB801207047022070471B
:10339000704770472DE9F843044690F83D001F46FA
:1033A00016460D4620284CD1C5B1BEB194F83C005C
:1033B000012846D0012084F83C004FF00008C4F8F2
:1033C0004080212084F83D00FDF78AFEA6848146D6
:1033D000E684A068B0F5805F03D004E00120BDE87A
:1033E000F883206928B12E465FF0000584F83C8000
:1033F0000EE00026FAE78021204602F04DF8A0B941
:10340000AEB116F8010B21684860E08C401EE084E4
:10341000E08C4B464FF0000200970028EBD14FF0B4
:103420004001204602F038F830B10320D7E735F8E4
:10343000020BC0F30800E6E7202084F83D000020DE
:10344000CDE70220CBE7704770B50122094D940209
:1034500021462846FDF73FFE00224FF4346000BFAE
:10346000521C8242FBD321462846BDE87040002210
:10347000FDF731BE0010024070B50122094DD402A3
:1034800021462846FDF727FE00224FF4346000BF96
:10349000521C8242FBD321462846BDE870400022E0
:1034A000FDF719BE0010024070B50122094D14034A
:1034B00021462846FDF70FFE00224FF4346000BF7E
:1034C000521C8242FBD321462846BDE870400022B0
:1034D000FDF701BE0010024070B50122094D5403F2
:1034E00021462846FDF7F7FD00224FF4346000BF67
:1034F000521C8242FBD321462846BDE87040002280
:10350000FDF7E9BD0010024070B50122094D94039A
:1035100021462846FDF7DFFD00224FF4346000BF4E
:10352000521C8242FBD321462846BDE8704000224F
:10353000FDF7D1BD0010024070B50122094DD40342
:1035400021462846FDF7C7FD00224FF4346000BF36
:10355000521C8242FBD321462846BDE8704000221F
:10356000FDF7B9BD00100240FEE7000070B50D4E3A
:1035700005460C463068401B001B00F019FD306802
:1035800028442044404200F0E3FC3068281A001B25
:1035900000F072FD30682844001BBDE8704000F068
:1035A00037BD00001000002070B50E4E05460C46D9
:1035B0003068401B001BF03000F0FAFC30682844F3
:1035C0002044404200F0C4FC3068281A001B00F080
:1035D00053FD30682844001BBDE87040F03000F017
:1035E00017BD00001000002070B50F4E05460C46B8
:1035F0003068401B001B00F5967000F0D9FC306865
:1036000028442044404200F0A3FC3068281A001BE4
:1036100000F032FD30682844001BBDE8704000F522
:10362000967000F0F5BC000010000020B4EEC10A56
:10363000F1EE10FA01DDB0EE410AB4EEE00AF1EE6F
:1036400010FA01D2B0EE600A70470000314808B5A8
:10365000016841F480010160016801F4800100917A
:10366000016841F4001101600068002200F40010BC
:10367000009011460B20FDF7A1FD0B20FDF790FDFA
:10368000002211460C20FDF799FD0C20FDF788FD66
:10369000002211460D20FDF791FD0D20FDF780FD64
:1036A000002211460E20FDF789FD0E20FDF778FD62
:1036B000002211460F20FDF781FD0F20FDF770FD60
:1036C000002211461020FDF779FD1020FDF768FD5E
:1036D000002211461120FDF771FD1120FDF760FD5C
:1036E000002211462F20FDF769FD2F20FDF758FD20
:1036F000002211463A20FDF761FD3A20FDF750FD0A
:10370000002211464620FDF759FDBDE8084046203D
:10371000FDF746BD303802402DE9F04F87B0142147
:103720006846FCF785FD5A480024016841F0100105
:103730000160016801F010010591016841F0040188
:103740000160016801F004010591016841F0800108
:103750000160016801F080010591016841F00101FB
:103760000160016801F001010591016841F0020169
:103770000160016801F002010591016841F0080152
:1037800001600068DFF80CA100F008004FF47C47EE
:103790000590002239465046FDF79DFCDFF8F8B051
:1037A00045F23808002241465846FDF794FC4FF494
:1037B0007079002249463948FDF78DFC7C204FF492
:1037C0008816CDE900060125694602955046FDF7A9
:1037D0007DFB6803CDE90006694602952F48FDF799
:1037E00075FB0C20CDE9000469462C480294FDF7D6
:1037F0006DFB49F23000CDE9000469462848029487
:10380000FDF764FB0220CDE90204CDE900756946AD
:103810005046FDF75BFBCDF80080CDE901546946C9
:1038200058460394FDF752FBCDF80090CDE90154C2
:1038300069461A480394FDF749FB00220521082038
:10384000FDF7BCFC0820FDF7ABFC00220521092098
:10385000FDF7B4FC0920FDF7A3FC002205210A2096
:10386000FDF7ACFC0A20FDF79BFC00220521172088
:10387000FDF7A4FC1720FDF793FC0022052128206A
:10388000FDF79CFC2820FDF78BFC07B0BDE8F08F0E
:10389000303802400010024000040240000802409C
:1038A000000002400F4810B50D4901604FF48271CD
:1038B000416000218160C1604FF400720161C0E984
:1038C0000512C1610162416281620A21C162FDF794
:1038D000C7FF002803D0BDE81040FDF75DB810BD5C
:1038E00000380040D800002010B588B01C21684680
:1038F000FCF79EFC1548144900240160A721C0E98B
:1039000001144FF6FF71C0E903148461FEF780F9DA
:1039100008B1FDF741F80D48FFF70AF808B1FDF7C7
:103920003BF8302000903220CDE9010400226946A6
:1039300006480494FEF77CFF08B1FDF72DF8034814
:10394000FEF7FCFE08B010BD00440140E00200207C
:1039500010B588B01C216846FCF76AFC154814496C
:1039600000240160A721C0E901144FF6FF71C0E9EE
:1039700003148461FEF74CF908B1FDF70DF80D480A
:10398000FEF7D6FF08B1FDF707F83020CDE90004B7
:1039900002940022694607480494FEF749FF08B1E3
:1039A000FCF7FAFF0348FEF7C9FE08B010BD00009F
:1039B000004801402803002010B588B01C2168464B
:1039C000FCF736FC1548144900240160A721C0E922
:1039D00001144FF6FF71C0E903148461FEF718F972
:1039E00008B1FCF7D9FF0D48FEF7A2FF08B1FCF7BC
:1039F000D3FF3020CDE90004029400226946074835
:103A00000494FEF715FF08B1FCF7C6FF0348FEF764
:103A100095FE08B010BD0000001C0040700300209F
:103A200010B588B01C216846FCF702FC1548144903
:103A300000240160A721C0E901144FF6FF71C0E91D
:103A400003148461FEF7E4F808B1FCF7A5FF0D4804
:103A5000FEF76EFF08B1FCF79FFF3020CDE90004B0
:103A600002940022694607480494FEF7E1FE08B17B
:103A7000FCF792FF0348FEF761FE08B010BD00009E
:103A800000200040B803002010B596B000240F9429
:103A900010941194129413941C2168461494FCF70A
:103AA000C7FB202107A8FCF7C3FB35483349016059
:103AB000A721C0E901144FF6FF71C0E90314446166
:103AC0008461FEF7A5F808B1FCF766FF4FF480505B
:103AD0000F900FA92A48FEF757FA08B1FCF75CFFD0
:103AE0002748FEF725FF08B1FCF756FF139413A9EA
:103AF00023481494FEF744F808B1FCF74DFF30203A
:103B000000904FF4FA70CDE90104039404940594F5
:103B1000002269461A480694FEF78AFE08B1FCF7AF
:103B20003BFF042269461648FEF782FE08B1FCF707
:103B300033FF082269461248FEF77AFE08B1FCF707
:103B40002BFF0C2269460E48FEF772FE08B1FCF707
:103B500023FF0794089409944FF400500A94CDE988
:103B60000B4007A906480E94FDF7DFFF08B1FCF7EC
:103B700013FF0348FEF7E2FD16B010BD0000014040
:103B80003001002010B586B000241748009401943D
:103B90000294039404944FF0804105940160A7219E
:103BA000C0E9011440F2E731C0E9031480218161CA
:103BB000FEF72EF808B1FCF7EFFE4FF480500090AE
:103BC00069460948FEF7E0F908B1FCF7E5FE049400
:103BD00004A905480594FDF7D3FF002801D0FCF7A0
:103BE000DBFE06B010BD00007801002010B58AB0E1
:103BF0000024274804940594069407940894099493
:103C0000009401940294214903940160A721C0E922
:103C100001144FF6FF71C0E903148461FDF7F8FF4A
:103C200008B1FCF7B9FE4FF48050049004A918487D
:103C3000FEF7AAF908B1FCF7AFFE1548FEF715FC30
:103C400008B1FCF7A9FE089408A911480994FDF7EA
:103C500097FF08B1FCF7A0FE0120CDE90040062047
:103C6000CDE90240082269460948FEF76FFB08B11A
:103C7000FCF792FE0C2269460548FEF767FB002818
:103C800001D0FCF789FE0AB010BD0000000400401E
:103C9000C001002010B586B000241648009401949D
:103CA00002940394049412490594C0E900144FF659
:103CB000FF71C0E9024104618461FDF7A9FF08B109
:103CC000FCF76AFE4FF48050009069460948FEF701
:103CD0005BF908B1FCF760FE049404A9054805945B
:103CE000FDF74EFF002801D0FCF756FE06B010BDD0
:103CF000000800400802002010B58AB000242F48B8
:103D000004940594069407940894099400940194EB
:103D10000294294903940160A721C0E901144FF6D8
:103D2000FF71C0E903148461FDF772FF08B1FCF76D
:103D300033FE4FF48050049004A92048FEF724F984
:103D400008B1FCF729FE1D48FEF78FFB08B1FCF710
:103D500023FE089408A919480994FDF711FF08B13A
:103D6000FCF71AFE0120CDE900400620CDE9024013
:103D7000002269461148FEF7E9FA08B1FCF70CFE8B
:103D8000042269460D48FEF7E1FA08B1FCF704FE8B
:103D9000082269460948FEF7D9FA08B1FCF7FCFD8C
:103DA0000C2269460548FEF7D1FA002801D0FCF73D
:103DB000F3FD0AB010BD0000000C004050020020CE
:103DC0001CB500240F4800940D4901940160A721FF
:103DD000C0E9011440F2E731C16080218161FDF743
:103DE00017FF08B1FCF7D8FD009469460548019417
:103DF000FDF7C6FE002801D0FCF7CEFD1CBD00007B
:103E000000100040980200200C4810B50A490160DB
:103E10004FF4E1314160002181600C22C160C0E9B2
:103E200004128161C161FFF737F8002803D0BDE8B3
:103E30001040FCF7B1BD10BD004C00400004002054
:103E40000C4810B50A4901604FF4E131416000218E
:103E500081600C22C160C0E904128161C161FFF779
:103E60001BF8002803D0BDE81040FCF795BD10BD3D
:103E700000500040440400200C4810B50A4901607D
:103E80004FF416514160002181600C22C160C0E9ED
:103E900004128161C161FEF7FFFF002803D0BDE875
:103EA0001040FCF779BD10BD0010014088040020CF
:103EB0000C4810B50A4901604FF4E131416000211E
:103EC00081600C22C160C0E904128161C161FEF70A
:103ED000E3FF002803D0BDE81040FCF75DBD10BD36
:103EE00000440040CC0400200C4810B50A49016091
:103EF0004FF416514160002181600C22C160C0E97D
:103F000004128161C161FEF7C7FF002803D0BDE83C
:103F10001040FCF741BD10BD0048004010050020D6
:103F2000FEE72DE9F04106461446881B0D46204465
:103F300000F03EF87719E01B00F00AF8701B2044EF
:103F400000F09AF83819BDE8F04100F061B80000BF
:103F500070B504460121134B0A261348134D0A2C51
:103F60000BDD4170002280211846FDF7B4F894FB68
:103F7000F6F000F0DAFC286070BD14F10A0F0DDADB
:103F80004170604290FBF6F000F0CFFC2860BDE885
:103F90007040012280211846FDF79DB80021417034
:103FA000296070BD00080240880000204000002009
:103FB00070B504460121134B0A261348134D0A2CF1
:103FC0000BDD0170002240211846FDF784F894FBB8
:103FD000F6F000F0AAFC286070BD14F10A0F0DDAAB
:103FE0000170604290FBF6F000F09FFC2860BDE895
:103FF0007040012240211846FDF76DB80021017084
:10400000296070BD00080240880000203C000020AC
:104010002DE9F041044601214B02144F0A261448B1
:10402000144D0A2C0CDDC170012219463846FDF7EB
:1040300052F894FBF6F000F078FC2860BDE8F081BF
:1040400014F10A0F0DDAC170604290FBF6F000F037
:104050006CFC28603846BDE8F04100221946FDF7A7
:104060003AB80021C1702960E8E70000000802406A
:1040700088000020480000202DE9F041044601217D
:104080000B02144F0A261448144D0A2C0CDD8170C3
:10409000012219463846FDF71EF894FBF6F000F0B1
:1040A00044FC2860BDE8F08114F10A0F0DDA81703C
:1040B000604290FBF6F000F038FC28603846BDE81E
:1040C000F04100221946FDF706B8002181702960F1
:1040D000E8E70000000802408800002044000020BB
:1040E000FEE7000030B40021084B0A465FF00000F4
:1040F00003EBC004401CC0B262548028F8D3491CB2
:10410000C9B20829F2D330BC00F096B814090020D7
:1041100030B5CC0801F0070301259D40EBB2064DF8
:1041200005EBC005C808285C0AB1184302E063EA41
:104130000000C043285530BD1409002010B50021EF
:10414000AE2000F067F90021084600F063F9002175
:10415000102000F05FF90021402000F05BF9002101
:10416000812000F057F90021CF2000F053F9002101
:10417000A12000F04FF90021C82000F04BF90021E8
:10418000A62000F047F90021A82000F043F9002103
:104190003F2000F03FF90021D32000F03BF900213F
:1041A000084600F037F90021D52000F033F900214E
:1041B000802000F02FF90021D92000F02BF90021F8
:1041C000F12000F027F90021DA2000F023F9002186
:1041D000122000F01FF90021DB2000F01BF9002164
:1041E000402000F017F90021202000F013F90021F1
:1041F000022000F00FF900218D2000F00BF90021C2
:10420000142000F007F90021A42000F003F9002198
:10421000A62000F0FFF8FFF765FF0021BDE8104081
:10422000AF2000F0F7B80246012000E05043491EDD
:10423000C9B2FBD27047000070B5114E002400BF18
:1042400004F1B000C0B2002100F0E4F800210846FB
:1042500000F0E0F80021102000F0DCF85FF000052D
:1042600006EBC5000121005D00F0D4F86D1CEDB235
:10427000802DF5D3641CE4B2082CE1D370BD00009E
:10428000140900202DE9FC4F1C460E4682468B4641
:104290000190082B0ED0600700D0012000EBD40065
:1042A000610810FB01F0C0B28146203AD0B2009004
:1042B00000204AE00620F7E7082C12D00C2C17D07B
:1042C000102C1AD0182C43D10098234900EBC000C1
:1042D00001EB8001002711F80850E80712D00B9A73
:1042E00013E000981D4900EB400001EB4001F1E7AD
:1042F00000981B4900EB4000EAE71A49009801EBDF
:104300000011E7E70B9828B3002231465046FFF72B
:10431000FFFE761C7F1C6D08FFB2F6B2082FDCD3BF
:104320000AF1010000F0FF0A082C0AD00199AAEB5B
:104330000100B0EB540F04D10BF108008A4600F0E5
:10434000FF0B08F101005E46C0B280464845B3D37A
:10435000BDE8FC8F0122D8E760760008D469000828
:10436000FC6B0008707000082DE9F84F0025DDE9AE
:104370000A691F4692468B468046082E00D10225C8
:1043800000241CE0381B401EC1B20A20FFF74BFF7F
:10439000BAFBF0F00A21B0FBF1F201FB1200CDF8FC
:1043A000009080B13030C2B205EB560101FB0480B1
:1043B000C0B233465946FFF765FF641CE4B2BC4205
:1043C000E0D3BDE8F88F05EB560101FB0480C0B2D5
:1043D00033463022EEE72DE9F8411E461546884661
:1043E0000446079F0BE03346414620460097FFF7FF
:1043F00049FF082E0AD004EB5600C4B26D1C2A787F
:10440000A2F120005E28EED9BDE8F881A41DE4B237
:10441000F4E7000073B5114C4FF4805509B1012247
:1044200000E0002229462046FCF755FE4FF4804666
:10443000002231462046FCF74EFE0A23012269463F
:104440000748FDF7A9FA012231462046FCF743FE52
:10445000012229462046FCF73EFE7CBD00040240B6
:10446000D800002070B5114D10212846FCF726FE1B
:104470000F4C202160702846FCF720FEA070A91484
:104480002846FCF71BFEE0704FF400412846FCF77D
:1044900015FE084D207104212846FCF70FFEE0713F
:1044A00008212846FCF70AFE207270BD0000024079
:1044B000CC0000200008024000B580ED090A30EE73
:1044C000600A9FED271ADFED271A80ED070AD0ED6D
:1044D000000A9FED252A60EE800AC0ED010AD0EDAA
:1044E000060A60EE810AB0EE611A30EE800AF0EE44
:1044F000420A80ED060AFFF799F880ED060AD0ED32
:10450000020AB0EE611A20EE800AF0EE420A80ED57
:10451000030AFFF78BF880ED030AD0ED070A90ED50
:10452000081AD0ED041A30EEC11A21EE211A80EDDE
:10453000051AC0ED080AD0ED010A30EE800ADFED61
:104540000C0A30EE010A9FED091A80ED0D0AFFF703
:104550006DF880ED0D0ABDEEC00A10EE100A00BD28
:10456000CDCC4C3F0000C8420000C8C20000A042B1
:104570000000A0C200B580ED090A30EE600A9FED90
:10458000271ADFED271A80ED070AD0ED000A9FED0C
:10459000252A60EE800AC0ED010AD0ED060A60EE21
:1045A000810AB0EE611A30EE800AF0EE420A80ED28
:1045B000060AFFF73BF880ED060AD0ED020AB0EEDE
:1045C000611A20EE800AF0EE420A80ED030AFFF73E
:1045D0002DF880ED030AD0ED070A90ED081AD0ED12
:1045E000041A30EEC11A21EE211A80ED051AC0ED31
:1045F000080AD0ED010A30EE800ADFED0C0A30EE39
:10460000010A9FED091A80ED0D0AFFF70FF880ED02
:104610000D0ABDEEC00A10EE100A00BDCDCC4C3F15
:1046200000007A4400007AC40000C8420000C8C2FA
:1046300000B580ED090A30EEC00A9FED271ADFEDC4
:10464000271A80ED070AD0ED000A9FED252A60EEBB
:10465000800AC0ED010AD0ED060A60EE810AB0EED4
:10466000611A30EE800AF0EE420A80ED060AFEF78B
:10467000DDFF80ED060AD0ED020AB0EE611A20EEF1
:10468000800AF0EE420A80ED030AFEF7CFFF80EDCC
:10469000030AD0ED070A90ED081AD0ED041A30EEA7
:1046A000C11A21EE211A80ED051AC0ED080AD0EDDD
:1046B000010A30EE800ADFED0C0A30EE010A9FEDB0
:1046C000091A80ED0D0AFEF7B1FF80ED0D0ABDEE6F
:1046D000C00A10EE100A00BDCDCC4C3F000048448B
:1046E000000048C400007A4400007AC480ED000A4B
:1046F000C0ED020A80ED041A9FED0D0ADFED0D0AF0
:1047000080ED060A80ED010A80ED030A80ED050ABE
:104710009FED091AC0ED0A0A80ED0B1AC0ED0C0AD4
:1047200080ED090A80ED070A80ED080A7047000055
:104730000000000000401C4600007A4400B580EDF7
:10474000090A30EEC00A9FED271ADFED271A80ED27
:10475000070AD0ED000A9FED252A60EE800AC0ED21
:10476000010AD0ED060A60EE810AB0EE611A30EE61
:10477000800AF0EE420A80ED060AFEF757FF80ED50
:10478000060AD0ED020AB0EE611A20EE800AF0EEC1
:10479000420A80ED030AFEF749FF80ED030AD0EDDF
:1047A000070A90ED081AD0ED041A30EEC11A21EE76
:1047B000211A80ED051AC0ED080AD0ED010A30EE8D
:1047C000800ADFED0C0A30EE010A9FED091A80ED38
:1047D0000D0AFEF72BFF80ED0D0ABDEEC00A10EEAC
:1047E000100A00BDCDCC4C3F00009643000096C39C
:1047F00000C05A4500C05AC5704700000148FCF788
:10480000B1BF0000D800002010B5806B0021C18727
:10481000C186FCF7A5FF10BD38B504461248134BFE
:104820000068B0FBF3F04FF47A735843009060686F
:10483000B0F5827F0DD10B460092002280212046E8
:1048400000F016F870B1606D40F020006065032044
:1048500038BD009830B1401E009020688068C04389
:104860000006F6D5002038BD8400002000366E0119
:104870002DE9F8431E46914688460446089DFCF7FC
:104880002FFC401B351AFCF72BFC07462548006817
:10489000C0F3CB30684338E0701C37D0FCF720FC05
:1048A000C01BA84203D215B1009860B32CE0206869
:1048B000416821F0E00141606068B0F5827F0BD172
:1048C000A068B0F5004F02D0B0F5806F04D1206829
:1048D000016821F040010160A06AB0F5005F09D1D4
:1048E0002068016821F4005101602068016841F4EA
:1048F00000510160012084F85100002084F850002C
:104900000320BDE8F8830025401E009020688168E0
:1049100038EA010004D000214945BDD10020F0E76C
:104920000121F9E7840000207047002807DD4FF4DB
:10493000C871884200DD0846C0F5CD707047002080
:10494000704710B50020FFF733FB0020FFF700FB96
:104950000020FFF791FBBDE810400020FFF758BB97
:10496000FCF7C4BB30B593B030216846FBF760FC60
:1049700014210CA8FBF75CFC1E480024016841F0E0
:1049800080510160006800F0805011901A48016861
:1049900041F4804101600068102100F480401190D2
:1049A0000A2000900120CDE903010225CDE905058B
:1049B0000820CDE90740A820CDE9090504200B9087
:1049C0006846FCF717FD08B172B6FEE70F20CDE987
:1049D0000C054FF4A050CDE90E404FF480501090DC
:1049E00005210CA8FCF71CFC002801D072B6FEE7DC
:1049F00013B030BD403802400070004002480168EA
:104A000041F470010160704788ED00E00148FDF756
:104A1000E1BD0000300100200148FDF7DBBD0000D2
:104A20003001002010B50448FDF7D4FDBDE810406A
:104A30000248FDF7CFBD0000300100202803002010
:104A400010B50448FDF7C6FDBDE810400248FDF76B
:104A5000C1BD000030010020E00200200148FDF748
:104A6000B9BD0000780100200148FDF7B3BD00008A
:104A7000C00100200148FDF7ADBD0000500200203C
:104A80000148FDF7A7BD0000980200200148FDF78E
:104A9000A1BD0000B80300200148FDF79BBD000048
:104AA00070030020F0B50268254C264D264E274F96
:104AB000274B4FF0804CA04209D0604507D0A84258
:104AC00005D0B04203D0B84201D0984204D122F0C0
:104AD000700E4A6842EA0E02A0421BD0604519D00F
:104AE000A84217D0B04215D0B84213D0984211D086
:104AF000184DA8420ED0184DA8420BD0174DA84211
:104B000008D0174DA84205D0164DA84202D0164D28
:104B1000A84203D122F44075CA682A434D6922F0A5
:104B200080022A4302608A68C2620A688262A042E6
:104B300001D0984201D10969016301214161F0BDB1
:104B4000000001400004004000080040000C00404C
:104B50000004014000400140004401400048014081
:104B600000180040001C00400020004010B501F07B
:104B70001F030121046A99408C430462016A9A4030
:104B80001143016210BD10B5846842EA032224F487
:104B90007F440A432243826010BD826822F0700283
:104BA0000A4342F00701816070470000F0B5026AD5
:104BB00022F001020262036A42688469124E24F004
:104BC00073050C682C4323F002058B682B430D4DB5
:104BD000A84201D0B04205D123F00807CB683B437F
:104BE00023F00403A84201D0B04205D14D6922F45C
:104BF000407215438A692A4342608461496841636F
:104C00000362F0BD0000014000040140F0B5026AFB
:104C100022F010020262026A436884690D6824F47B
:104C2000E64444EA05248D6822F0200242EA051297
:104C30000F4D104EA84201D0B04206D1CF6822F0ED
:104C4000800242EA071222F04002A84201D0B0429C
:104C500007D14D6923F4406343EA85038D6943EA34
:104C6000850343608461496881630262F0BD00008E
:104C70000000014000040140F0B5026A22F4807295
:104C80000262026A4368C46922F4007224F0730568
:104C90000C68124E2C438D6842EA05220E4DA84244
:104CA00001D0B04206D1CF6822F4006242EA072266
:104CB00022F48062A84201D0B04207D14D6923F4AA
:104CC000405343EA05138D6943EA05134360C46109
:104CD0004968C1630262F0BD000001400004014068
:104CE00030B5026A22F480520262046A4268C369E3
:104CF0000D6823F4E64343EA05238D6824F4005449
:104D000044EA0534084DA84202D0084DA84204D117
:104D10004D6922F4804242EA85124260C3614968CB
:104D20000164046230BD0000000001400004014045
:104D300010B5036A046A24F001040462846924F053
:104D4000F00444EA021423F00A020A438461026276
:104D500010BD000070B5046A24F001040462846987
:104D6000056A154EB04214D0B0F1804F11D0134EE9
:104D7000B0420ED0124EB0420BD0124EB04208D00C
:104D8000114EB04205D0114EB04202D0104EB0428A
:104D900003D124F00304144301E044F001041A0792
:104DA00024F0F00444EA126225F00A0301F00A013B
:104DB00019438261016270BD00000140000400409F
:104DC00000080040000C0040000401400040014089
:104DD0000018004010B5036A23F0100303628369D2
:104DE000046A23F4704343EA023224F0A00343EA46
:104DF00001118261016210BD30B5046A24F0100413
:104E000004628469056A24F4407444EA022222F4AC
:104E100070444FF6FF7202EA03322243A02425F0C9
:104E2000A00304EA011119438261016230BDFFF75A
:104E300019BB000070B535482DED028B01780629AD
:104E400001D2491C00E005210170C8B2304D314C3F
:104E5000314EB0EE0C8A072813D2DFE800F01204BE
:104E600015222F3C4900FEF7EFFA00F047FC10EE48
:104E7000100A84ED010AA84203DDB1EE0C0A84EDAC
:104E8000010ABDEC028B70BDFEF7F6FA00F070FC73
:104E900010EE100A86ED020AA842F2DA84ED020A48
:104EA000EFE7FEF701FB00F09DFC10EE100A84ED29
:104EB000030AA842E5DD84ED038AE2E7FEF70CFB76
:104EC00000F0CAFC10EE100A86ED040AA842D8DAF7
:104ED00084ED040AD5E7FEF717FB00F0F7FC10EEAF
:104EE000100A84ED050AA842CBDD84ED058AC8E7E7
:104EF000FEF722FB00F024FD10EE100A86ED060AF4
:104F0000A842BEDA84ED060ABBE700008D0000204F
:104F100000002041B00000208C0F002010B500F0F0
:104F20007FFBBDE8104000F033BB000008210148C2
:104F3000FCF7C9B80004024070B52DED028B82B0B9
:104F4000FBF754FCFBF75EFC0124002110232CA28C
:104F500008460094FFF73FFA10252B48CDE900548E
:104F60000278022300213020FFF7FEF9102327A248
:104F7000112100200094FFF72EFA2648CDE90054B5
:104F800090ED000ADFED240A0423112120EE200A0F
:104F90002120BCEEC00A10EE102AFFF7E5F91F4EE3
:104FA000CDE9005496ED060A9FED1D8A04232221C7
:104FB00020EE080A0020BCEEC00A10EE102AFFF70F
:104FC000D3F91848CDE90054027A01232221302078
:104FD000FFF7CAF9CDE9005496ED030A0423332103
:104FE00020EE080A0020BCEEC00A10EE102AFFF7DF
:104FF000BBF902B0BDEC028BBDE87040FFF71CB9F5
:10500000466C61673A000000000000205941573AA1
:1050100000000000240000200000C842B000002072
:1050200000007A44CC00002002480188491C01801D
:10503000704700000200002070B50446604205463B
:10504000FEF7B6FF2846FEF783FF2046FFF714F869
:105050002046BDE87040FEF7DBBF00000148FFF7C7
:105060006DBB0000AC0E00200B4808B5006801685D
:10507000C943C9060AD40168406800900648FDF794
:105080009EFD042205490448FEF76DF9BDE808407D
:105090000148FDF7CDBD0000000400201C000020E9
:1050A0000B4808B500680168C943C9060AD40168FD
:1050B000406800900648FDF782FD04220549044837
:1050C000FEF751F9BDE808400148FDF7B1BD000009
:1050D000440400202000002010B5806B0021C18511
:1050E000C184FDF7A4FD10BD70B5846B20684069D4
:1050F00094F83D10C0F3C0100025212904D118B147
:10510000E584204600F08AF82068406994F83E1053
:10511000C0F38010222904D118B1E585204600F0A3
:1051200056F8206C40F0100020642046FDF77FFD0B
:1051300070BD10B50146806B09680968C9052FD498
:105140000021C18501680C3151E8002F22F48072E2
:1051500041E80023002BF5D10168143151E8002FFC
:1051600022F0010241E80023002BF5D1016814313F
:1051700051E8002F22F0400241E80023002BF5D136
:10518000202180F83E10016B012909D101680C3102
:1051900051E8002F22F0100241E80023002BF5D146
:1051A000016B012902D0FEF7F3F810BD818DFDF7E8
:1051B00005FD10BD10B5806B016B012902D0FEF713
:1051C000E8F810BD818D4908FDF7F8FC10BD0168B5
:1051D0000C3151E8002F22F4907241E80023002B9B
:1051E000F5D10168143151E8002F22F0010241E8A5
:1051F0000023002BF5D1016B012909D101680C3185
:1052000051E8002F22F0100241E80023002BF5D1D5
:10521000202180F83E1000210163704701680C31A5
:1052200051E8002F22F0C00241E80023002BF5D105
:10523000202180F83D10704708B590F83E102229D3
:1052400001D0022008BD82684FF480539A4201D1F8
:10525000016921B1816A9A421BD04AB10AE0026811
:10526000816A5268C2F308020A80816A891C08E0D8
:10527000026972B10268526802F07F020A70816AA4
:10528000491C8162C18D491E0904090CC18503D0E6
:1052900019E002685268F1E70168CA6822F020024A
:1052A000CA600168CA6822F48072CA6001684A69EB
:1052B00022F001024A61202180F83E10016B012991
:1052C00003D0FEF765F8002008BD002101630168E6
:1052D0000C3151E8002F22F0100241E80023002B8E
:1052E000F5D101680A68D20602D50A6849680091BA
:1052F000818DFDF763FCE6E770B50446006801693F
:10530000E26821F44051114301612169A068E2691A
:1053100008436169114308432168CA6849F20C6374
:105320009A430243CA6020684169A26921F440712E
:105330001143416131492068884202D03049884296
:1053400002D1FCF717F801E0FCF704F8E26900234A
:10535000192164253226B2F5004F626828D0A0FBDF
:105360000101930F9200FAF72BFF0146B0FBF5F015
:105370006FF01802504301EB800006EB0010B0FB09
:10538000F5F000F0F002B1FBF5F002EB0012B1FB1A
:10539000F5F06FF01803584301EB800006EB0010A6
:1053A000B0FBF5F000F00F0021681044886070BD7C
:1053B000A0FB010192185B41FAF702FF0146B0FB26
:1053C000F5F00201B1FBF5F06FF01803584301EB63
:1053D000800006EBC000B0FBF5F000F0F80002EB37
:1053E0004002B1FBF5F0584301EB800006EBC00032
:1053F000B0FBF5F000F00700D6E700000010014018
:105400000014014038B581628285002513460446A8
:105410000564222084F83E00A26B1C48D063A26B76
:105420001B481064A26B1B48D064A06B0A4605653C
:105430002168A06B091DFBF7C5FC20680168406866
:10544000009084F83C50206948B120680C3050E846
:10545000001F41F4807140E80012002AF5D1206855
:10546000143050E8001F41F0010140E80012002A0A
:10547000F5D12068143050E8001F41F0400140E8A9
:105480000012002AF5D1002038BD00003351000879
:10549000B5510008E95000082DE9F041984617463B
:1054A0000E460446069D27E0681C25D02DB1FBF76B
:1054B00017FEA0EB0800A8421ED920680C3050E867
:1054C000001F21F4D07140E80012002AF5D12068B5
:1054D000143050E8001F21F0010140E80012002ABA
:1054E000F5D1202084F83D0084F83E00002084F8A7
:1054F0003C000320BDE8F0812068006836EA000027
:1055000004D00020B842CFD00020F3E70120F9E713
:105510000B4808B500680168C943C9060AD4016888
:10552000406800900648FDF74AFB1E2205490448E2
:10553000FDF719FFBDE808400148FDF779BB000001
:1055400088040020900000200148FDF771BB000096
:10555000CC0400200B4808B500680168C943C9069F
:105560000AD40168406800900648FDF728FB022233
:1055700005490448FDF7F7FEBDE808400148FDF77E
:1055800057BB00001005002004000020FEE70000CB
:105590001B48DFED1C1AD0ED000A1B48F5EEC00ACF
:1055A00090ED000A194810EE101A30EEC01AF1EE14
:1055B00010FA11DB164A91420BD89FED162A30EEF5
:1055C000822AB4EEC02AF1EE10FA02DB30EE210A94
:1055D00010E080ED001A70470F4A9142F9DC9FED10
:1055E0000F2A30EE822AB4EEC02AF1EE10FAF0D87B
:1055F00030EE610A30EEC00A80ED000A704700000C
:105600004C0000200000B44354000020240000207F
:10561000000034C3000034C30000344300003443AE
:105620000D480E4ADFED100A817C11700C4A407C57
:10563000107040EA012000B200EE100A0949B8EEED
:10564000C00A08800A4820EE200ADFED080A20EE92
:10565000200A80ED000A70479000002050000020D2
:1056600051000020520000200000003800003443A8
:10567000540000200907090E002804DB00F1E02097
:1056800080F80014704700F00F0000F1E02080F86F
:10569000141D70472DED020B019820F00040019081
:1056A0009DED000B02B0704702E008C8121F08C150
:1056B000002AFAD170477047002001E001C1121F93
:1056C000002AFBD1704700000B49097848434FF08E
:1056D000E021486100228A61086940F00100086108
:1056E0000869C30701D0C003FAD5086920F001009A
:1056F00008618A61704700008C00002010B5144CCE
:105700009FED120A207801061ED5124980060988ED
:1057100001EB9020FAF730FF9FED0F1B53EC112B9C
:10572000FAF738FE9FED0E1B53EC112BFAF732FE01
:105730009FED0D1B53EC112BFAF79EFEFAF760FF5D
:1057400000EE100A0020207010BD000000000000D4
:10575000580000206A00002052B81E85EB69754091
:1057600000000000000059400000000080843E411D
:1057700010B5144C9FED120A207801061ED512496F
:105780008006098801EB9020FAF7F6FE9FED0F1BCB
:1057900053EC112BFAF7FEFD9FED0E1B53EC112B72
:1057A000FAF7F8FD9FED0D1B53EC112BFAF764FE91
:1057B000FAF726FF00EE100A0020207010BD00004E
:1057C00000000000590000206C00002052B81E8527
:1057D000EB69754000000000000059400000000027
:1057E00080843E4110B5144C9FED120A20780106CA
:1057F0001ED512498006098801EB9020FAF7BCFEFD
:105800009FED0F1B53EC112BFAF7C4FD9FED0E1B00
:1058100053EC112BFAF7BEFD9FED0D1B53EC112B32
:10582000FAF72AFEFAF7ECFE00EE100A00202070CC
:1058300010BD0000000000005A0000206E00002093
:1058400052B81E85EB697540000000000000594009
:105850000000000080843E4110B5144C9FED120AF8
:10586000207801061ED512498006098801EB902098
:10587000FAF782FE9FED0F1B53EC112BFAF78AFD0E
:105880009FED0E1B53EC112BFAF784FD9FED0D1BC2
:1058900053EC112BFAF7F0FDFAF7B2FE00EE100A06
:1058A0000020207010BD0000000000005B00002000
:1058B0007000002052B81E85EB69754000000000A2
:1058C000000059400000000080843E4110B5144C97
:1058D0009FED120A207801061ED51249800609881C
:1058E00001EB9020FAF748FE9FED0F1B53EC112BB4
:1058F000FAF750FD9FED0E1B53EC112BFAF74AFD02
:105900009FED0D1B53EC112BFAF7B6FDFAF778FE5D
:1059100000EE100A0020207010BD00000000000002
:105920005C0000207200002052B81E85EB697540B3
:1059300000000000000059400000000080843E414B
:1059400010B5144C9FED120A207801061ED512499D
:105950008006098801EB9020FAF70EFE9FED0F1BE1
:1059600053EC112BFAF716FD9FED0E1B53EC112B88
:10597000FAF710FD9FED0D1B53EC112BFAF77CFD90
:10598000FAF73EFE00EE100A0020207010BD000065
:10599000000000005D0000207400002052B81E8549
:1059A000EB69754000000000000059400000000055
:1059B00080843E412DED088B82B0FBF79FFBFEF704
:1059C000D1FFFDF7A9FEFDF741FEFEF755FAFEF700
:1059D0006FFAFEF789FAFDF765FFFEF755F8FEF757
:1059E00005F9FEF789F9FEF7CDF8FEF753F9FDF753
:1059F0007BFFFDF7ADFFFDF7DFFFFEF711F8FEF7C8
:105A0000DFF9FEF701FAFEF71BFAFEF797FBFEF748
:105A100069FB0520FBF70EFA4FF001090021102366
:105A2000FDA20846CDF80090FEF7D5FCFEF704FC79
:105A3000A820FAF795FFFA48FCF766FAF948FCF750
:105A400063FAF948FCF724FA0821F748FCF73CFD13
:105A50000C21F548FCF738FDF3480068C16841F0B7
:105A60000101C160F148FCF713FA0021EF48FCF78F
:105A70002BFD0421ED48FCF727FD0821EB48FCF73E
:105A800023FD0C21E948FCF71FFDE8480068C168C8
:105A900041F00101C160E648FCF7FAF90021E44851
:105AA000FCF774FF0421E248FCF770FF0821E0488E
:105AB000FCF76CFF0C21DE48FCF768FFDD48FCF7C3
:105AC000E7F90021DB48FCF761FFDB48FCF7E0F970
:105AD0000021D948FCF75AFFD848FCF7D9F9002132
