:020000040800F2
:10000000B80C002029020008EF1B0008F5190008B1
:10001000ED1B0008C50400081D21000800000000B9
:10002000000000000000000000000000251C000887
:10003000B505000800000000F11B0008271C00089F
:10004000430200084302000843020008430200087C
:10005000430200084302000843020008430200086C
:10006000B7050008BD050008C305000843020008E5
:10007000C904000843020008D50400084302000830
:10008000E1040008ED0400084302000843020008F0
:10009000430200084302000843020008C9050008A3
:1000A000430200084302000843020008430200081C
:1000B000430200084302000843020008430200080C
:1000C00043020008430200084302000843020008FC
:1000D00043020008DD200008052100081121000866
:1000E00043020008430200084302000843020008DC
:1000F00043020008430200084302000843020008CC
:1001000043020008430200084302000843020008BB
:1001100043020008430200084302000843020008AB
:100120004302000843020008F904000843020008E3
:10013000430200084302000843020008430200088B
:10014000430200084302000843020008430200087B
:1001500043020008430200080505000843020008A6
:10016000430200084302000843020008430200085B
:100170004302000843020008430200080000000098
:10018000430200084302000800F002F800F03CF8C7
:100190000AA090E8000C82448344AAF10107DA45E2
:1001A00001D100F031F8AFF2090EBAE80F0013F0F8
:1001B000010F18BFFB1A43F001031847502100003C
:1001C00070210000103A24BF78C878C1FAD85207CD
:1001D00024BF30C830C144BF04680C6070470000C1
:1001E0000023002400250026103A28BF78C1FBD840
:1001F000520728BF30C148BF0B6070471FB502F0DF
:100200006FF81FBD10B510BD00F0F1F81146FFF7F3
:10021000F5FF02F011F800F00FF903B4FFF7F2FF59
:1002200003BC00F017F9000009488047094800475F
:10023000FEE7FEE7FEE7FEE7FEE7FEE7FEE7FEE796
:10024000FEE7FEE704480549054A064B70470000F3
:10025000C11C000889010008B8060020B80C002065
:10026000B8080020B808002053EA020C00F06980AA
:100270002DE9F04B4FF00006002B1FBFB3FA83F5BA
:1002800003FA05F424FA05F65E4012BF1643B2FAEB
:1002900082F502FA05F4C5F120051EBF22FA05FC1D
:1002A00044EA0C04203556EA044C4FEA144418BFC3
:1002B000641C4FF000084FF00009904271EB030CF2
:1002C00039D3002919BFB1FA81F701FA07F6B0FA5C
:1002D00080F700FA07F6C7F120071EBF20FA07FCD7
:1002E00046EA0C062037B6FBF4FCA7EB0507103FE7
:1002F00007F01F0BCBF120060CFA0BFB2CFA06F6CD
:1003000044BFB3460026202FA4BF5E464FF0000B2B
:100310005BEA060C08BF4FF0010B19EB0B09ABFBB6
:10032000027C48EB0608C01B06FB02CC0BFB03CC8F
:1003300071EB0C01C1E70B46024641464846BDE859
:10034000F08B13B54FF000004FF00001AFF30080C9
:10035000BDE81C4070474FF000020429C0F0128035
:1003600010F0030C00F01B80CCF1040CBCF1020F68
:1003700018BF00F8012BA8BF20F8022BA1EB0C013D
:1003800000F00DB85FEAC17C24BF00F8012B00F833
:10039000012B48BF00F8012B70474FF0000200B559
:1003A000134694469646203922BFA0E80C50A0E898
:1003B0000C50B1F12001BFF4F7AF090728BFA0E846
:1003C0000C5048BF0CC05DF804EB890028BF40F812
:1003D000042B08BF704748BF20F8022B11F0804F54
:1003E00018BF00F8012B704770477047704775467B
:1003F00000F02CF8AE4605006946534620F0070091
:10040000854618B020B5FFF71DFFBDE820404FF02E
:1004100000064FF000074FF000084FF0000B21F0EE
:100420000701AC46ACE8C009ACE8C009ACE8C009BB
:10043000ACE8C0098D46704710B50446AFF30080A4
:100440002046BDE81040FFF7E8BE000000487047B6
:100450005806002001491820ABBEFEE72600020026
:1004600070470000124810B50068C16841F01001E3
:10047000C160FF220F490E4801F05CFA0E48006887
:10048000C16841F01001C1600A49FF22FF310A48EA
:1004900001F050FA09480068C16841F01001C160DC
:1004A000BDE81040FF220649044801F043BA0000AD
:1004B0001C0000205803002060000020A400002041
:1004C00056050020FEE70000014800F05BB900007F
:1004D00068020020014800F055B90000C802002061
:1004E000014800F04FB90000A8010020014800F0C9
:1004F00049B9000008020020014800F043B900009B
:10050000E8000020014800F03DB90000480100204B
:1005100001681823CAB2103AB2FBF3F2054B6FF32D
:100520000901032A9B5CC36500D9091D8165084642
:1005300070470000EA22000810B5014600208B69D0
:100540008A6A4FF0C07453B1B3F5005F15D072B131
:10055000012A0CD0022A0AD0032A09D104E01AB1D8
:10056000012A06D0022A03D1C96AC90100D5012097
:1005700010BDC96AA142FAD010BD002AF7D0012AE5
:10058000F2D0022AF3D0032AF3D010BD30B50468AC
:10059000256825F480252560046863608368402B06
:1005A000036803D099600068C26030BD9A6000683B
:1005B000C16030BD7047042000F05ABA082000F036
:1005C00057BA102000F054BA202000F051BA0000B1
:1005D00010B511480122C8230270037140F6B834E7
:1005E0009FED0E0A448080ED020A002101734173E1
:1005F00002740375448280ED060A0177417780F822
:10060000202080F82430448480ED0A0A80F82C10E1
:1006100080F82D1010BD000028030020000000000D
:100620002DE9FF410024DDE90A65B5EEC00A00941A
:10063000F1EE10FA019402942746039400DC01279E
:10064000B5EEC00AF1EE10FA01DCB1EE400A4FF44B
:10065000486CBCEEC00ADFED1B0A8DF8001010EEEE
:10066000104AFD218DF8011004FB0CF400EE104A35
:10067000110A8DF80270B8EE400A8DF804208DF84A
:1006800003108DF8053080EE201A0D22BCEEC10A51
:1006900010EE104A210E8DF80610210C8DF807106F
:1006A000210A8DF808108DF809406B218DF80A6039
:1006B0008DF80C108DF80B50694601F053F9BDE828
:1006C000FF8100000000B44372B6FEE72DE9F0415F
:1006D0000446876D00F0D6FA064694F835000025EA
:1006E000022806D08020606584F834500120BDE8DF
:1006F000F0812068016821F01601016020684169DD
:1007000021F080014161206C08B9A06C20B1206803
:10071000016821F0080101602068016821F00101F1
:1007200001600CE000F0AEFA801B052807D92020FC
:100730006065032084F8350084F83450D7E72068DA
:100740000068C007EED194F85C103F208840B86084
:10075000012084F8350084F834500020C7E790F871
:100760003510022903D08021416501207047052101
:1007700080F835100068016821F001010160002057
:10078000704700002DE9F84304464FF00009CDF80A
:10079000009063484FF41651A56D0068B0FBF1F767
:1007A0002E6894F85C10082000FA01F131420FD055
:1007B00021680A6852070BD50A6822F004020A6011
:1007C00094F85C108840A860606D40F0010060659E
:1007D00094F85C104FF0010808FA01F0304208D09C
:1007E00021684969090604D5A860606D40F00200DF
:1007F000606594F85C1004208840304208D021687D
:100800000968890704D5A860606D40F00400606540
:1008100094F85C1010208840304218D02168096894
:10082000090714D5A86020680168490304D5006849
:10083000000308D5A16C07E00168C90503D401686D
:1008400021F008010160216C09B12046884794F825
:100850005C1020208840304231D021680968C906E8
:100860002DD5A86094F8350005282068016806D0C9
:10087000490347D5006800031DD4616C1CE021F0DA
:10088000160101602068416921F080014161206CFE
:1008900008B9A06C20B12068016821F0080101604E
:1008A00094F85C103F208840A86084F8358084F874
:1008B0003490216D1FE0E16B09B120468847606DDF
:1008C00000282BD0606DC00714D0052084F83500B7
:1008D0002068016821F0010101600098401C00902F
:1008E000B84203D820680068C007F6D184F8358084
:1008F00084F83490E16C002910D001B02046BDE8A6
:10090000F04308470168C905D5D4016821F01001FA
:10091000016084F8358084F83490CCE7BDE8F88332
:10092000100000202DE9F041044600F0ABF9064626
:100930005CB1022084F83500002584F8345020682A
:10094000016821F0010101600DE00120BDE8F081A6
:1009500000F098F9801B052805D920206065032048
:1009600084F83500F2E720680068C007F0D12268FB
:10097000116820480140D4E901031843D4E9033643
:100980003343184363691843A3691843E369184361
:10099000236A18430843616A042903D1D4E90B137D
:1009A00019430843106020684069666A20F0070117
:1009B00030460E43012704280CD1A06A0643E06AA2
:1009C00040B12046FFF7B8FD20B14020606584F8B3
:1009D0003570BAE7206846612046FFF799FD94F824
:1009E0005C203F2191408160656584F8357000206E
:1009F000ACE700003F8010F02DE9F0410446866D21
:100A000090F83400002501280DD0012084F834002E
:100A100094F835700020012F07D084F834000225A7
:100A20002846BDE8F0810220FBE7022784F83570F4
:100A300060652046FFF7AAFD94F85C103F208840CF
:100A4000B0602068016841F016010160206C20B19F
:100A50002068016841F0080101602068016841F0E8
:100A600001010160DCE780B201F069BB7047000062
:100A7000044910B50A68024202D00860FFF7F6FF89
:100A800010BD0000143C01402DE9F84FDFF8BCA177
:100A90000022012503264FF00F090AF1040BAAF1E9
:100AA000040E00BF0B6805FA02F42340A34270D184
:100AB0000F7907F00307012F01D0022F16D18768A5
:100AC0004FEA420806FA08FC27EA0C07D1F80CC0E6
:100AD0000CFA08FC4CEA070CC0F808C04768A743AA
:100AE0000C79C4F3001494403C4344600C79E44313
:100AF000A4070AD0C4684FEA420C06FA0CF7BC43BC
:100B00008F6807FA0CF72743C7600C7904F00304D9
:100B1000022C12D1D40800EB840CDCF820405707DB
:100B2000FF0E09FA07F824EA0804D1F8108008FA41
:100B300007F848EA0408CCF8208004684FEA420C21
:100B400006FA0CF7BC430F7907F0030707FA0CF716
:100B5000274307604C6814F4403F70D03C4C276832
:100B600047F480472760246822F0030704F4804498
:100B70000094384C07EB040CDCF8084897074FEA60
:100B8000177809FA08F7BC43334FB84202D100275F
:100B900024E054E0314FB84201D101271EE0304F2C
:100BA000B84201D1022719E02E4FB84201D10327E4
:100BB00014E02D4FB84201D104270FE02B4FB8426B
:100BC00001D105270AE02A4FB84201D1062705E0E6
:100BD000284FB84201D1072700E0082707FA08F795
:100BE0002743CCF80878DAF800405746D1F804C01B
:100BF0009C435FEACC2C00D51C433C60DBF80040F2
:100C00005F46D1F804C09C435FEA8C2C00D51C439E
:100C10003C60DEF800407746D1F804C09C435FEAB0
:100C20008C3C00D51C433C60084F083F3C68D1F821
:100C300004C09C435FEACC3C00D51C433C60521C82
:100C4000102AFFF42FAFBDE8F88F0000083C0140E8
:100C500044380240003001400000024000040240DD
:100C600000080240000C0240001002400014024044
:100C700000180240001C02400069084000D001201A
:100C800070470000014880687047000004000020A1
:100C90000248816802781144816070470400002096
:100CA0000B4810B5016841F400710160016841F41E
:100CB00080610160016841F480710160032000F0EF
:100CC0006FF80F2000F006F800F024F8002010BDA7
:100CD000003C024070B50D4D04464FF47A712878FF
:100CE000B1FBF0F00A490968B1FBF0F000F00AFB33
:100CF00048B9102C07D200222146501E00F030F8CF
:100D000000206C6070BD012070BD00000400002058
:100D1000100000200A4808B5016841F480410160D4
:100D2000006800F4804000900548001F016841F011
:100D300080510160006800F08050009008BD000004
:100D400044380240002809DB00F01F0201219140D5
:100D50004009800000F1E020C0F800117047000059
:100D6000F0B40E4B1B680C46C3F30223C3F1070516
:100D7000042D00D90425191D072901D2002300E004
:100D8000DB1E012606FA05F1491E214099409E40CE
:100D9000761E16403143F0BC01F0C1B90CED00E005
:100DA000064900F0070208684FF6FF03184040EAC2
:100DB0000220034A10430860704700000CED00E079
:100DC0000000FA052DE9F0470E46050065D0DFF872
:100DD0001481D8F80000F7B200F00700B04207D243
:100DE00088F80070D8F8000000F00700B04254D135
:100DF00028683D4C810712D5400703D5206840F490
:100E0000E05020602878000703D5206840F4604057
:100E100020602068A96820F0F0000843206028784E
:100E2000C0072DD0304968680839012812D002283F
:100E300013D0032811D00968890700292DDA216809
:100E400021F0030101432160FFF71CFF814641F2BD
:100E5000883A0EE009688903EFE709688901ECE741
:100E6000FFF710FFA0EB0901514502D90320BDE8AF
:100E7000F0872068696800F00C00B0EB810FEFD1BB
:100E8000D8F80010404601F00701B14207D90770B9
:100E9000006800F00700B04201D00120E7E72878A1
:100EA000400705D52068E96820F4E0500843206039
:100EB0002878000706D52068296920F4604040EAB8
:100EC000C100206000F038F82168084AC1F303111E
:100ED000515CC8400649086006480068FFF7FAFE02
:100EE0000020C4E7003C024008380240F22200081B
:100EF0001000002008000020044805490068096827
:100F0000044AC1F38221515CC840704710000020A0
:100F100008380240022300080448054900680968AF
:100F2000044AC1F34231515CC840704710000020B0
:100F30000838024002230008154810B5006810F078
:100F40000C02144813D04110042A0FD0082A0ED1E5
:100F50000F4C241F2268236802F03F025B0207D572
:100F60002068C0F38810A0FB010106E0084610BD10
:100F70002168C1F38811A1FB00010023FFF774F978
:100F80002168C1F30141491C4900B0FBF1F010BDDB
:100F9000083802400024F4002DE9F84F04006ED018
:100FA0002078DFF84C93C007A9F104054AD009F175
:100FB00004000168C1F38101012908D00068C0F371
:100FC000810002280AD1D9F80000400206D528681D
:100FD000800337D560680028E1D033E06068B0F561
:100FE000803F10D0B0F5A02F286810D020F48030BA
:100FF0002860286820F4802028606068A8B1FFF786
:1010000041FE06460DE0286840F48030F4E740F4E5
:1010100080202860F7E700BFFFF734FE801B6428BC
:1010200073D828688003F7D50CE0FFF72BFE06463F
:1010300005E000BFFFF726FE801B6428F0D8286873
:101040008003F7D42078DFF8AC8280074FF0000AE5
:101050003ED5A748001D016811F00C0F08D00068AC
:10106000C0F3810002280BD1D9F80000400207D458
:101070002868800716D5E068012800D112E033E126
:10108000E068B8B10120C8F80000FFF7FBFD064694
:1010900005E000BFFFF7F6FD801B0228C0D82868D6
:1010A0008007F7D52868216920F0F80040EAC100E0
:1010B00028600DE0C8F800A0FFF7E4FD064604E054
:1010C000FFF7E0FD801B02281FD828688007F7D4AF
:1010D0002078000722D5864F87486169703771B143
:1010E00001210160FFF7CEFD064604E0FFF7CAFDCF
:1010F000801B022809D838688007F7D50EE0C0F8B1
:1011000000A0FFF7BFFD064605E082E0FFF7BAFD4D
:10111000801B02287DD838688007F7D420784007E4
:1011200068D5DFF8CCB100270BF13C0BDBF80000F1
:10113000C0000BD4DBF8001041F08051CBF8001058
:10114000DBF80000012700F0805000906B4E306803
:10115000C00510D4306840F480703060FFF792FD15
:10116000009005E0FFF78EFD0099401A022850D844
:101170003068C005F6D55E4EA0686C3601280FD0E9
:101180000528306810D020F001003060306820F071
:1011900004003060A068B8B1FFF774FD00900FE064
:1011A000306840F00100F4E740F004003060F7E7F9
:1011B000FFF768FD0099411A41F28830814266D8F4
:1011C00030688007F4D50EE0FFF75CFD009007E083
:1011D000FFF758FD0099411A41F28830814256D8F4
:1011E00030688007F4D42FB1DBF8001021F0805173
:1011F000CBF80010A069C8B33D49091D0968C1F3C7
:10120000810102294AD00228504607D0C8F8600060
:1012100000E03CE0FFF736FD04463BE04746C8F8F7
:101220006000FFF72FFD064605E000BFFFF72AFD2F
:10123000801B02282BD828688001F7D4D4E9070145
:101240000843A16A2E4A490802EB0141626A41EA59
:101250008211084394F82C1040EA0161C9F800108B
:1012600001203866FFF70EFD044606E03EE000BFB1
:10127000FFF708FD001B022809D828688001F7D570
:1012800034E000BFFFF7FEFC001B022802D9032058
:10129000BDE8F88F28688001F4D427E00128F7D052
:1012A000D9F80000E26900F4800191421CD1226A61
:1012B00000F03F01914217D147F6C071626A0140C8
:1012C000B1EB821F10D1A26A4FF0FF3300F440311E
:1012D00003EB5202B1EB024F06D194F82C1000F050
:1012E0007060B0EB016F01D00120D1E70020CFE7A3
:1012F0000438024000004742800E47420070004020
:101300000000FFFF10B5401EB0F1807F01D3012027
:1013100010BD4FF0E02460610F21601700F0FFFE68
:101320000020A06107202061002010BD704710B58B
:1013300004460068406994F83D10C0F3C0102129AC
:1013400011D180B12068143050E8001F21F08001D5
:1013500040E80012002AF5D1606B08B1FFF7B6F93A
:10136000204600F07DFD2068406994F83E10C0F3EF
:101370008010222911D180B12068143050E8001F5C
:1013800021F0400140E80012002AF5D1A06B08B11D
:10139000FFF79CF9204600F03CFD002010BD70478F
:1013A000F8B5016804460868CA684B6910F00F0F69
:1013B0004FF0000559D003F0010602F4907737434F
:1013C00065D0C10705D0D10503D5216C41F00101DD
:1013D0002164410705D5D90703D0216C41F00201F2
:1013E0002164810705D5D90703D0216C41F00401A0
:1013F0002164010707D502F02001314303D0216C9D
:1014000041F008012164216C00293AD0800604D5FE
:10141000900602D5204600F031FD20684069216C1D
:10142000C0F38010090700D460B3204600F0F1FC3F
:1014300020684069400621D52068143050E8001F1C
:1014400021F0400140E80012002AF5D1A06BA8B1BC
:101450006C490165A06BFFF782F9002811D0A06BE1
:10146000016D01B0BDE8F040084783060FD5930633
:101470000DD52046BDE8F84000F000BD2046FFF73E
:101480008EFFF8BD2046FFF78AFF2564F8BD266B66
:101490002023012E79D1C60677D5D60675D50868E2
:1014A000486800904869400640D5A16B08684068CC
:1014B0000004000CEAD0A28D8242E7D9E085C86919
:1014C000B0F5807F2DD020680C3050E8001F21F44B
:1014D000807140E80012002AF5D12068143050E8ED
:1014E000001F21F0010140E80012002AF5D1206818
:1014F000143050E8001F21F0400140E80012002A9B
:10150000F5D184F83E30256320680C3050E8001F88
:1015100021F0100140E80012002AF5D1A06BFFF77E
:10152000D5F8A08DE18D401A81B229E0A08DE18D22
:10153000401A81B2E08D0028A8D00029A6D02068EA
:101540000C3050E8002F22F4907240E80026002E64
:10155000F5D12068143050E8002F22F0010240E855
:101560000026002EF5D184F83E30256320680C302B
:1015700050E8002F22F0100240E80023002BF5D1A4
:101580002046FFF7D3FEF8BDFFE705062BD515066D
:1015900029D594F83D002128F5D1A068B0F5805FE9
:1015A00001D12069B0B1206A411C21622168007814
:1015B0004860E08C401E0004000CE084E3D1206809
:1015C000C16821F08001C1602068C16841F040011C
:1015D000C160D8E7206A0088C0F308004860206A2C
:1015E000801C2062E5E74006CDD55006CBD5CA6801
:1015F000204622F04002CA6084F83D3000F0F8F93D
:10160000C1E70000D11C000870B5040004D094F8B4
:101610003D00002510B106E0012070BD84F83C506B
:10162000204600F023F8242084F83D002068C1689B
:1016300021F40051C160204600F080FC206801695F
:1016400021F4904101612068416921F02A01416142
:101650002068C16841F40051C1602564202084F8ED
:101660003D0084F83E00002070BD00002DE9F04FE1
:1016700087B0054614216846FEF78FFEA348DFF8C1
:1016800088820221D5F800C00322072300248E0699
:1016900007154FF04009C44561D1DFF870C2A2467A
:1016A0000CF1140CDCF8008048F01008CCF8008035
:1016B000DCF800C00CF0100CCDF814C0D0F800C05D
:1016C0004CF0010CC0F800C0006800F0010005906B
:1016D00050028DE8130069468D48CDE90323FFF7DA
:1016E000D3F9DFF834828B494046C8F80010C0E9CE
:1016F0000164C0E90347C8F81440C8F81840C8F8A6
:101700001C40C8F82040C8F82440FFF70BF908B186
:10171000FEF7DAFF804C7F48C5F8388060347830B7
:10172000C8F8385084E84102C4E903A7C4F814A0FB
:10173000C4F818A0C4F81CA0C4F820A02046C4F81F
:1017400024A0FFF7EFF808B1FEF7BEFF6C6300229C
:1017500011462520A563FFF703FB252065E0DFF890
:10176000BC81DFF8A8B1C4450BF1100B62D1DBF8E6
:101770000080A24648F40038CBF80080DBF800C0B7
:101780000CF4003CCDF814C0D0F800C04CF0080CAC
:10179000C0F800C0006800F00800059060208DE8E7
:1017A000130069465E48CDE90323FFF76DF9DFF8C2
:1017B00068815C4908F1C0084046C8F80010C0E9DB
:1017C0000164C0E90347C8F81440C8F81840C8F8D5
:1017D0001C40C8F82040C8F82440FFF7A3F808B11F
:1017E000FEF772FF4F48504CC5F838801830C8F8E3
:1017F000385084E84102C4E903A7C4F814A0C4F82F
:1018000018A0C4F81CA0C4F820A02046C4F824A046
:10181000FFF788F808B1FEF757FF6C630022114606
:101820002620A563FFF79CFA2620FFF78BFA07B066
:10183000BDE8F08FDFF8F480C445F8D1DBF8008014
:1018400048F48028CBF80080DBF800C00CF4802C32
:10185000CDF814C0D0F800C04CF0020CC0F800C0A5
:10186000006800F0020005904FF440608DE813001E
:1018700069462F48CDE90323FFF706F9DFF8A88072
:10188000284908F1600860394046C8F80010C0E9EE
:101890000164C0E90347C8F81440C8F81840C8F804
:1018A0001C40C8F82040C8F82440FFF73BF808B1B6
:1018B000FEF70AFFC5F83880C8F83850DFF86880AE
:1018C000184908F1C00840463039C0E90347C8F854
:1018D0001440C8F81840C8F81C40C8F8204088E8F0
:1018E0004202C8F82440FFF71DF808B1FEF7ECFEED
:1018F000C5F83480002211462720C8F83850FFF779
:101900002FFA272091E700000010014030380240F4
:101910000000024040640240E80000200044004013
:10192000000C02408860024008020020004800408D
:101930000004024090F83E30202B0ED159B152B134
:1019400090F83C30012B08D0012380F83C30002374
:10195000036300F079BB0120704702207047704795
:101960007047000070B5044690F83D00202836D13D
:1019700091B38AB394F83C00012830D0012084F858
:101980003C002162A284E28400252564212084F8A1
:101990003D00636B1348D863636B13481864636B33
:1019A0001248D864606B134605652668606B321D6B
:1019B000FFF722F821686FF04000086084F83C507F
:1019C0002068143050E8001F41F0800140E8001208
:1019D000002AF5D1002070BDFFE70120FBE70220BF
:1019E000F9E70000C71D0008091E0008E11C0008F7
:1019F00070477047FEE70000214808B5016841F4D0
:101A000080010160016801F480010091016841F4E6
:101A1000001101600068002200F4001000901146DF
:101A20000C20FFF79DF90C20FFF78CF900221146DE
:101A30000E20FFF795F90E20FFF784F900221146DA
:101A40001020FFF78DF91020FFF77CF900221146D6
:101A50001120FFF785F91120FFF774F900221146D4
:101A60003A20FFF77DF93A20FFF76CF90022114682
:101A70004620FFF775F9BDE808404620FFF762B938
:101A80003038024000B587B014216846FEF785FC67
:101A90002A48016841F010010160016801F010015D
:101AA0000591016841F080010160016801F0800149
:101AB0000591016841F002010160016801F0020135
:101AC0000591016841F001010160016801F0010127
:101AD0000591016841F0080101600068694600F065
:101AE000080005903C2000904FF404100190012064
:101AF00002901348FEF7C8FF002211460820FFF7A6
:101B00002FF90820FFF71EF9002211460920FFF7E0
:101B100027F90920FFF716F9002211460A20FFF7DE
:101B20001FF90A20FFF70EF9002211461720FFF7D0
:101B300017F91720FFF706F907B000BD303802404B
:101B4000001002400C4810B50A4901604FF4E13121
:101B50004160002181600C22C160C0E904128161F2
:101B6000C161FFF751FD002803D0BDE81040FEF72A
:101B7000ABBD10BD001001401C0000200C4810B58A
:101B80000A4901604FF4E1314160002181600C227B
:101B9000C160C0E904128161C161FFF735FD002811
:101BA00003D0BDE81040FEF78FBD10BD00440040DB
:101BB000600000200C4810B50A4901604FF4E13183
:101BC0004160002181600C22C160C0E90412816182
:101BD000C161FFF719FD002803D0BDE81040FEF7F2
:101BE00073BD10BD00480040A4000020FEE7FEE7E2
:101BF0007047000010B50848FFF799FB07480068D8
:101C00004068FF210648FEF7A6FBBDE81040FF2212
:101C100003490148FFF78EBE1C000020E8000020A9
:101C2000580300207047FFF733B8000030B593B079
:101C300030216846FEF7B1FB14210CA8FEF7ADFB7E
:101C40001D480025016841F080510160006800F0E6
:101C5000805011901948016841F48041016000688A
:101C6000022400F4804011900120009000040190B3
:101C70008001CDE9064008AA0420A82182E81300CB
:101C80000B906846FFF788F908B172B6FEE70CA919
:101C90000F2081E831004FF4A0500F904FF4805096
:101CA000109005210CA8FFF78DF8002801D072B61E
:101CB000FEE713B030BD0000403802400070004025
:101CC0000248016841F470010160704788ED00E04E
:101CD00010B5806B0021C185C184FFF760FB10BD8A
:101CE00070B5846B2068406994F83D10C0F3C01053
:101CF0000025212904D118B1E584204600F0B0F870
:101D00002068406994F83E10C0F38010222904D165
:101D100018B1E585204600F07CF8206C40F01000FA
:101D200020642046FFF73BFB70BD10B50146806B79
:101D300009680968C9052FD40021C18501680C31E3
:101D400051E8002F22F4807241E80023002BF5D1E6
:101D50000168143151E8002F22F0010241E800230C
:101D6000002BF5D10168143151E8002F22F0400218
:101D700041E80023002BF5D1202180F83E10016BB3
:101D8000012909D101680C3151E8002F22F010021D
:101D900041E80023002BF5D1016B012902D0FFF7A8
:101DA000DEFD10BD818DFFF7C1FA10BD10B5806B4F
:101DB000016B012902D0FFF7D3FD10BD818D4908C9
:101DC000FFF7B4FA10BD10B50146806B09680968C9
:101DD000C90516D40021C1840168143151E8002FCF
:101DE00022F0800241E80023002BF5D101680C317C
:101DF00051E8002F42F0400241E80023002BF5D1CA
:101E000010BDFFF7F5FD10BD10B5806BFFF7F1FDBC
:101E100010BD01680C3151E8002F22F4907241E8A6
:101E20000023002BF5D10168143151E8002F22F076
:101E3000010241E80023002BF5D1016B012909D1F2
:101E400001680C3151E8002F22F0100241E8002314
:101E5000002BF5D1202180F83E100021016370474E
:101E600001680C3151E8002F22F0C00241E8002344
:101E7000002BF5D1202180F83D10704708B590F86F
:101E80003E10222901D0022008BD82684FF4805301
:101E90009A4201D1016921B1816A9A421BD04AB1AB
:101EA0000AE00268816A5268C2F308020A80816A05
:101EB000891C08E0026972B10268526802F07F0270
:101EC0000A70816A491C8162C18D491E0904090C8E
:101ED000C18503D019E002685268F1E70168CA6859
:101EE00022F02002CA600168CA6822F48072CA60C7
:101EF00001684A6922F001024A61202180F83E10FF
:101F0000016B012903D0FFF72AFD002008BD002145
:101F1000016301680C3151E8002F22F0100241E802
:101F20000023002BF5D101680A68D20602D50A68A1
:101F300049680091818DFFF7F9F9E6E770B504462D
:101F400000680169E26821F440511143016121698F
:101F5000A068E26908436169114308432168CA68BF
:101F600049F20C639A430243CA6020684169A2693E
:101F700021F440711143416131492068884202D007
:101F80003049884202D1FEF7C7FF01E0FEF7B4FFF7
:101F9000E2690023192164253226B2F5004F6268F8
:101FA00028D0A0FB0101930F9200FEF75DF90146D6
:101FB000B0FBF5F06FF01802504301EB800006EB28
:101FC0000010B0FBF5F000F0F002B1FBF5F002EB11
:101FD0000012B1FBF5F06FF01803584301EB8000DD
:101FE00006EB0010B0FBF5F000F00F002168104484
:101FF000886070BDA0FB010192185B41FEF734F9C7
:102000000146B0FBF5F00201B1FBF5F06FF01803EB
:10201000584301EB800006EBC000B0FBF5F000F088
:10202000F80002EB4002B1FBF5F0584301EB8000F1
:1020300006EBC000B0FBF5F000F00700D6E70000AB
:10204000001001400014014038B5816282850025EE
:10205000134604460564222084F83E00A26B1C4807
:10206000D063A26B1B481064A26B1B48D064A06BAA
:102070000A4605652168A06B091DFEF7BDFC2068B6
:1020800001684068009084F83C50206948B120689D
:102090000C3050E8001F41F4807140E80012002A23
:1020A000F5D12068143050E8001F41F0010140E8EC
:1020B0000012002AF5D12068143050E8001F41F0CA
:1020C000400140E80012002AF5D1002038BD000090
:1020D0002B1D0008AD1D0008E11C0008084808B5CC
:1020E00000680168C943C90604D4016840680090CB
:1020F000FFF780FDBDE808400148FFF751B9000037
:102100001C0000200148FFF74BB9000060000020D0
:102110000148FFF745B90000A4000020FEE70907C9
:10212000090E002804DB00F1E02080F8001470475D
:1021300000F00F0000F1E02080F8141D70474FF40C
:102140007A714843AFF3008070B54FF0E02400226D
:1021500065690949A36909684843A1699942FCD0A6
:1021600002D2A3EB010302E0A5EB010633441A44BB
:102170000B468242F1D370BD180000202DE9F041DA
:1021800000252B4E2B4C012708B1377001E0307829
:1021900098B104212046FEF76FFDA8B10821204622
:1021A000FEF76AFD80B110212046FEF765FD58B1AB
:1021B00020212046FEF760FD30B104212046FEF7C5
:1021C0005BFD01281ED030E00A20FFF7B8FF002099
:1021D000307004212046FEF74FFD00B9012508218B
:1021E0002046FEF749FD00B9022510212046FEF7E2
:1021F00043FD00B9032520212046FEF73DFDA0B98F
:10220000042512E008212046FEF736FD01280CD1F6
:1022100010212046FEF730FD012806D1202120465E
:10222000FEF72AFD012800D137702846BDE8F0816D
:1022300014000020001002401CB5FEF731FDFFF72E
:10224000F5FCFFF71FFCFFF7D7FBFFF77BFCFFF761
:1022500095FCFFF7AFFCFEF705F9FEF7B9F94FF46F
:10226000FA60FEF700FC194C194D0020FFF786FFBD
:102270002070022816D00328F7D19FED160A85EDAD
:10228000060A697F287FCDE900012B7D6A8A01213A
:102290001148FEF7C5F90A20FEF7E5FB6078401EFD
:1022A0006070E2E79FED0D0A85ED060A697F287FE1
:1022B000CDE900012B7D6A8A01210748FEF7B0F9BC
:1022C0000A20FEF7D0FB6078401CE9E70000002000
:1022D00028030020000096C3600000200000964301
:1022E0004FF04070E1EE100A70470006101600062D
:1022F00010160000000000000000010203040607A1
:102300000809000000000102030400002C2300085B
:10231000000000201C000000C40100084823000841
:102320001C0000209C0C0000E001000800000000E0
:102330000100000010000000000000000024F40074
:08234000010000000000000094
:040000050800018965
:00000001FF
