:020000040800F2
:10000000A80B0020290200082B3100082D29000828
:10001000293100083B0400084539000800000000B1
:100020000000000000000000000000002F31000868
:10003000B5060008000000002D310008CD31000891
:10004000430200084302000843020008430200087C
:10005000430200084302000843020008430200086C
:10006000B7060008BD060008C3060008E105000841
:10007000430200084302000843020008430200084C
:10008000430200084302000843020008430200083C
:10009000430200084302000843020008C9060008A2
:1000A00043020008430200084302000875320008BA
:1000B000430200084302000843020008430200080C
:1000C00043020008430200084302000843020008FC
:1000D00043020008393900084302000843020008BF
:1000E00043020008430200084302000843020008DC
:1000F000430200084302000843020008ED0500081F
:1001000043020008430200084302000843020008BB
:100110004302000865350008430200084302000856
:100120004302000843020008F905000843020008E2
:10013000430200084302000843020008430200088B
:10014000430200084302000843020008430200087B
:1001500043020008430200080506000843020008A5
:10016000430200084302000843020008430200085B
:100170004302000843020008430200080000000098
:10018000430200084302000800F002F800F03CF8C7
:100190000AA090E8000C82448344AAF10107DA45E2
:1001A00001D100F031F8AFF2090EBAE80F0013F0F8
:1001B000010F18BFFB1A43F001031847B8400000B5
:1001C000D8400000103A24BF78C878C1FAD8520746
:1001D00024BF30C830C144BF04680C6070470000C1
:1001E0000023002400250026103A28BF78C1FBD840
:1001F000520728BF30C148BF0B6070471FB504F0DD
:1002000024F81FBD10B510BD00F0E2F81146FFF74D
:10021000F5FF03F0F1FB00F000F903B4FFF7F2FF84
:1002200003BC00F003F90000094880470948004773
:10023000FEE7FEE7FEE7FEE7FEE7FEE7FEE7FEE796
:10024000FEE7FEE704480549054A064B70470000F3
:100250006532000889010008A8050020A80B0020CD
:10026000A8070020A807002053EA020C00F06980CC
:100270002DE9F04B4FF00006002B1FBFB3FA83F5BA
:1002800003FA05F424FA05F65E4012BF1643B2FAEB
:1002900082F502FA05F4C5F120051EBF22FA05FC1D
:1002A00044EA0C04203556EA044C4FEA144418BFC3
:1002B000641C4FF000084FF00009904271EB030CF2
:1002C00039D3002919BFB1FA81F701FA07F6B0FA5C
:1002D00080F700FA07F6C7F120071EBF20FA07FCD7
:1002E00046EA0C062037B6FBF4FCA7EB0507103FE7
:1002F00007F01F0BCBF120060CFA0BFB2CFA06F6CD
:1003000044BFB3460026202FA4BF5E464FF0000B2B
:100310005BEA060C08BF4FF0010B19EB0B09ABFBB6
:10032000027C48EB0608C01B06FB02CC0BFB03CC8F
:1003300071EB0C01C1E70B46024641464846BDE859
:10034000F08B13B54FF000004FF00001AFF30080C9
:10035000BDE81C4070474FF0000200B513469446BC
:100360009646203922BFA0E80C50A0E80C50B1F10D
:100370002001BFF4F7AF090728BFA0E80C5048BF21
:100380000CC05DF804EB890028BF40F8042B08BFBF
:10039000704748BF20F8022B11F0804F18BF00F8BB
:1003A000012B704770477047704710B500F008F890
:1003B000006810BD10B5044600F002F8046010BDDE
:1003C0000048704748050020004870474805002055
:1003D0007546FFF7F9FFAE4605006946534620F023
:1003E0000700854618B020B5FFF72CFFBDE8204078
:1003F0004FF000064FF000074FF000084FF0000BE1
:1004000021F00701AC46ACE8C009ACE8C009ACE893
:10041000C009ACE8C0098D46704710B50446AFF37B
:1004200000802046BDE81040FFF7F7BE01491820C4
:10043000ABBEFEE7260002007047FEE7FFB583B0C3
:100440005A48039A00260125594C4FF48061002A2E
:1004500007DA6570012200F0FFFC03984042039028
:1004600004E06670002200F0F7FC03984FF0FF37BD
:1004700001284BD000287CD09DED060AB8EE400A3A
:10048000DFED4C0A80EE801ABDEEC10A10EE100AB4
:1004900020619DED040AF8EE400A9FED471A81EEB7
:1004A000200A10EE100A03F05FFE41EC100B03F07F
:1004B0005AFA9FED421B51EC100B53EC112B03F039
:1004C00089FC9FED401B53EC112B03F0FBFA03F06A
:1004D00051FC60609DED040ADFED3C0AB2EE041AA7
:1004E000B8EE400A0698404320EE200AC0EE010A0A
:1004F00000EE100AB8EE400A80EE201ABCEEC10AE7
:1005000010EE100A8DED000A38B107E06761022095
:1005100020704FF47A7060602BE000950599039885
:100520004843DDE904121144B0FBF1F0019000B939
:100530000195DDE90010884202D80399401A05E0D0
:10054000084604994843B0FBF2F04042E060E0689E
:1005500000B9E760E06803990844A0606068216919
:10056000884204DC206960600320207000E0257070
:1005700066611748857017480068416AADF8001039
:100580006168BDF800201144C1630821114801F0E1
:1005900053FD01220821104802F0DEFE07B00122BF
:1005A000BDE8F04011030D4800F056BC000C0240BD
:1005B00030050020A13225477059C443000000E0F7
:1005C000FFC501410000000000002440CF0FC93EDC
:1005D00010000020F8000020000001400010024040
:1005E000014800F095B9000080030020014800F0A8
:1005F0008FB90000E0030020014800F089B9000035
:1006000040040020014800F083B90000A00400204D
:1006100001681823CAB2103AB2FBF3F2054B6FF32C
:100620000901032A9B5CC36500D9091D8165084641
:10063000704700005442000810B5014600208B6945
:100640008A6A4FF0C07453B1B3F5005F15D072B130
:10065000012A0CD0022A0AD0032A09D104E01AB1D7
:10066000012A06D0022A03D1C96AC90100D5012096
:1006700010BDC96AA142FAD010BD002AF7D0012AE4
:10068000F2D0022AF3D0032AF3D010BD30B50468AB
:10069000256825F480252560046863608368402B05
:1006A000036803D099600068C26030BD9A6000683A
:1006B000C16030BD7047042000F0CABA082000F0C5
:1006C000C7BA102000F0C4BA202000F0C1BA72B638
:1006D000FEE770B5040003D094F8200010B104E0E8
:1006E000012070BD204600F081F82068016841F0CB
:1006F0000101016000F0B6FB0546052604E000F0AC
:10070000B1FB401B0A2811D820684068C007F6D00A
:100710002068016821F00201016000F0A3FB05469A
:100720000BE000F09FFB401B0A2806D9606A40F4EA
:100730000030606284F82060D2E72068406880075B
:10074000EFD4207E0128206801683DD021F080018F
:100750000160607E01282068016838D021F04001E6
:100760000160A07E01282068016833D021F02001BB
:100770000160E07E0128206801682ED041F0100160
:100780000160207F01282068016829D021F008013C
:100790000160607F01282068016824D021F00401F5
:1007A0000160D4E902010843D4E90412114308436B
:1007B0006168491E08432168C86100206062012009
:1007C00084F82000002070BD41F08001C0E741F0B6
:1007D0004001C5E741F02001CAE721F01001CFE751
:1007E00041F00801D4E741F00401D9E710B586B023
:1007F000044614216846FFF7AEFD1449206888427C
:1008000021D113480021026842F0007202600068A2
:1008100000F0007005900E481038026842F00102A6
:100820000260006800F0010005904FF4C050009095
:100830000220CDE9010103200390092004906946BC
:10084000044800F011FA06B010BD0000006400403A
:1008500040380240000002402DE9F0410446876D17
:1008600000F000FB064694F835000025022806D06B
:100870008020606584F834500120BDE8F081206854
:10088000016821F0160101602068416921F08001B2
:100890004161206C08B9A06C20B12068016821F08A
:1008A000080101602068016821F0010101600CE08D
:1008B00000F0D8FA801B052807D9202060650320A6
:1008C00084F8350084F83450D7E720680068C00702
:1008D000EED194F85C103F208840B860012084F885
:1008E000350084F834500020C7E790F8351002290D
:1008F00003D08021416501207047052180F8351023
:100900000068016821F001010160002070470000CB
:100910002DE9F84304464FF00009CDF800906348F4
:100920004FF41651A56D0068B0FBF1F72E6894F8EE
:100930005C10082000FA01F131420FD021680A68EA
:1009400052070BD50A6822F004020A6094F85C1082
:100950008840A860606D40F00100606594F85C100C
:100960004FF0010808FA01F0304208D021684969C7
:10097000090604D5A860606D40F00200606594F837
:100980005C1004208840304208D02168096889073B
:1009900004D5A860606D40F00400606594F85C10B8
:1009A00010208840304218D021680968090714D502
:1009B000A86020680168490304D50068000308D5D1
:1009C000A16C07E00168C90503D4016821F00801A2
:1009D0000160216C09B12046884794F85C10202002
:1009E0008840304231D021680968C9062DD5A860F9
:1009F00094F8350005282068016806D0490347D5DA
:100A0000006800031DD4616C1CE021F01601016038
:100A10002068416921F080014161206C08B9A06C17
:100A200020B12068016821F00801016094F85C1091
:100A30003F208840A86084F8358084F83490216D88
:100A40001FE0E16B09B120468847606D00282BD07C
:100A5000606DC00714D0052084F835002068016857
:100A600021F0010101600098401C0090B84203D8B9
:100A700020680068C007F6D184F8358084F8349087
:100A8000E16C002910D001B02046BDE8F0430847D2
:100A90000168C905D5D4016821F01001016084F80E
:100AA000358084F83490CCE7BDE8F8830C00002052
:100AB0002DE9F041044600F0D5F906465CB102206C
:100AC00084F83500002584F834502068016821F04E
:100AD000010101600DE00120BDE8F08100F0C2F9E4
:100AE000801B052805D920206065032084F8350087
:100AF000F2E720680068C007F0D12268116820483A
:100B00000140D4E901031843D4E9033633431843C1
:100B100063691843A3691843E3691843236A1843B8
:100B20000843616A042903D1D4E90B13194308432C
:100B3000106020684069666A20F0070130460E4365
:100B4000012704280CD1A06A0643E06A40B1204680
:100B5000FFF772FD20B14020606584F83570BAE778
:100B6000206846612046FFF753FD94F85C203F2142
:100B700091408160656584F835700020ACE7000025
:100B80003F8010F02DE9F0410446866D90F8340066
:100B9000002501280DD0012084F8340094F8357028
:100BA0000020012F07D084F8340002252846BDE834
:100BB000F0810220FBE7022784F83570606520464B
:100BC000FFF764FD94F85C103F208840B060206817
:100BD000016841F016010160206C20B120680168B5
:100BE00041F0080101602068016841F001010160E5
:100BF000DCE7000030B40124134D04280FD008288E
:100C000011D04FF4C871102816D0202809D10B46F6
:100C10000E4885F831401A4630BC01F0A3BE85F875
:100C20002E4030BC704785F82F40C822142330BCBA
:100C30001146D000FFF702BC0B4685F830401A463B
:100C40004FF4FA40E8E70000400000200083FFFF77
:100C5000044910B50A68024202D00860FFF7CAFFD3
:100C600010BD0000143C01402DE9F84FDFF8BCA195
:100C70000022012503264FF00F090AF1040BAAF107
:100C8000040E00BF0B6805FA02F42340A34270D1A2
:100C90000F7907F00307012F01D0022F16D18768C3
:100CA0004FEA420806FA08FC27EA0C07D1F80CC004
:100CB0000CFA08FC4CEA070CC0F808C04768A743C8
:100CC0000C79C4F3001494403C4344600C79E44331
:100CD000A4070AD0C4684FEA420C06FA0CF7BC43DA
:100CE0008F6807FA0CF72743C7600C7904F00304F8
:100CF000022C12D1D40800EB840CDCF820405707FA
:100D0000FF0E09FA07F824EA0804D1F8108008FA5F
:100D100007F848EA0408CCF8208004684FEA420C3F
:100D200006FA0CF7BC430F7907F0030707FA0CF734
:100D3000274307604C6814F4403F70D03C4C276850
:100D400047F480472760246822F0030704F48044B6
:100D50000094384C07EB040CDCF8084897074FEA7E
:100D6000177809FA08F7BC43334FB84202D100277D
:100D700024E054E0314FB84201D101271EE0304F4A
:100D8000B84201D1022719E02E4FB84201D1032702
:100D900014E02D4FB84201D104270FE02B4FB84289
:100DA00001D105270AE02A4FB84201D1062705E004
:100DB000284FB84201D1072700E0082707FA08F7B3
:100DC0002743CCF80878DAF800405746D1F804C039
:100DD0009C435FEACC2C00D51C433C60DBF8004010
:100DE0005F46D1F804C09C435FEA8C2C00D51C43BD
:100DF0003C60DEF800407746D1F804C09C435FEACF
:100E00008C3C00D51C433C60084F083F3C68D1F83F
:100E100004C09C435FEACC3C00D51C433C60521CA0
:100E2000102AFFF42FAFBDE8F88F0000083C014006
:100E300044380240003001400000024000040240FB
:100E400000080240000C0240001002400014024062
:100E500000180240001C02400AB181617047090479
:100E6000FBE7000001488068704700000000002098
:100E700002488168027811448160704700000020B8
:100E80000B4810B5016841F400710160016841F43C
:100E900080610160016841F480710160032000F00D
:100EA0006FF80F2000F006F800F024F8002010BDC5
:100EB000003C024070B50D4D04464FF47A7128781D
:100EC000B1FBF0F00A490968B1FBF0F000F0A0FBBB
:100ED00048B9102C07D200222146501E00F030F8ED
:100EE00000206C6070BD012070BD0000000000207B
:100EF0000C0000200A4808B5016841F480410160F7
:100F0000006800F4804000900548001F016841F02F
:100F100080510160006800F08050009008BD000022
:100F200044380240002809DB00F01F0201219140F3
:100F30004009800000F1E020C0F800117047000077
:100F4000F0B40E4B1B680C46C3F30223C3F1070534
:100F5000042D00D90425191D072901D2002300E022
:100F6000DB1E012606FA05F1491E214099409E40EC
:100F7000761E16403143F0BC02F0E5BC0CED00E0FB
:100F8000064900F0070208684FF6FF03184040EAE0
:100F90000220034A10430860704700000CED00E097
:100FA0000000FA052DE9F0470E46050065D0DFF890
:100FB0001481D8F80000F7B200F00700B04207D261
:100FC00088F80070D8F8000000F00700B04254D153
:100FD00028683D4C810712D5400703D5206840F4AE
:100FE000E05020602878000703D5206840F4604076
:100FF00020602068A96820F0F0000843206028786D
:10100000C0072DD0304968680839012812D002285D
:1010100013D0032811D00968890700292DDA216827
:1010200021F0030101432160FFF71CFF814641F2DB
:10103000883A0EE009688903EFE709688901ECE75F
:10104000FFF710FFA0EB0901514502D90320BDE8CD
:10105000F0872068696800F00C00B0EB810FEFD1D9
:10106000D8F80010404601F00701B14207D90770D7
:10107000006800F00700B04201D00120E7E72878BF
:10108000400705D52068E96820F4E0500843206057
:101090002878000706D52068296920F4604040EAD6
:1010A000C100206000F038F82168084AC1F303113C
:1010B000515CC8400649086006480068FFF7FAFE20
:1010C0000020C4E7003C0240083802405C420008AF
:1010D0000C0000200400002004480549006809684D
:1010E000044AC1F38221515CC84070470C000020C3
:1010F000083802406C420008044805490068096845
:10110000044AC1F34231515CC84070470C000020D2
:10111000083802406C420008154810B5006810F00D
:101120000C02144813D01449042A0FD0082A0ED1F7
:101130000F4C241F2268236802F03F025B0207D590
:101140002068C0F38810A0FB010106E0084610BD2E
:101150002168C1F38811A1FB00010023FFF784F887
:101160002168C1F30141491C4900B0FBF1F010BDF9
:10117000083802400024F40040787D012DE9F84F42
:1011800004006ED02078DFF84C93C007A9F1040565
:101190004AD009F104000168C1F38101012908D096
:1011A0000068C0F3810002280AD1D9F8000040028B
:1011B00006D52868800337D560680028E1D033E081
:1011C0006068B0F5803F10D0B0F5A02F286810D02F
:1011D00020F480302860286820F48020286060682F
:1011E000A8B1FFF73FFE06460DE0286840F48030C6
:1011F000F4E740F480202860F7E700BFFFF732FEF5
:10120000801B642873D828688003F7D50CE0FFF7AB
:1012100029FE064605E000BFFFF724FE801B642878
:10122000F0D828688003F7D42078DFF8AC828007F4
:101230004FF0000A3ED5A748001D016811F00C0FC1
:1012400008D00068C0F3810002280BD1D9F8000053
:10125000400207D42868800716D5E068012800D12D
:1012600012E033E1E068B8B10120C8F80000FFF7F0
:10127000F9FD064605E000BFFFF7F4FD801B0228DC
:10128000C0D828688007F7D52868216920F0F800C1
:1012900040EAC10028600DE0C8F800A0FFF7E2FDB9
:1012A000064604E0FFF7DEFD801B02281FD82868F1
:1012B0008007F7D42078000722D5864F87486169D8
:1012C000703771B101210160FFF7CCFD064604E0E3
:1012D000FFF7C8FD801B022809D838688007F7D5BA
:1012E0000EE0C0F800A0FFF7BDFD064605E082E075
:1012F000FFF7B8FD801B02287DD838688007F7D437
:101300002078400768D5DFF8CCB100270BF13C0B03
:10131000DBF80000C0000BD4DBF8001041F0805176
:10132000CBF80010DBF80000012700F0805000909F
:101330006B4E3068C00510D4306840F48070306067
:10134000FFF790FD009005E0FFF78CFD0099401A33
:10135000022850D83068C005F6D55E4EA0686C36BD
:1013600001280FD00528306810D020F0010030602F
:10137000306820F004003060A068B8B1FFF772FD5B
:1013800000900FE0306840F00100F4E740F0040006
:101390003060F7E7FFF766FD0099411A41F28830A7
:1013A000814266D830688007F4D50EE0FFF75AFD19
:1013B000009007E0FFF756FD0099411A41F288308E
:1013C000814256D830688007F4D42FB1DBF8001082
:1013D00021F08051CBF80010A069C8B33D49091D28
:1013E0000968C1F3810102294AD00228504607D07A
:1013F000C8F8600000E03CE0FFF734FD04463BE045
:101400004746C8F86000FFF72DFD064605E000BF1F
:10141000FFF728FD801B02282BD828688001F7D40D
:10142000D4E907010843A16A2E4A490802EB0141A9
:10143000626A41EA8211084394F82C1040EA016183
:10144000C9F8001001203866FFF70CFD044606E0DD
:101450003EE000BFFFF706FD001B022809D8286800
:101460008001F7D534E000BFFFF7FCFC001B022829
:1014700002D90320BDE8F88F28688001F4D427E062
:101480000128F7D0D9F80000E26900F48001914208
:101490001CD1226A00F03F01914217D147F6C0717A
:1014A000626A0140B1EB821F10D1A26A4FF0FF3394
:1014B00000F4403103EB5202B1EB024F06D194F835
:1014C0002C1000F07060B0EB016F01D00120D1E76B
:1014D0000020CFE70438024000004742800E474218
:1014E000007000400000FFFF70B5040009D0606A82
:1014F000002540B125616561A56294F8510040B1B5
:101500000CE0012070BD6068B0F5827FF4D0E56129
:10151000F2E784F85050204600F044F8022084F8A6
:1015200051002068016821F040010160A0882189F4
:1015300000F4827001F404410843A18901F40061C0
:101540000843217C01F002010843217D01F00101E3
:101550000843218B01F400710843217F01F0380119
:10156000084394F8201001F080010843218D01F414
:101570000051084321680860A069042101EA104075
:1015800094F8241001F01001084321684860206895
:10159000C16921F40061C1616565012084F85100D1
:1015A000002070BD10B586B0044614216846FEF7D1
:1015B000D2FE14492068884221D1134800210268D4
:1015C00042F480420260006800F4804005900E48BA
:1015D0001038026842F002020260006800F0020067
:1015E00005904FF4204000900220CDE90101032036
:1015F00003900520049069460448FFF735FB06B0C8
:1016000010BD000000380040403802400004024095
:1016100010B5401EB0F1807F01D3012010BD4FF006
:10162000E02460610F21601702F08DF90020A061B5
:1016300007202061002010BD7047704710B590F85A
:101640003C20012A22D0012280F83C20CA688C6804
:1016500022F4407222434C6822F4806222430C68D8
:1016600022F4006222430C6922F4805222434C6926
:1016700022F400522243C969002322F480420A4323
:1016800001684A6480F83C30002010BD022010BD83
:1016900070B590F83C20012A32D0012480F83C40FB
:1016A000022280F83D2003685A689D6822F0700687
:1016B0000A6832435A60134B02689A4214D0B2F15E
:1016C000804F11D0104B9A420ED0104B9A420BD043
:1016D0000F4B9A4208D00F4B9A4205D00E4B9A42BC
:1016E00002D00E4B9A4204D1496825F08003194379
:1016F000916080F83D40002180F83C10084670BDA4
:10170000022070BD000001400004004000080040BD
:10171000000C00400004014000400140001800405F
:1017200010B5040003D094F83D0010B107E001208B
:1017300010BD002084F83C00204600F01FF8022075
:1017400084F83D00211D206801F09AFD012084F8F5
:10175000460084F83E0084F83F0084F8400084F896
:10176000410084F8420084F8430084F8440084F87F
:10177000450084F83D00002010BD000008B5016858
:101780001748814212D11748016841F001010160F8
:101790000068002200F00100009003211B20FFF7E9
:1017A000CFFBBDE808401B20FFF7BCBB0D48001F66
:1017B000B1F1804F0BD00C4A914207D1016841F042
:1017C00002010160006800F00200009008BD01689D
:1017D00041F001010160006800F00100F5E7000040
:1017E00000000140443802400004004070B5044647
:1017F00090F83C000025012817D0012684F83C60B1
:10180000022084F83D002068826822F0770222F4EA
:101810007F4282600868502838D00DDC20284FD0E5
:1018200005DC90B3102811D14AE0022070BD3028A9
:1018300046D040280AD13BE060282FD070280DD038
:10184000B0F5805F03D0B0F5005F12D0012584F8B9
:101850003D60002084F83C00284670BDCB68D1E98B
:101860000121206801F085FD2068816841F0770141
:1018700009E0CB68D1E90121206801F07AFD2068F8
:10188000816841F480418160E1E719E0CA684968F4
:10189000206801F043FE5021206806E0CA684968CC
:1018A000206801F04CFE6021206801F06CFDCEE75D
:1018B000CA684968206801F031FE40212068F4E7D9
:1018C000226801461046F0E770472DE9F0410446D2
:1018D0000068C66805694FF00007A90713D5B1076E
:1018E00011D5F91E016101202077206880698007E9
:1018F000204602D0FFF7E8FF04E000F013F920468D
:1019000000F0A8FC2777680716D5700714D5216862
:101910006FF004000861022020772068806910F4CD
:10192000407F204602D0FFF7CFFF04E000F0FAF836
:10193000204600F08FFC2777280715D5300713D5F0
:1019400021686FF008000861042020772068C069D2
:101950008007204602D0FFF7B7FF04E000F0E2F86E
:10196000204600F077FC2777E80616D5F00614D558
:1019700021686FF010000861082020772068C06996
:1019800010F4407F204602D0FFF79EFF04E000F0F5
:10199000C9F8204600F05EFC2777E80708D0F0077A
:1019A00006D021686FF001000861204600F0B8FC05
:1019B000280608D5300606D521686FF0800008613A
:1019C0002046FFF739FE680608D5700606D521685F
:1019D0006FF040000861204600F0A3FCA8060AD57D
:1019E000B00608D521686FF0200008612046BDE8E8
:1019F000F041FFF722BEBDE8F081000030B587B0AE
:101A0000044614216846FEF7A6FC2B4822680024F1
:101A10002A4902250123824211D1086840F01000B2
:101A200008600868029400F0100005904FF42850F8
:101A3000CDE90005CDE903536946214837E0214847
:101A4000B2F1804F24D0204B9A4232D10A6842F042
:101A500001020A600A6802F0010205920A6842F077
:101A600002020A60096801F002010591C02100919B
:101A7000CDE901546946CDE90345FFF7F5F80320A8
:101A80000090CDE9015469461048CDE903450EE0C8
:101A90000A6842F001020A60096801F0010105913B
:101AA0000F210091CDE90154CDE903436946FFF7C9
:101AB000DBF807B030BD00000000014030380240C4
:101AC00000100240000002400004004000040240F8
:101AD00070B5044690F83C00002501280FD0012085
:101AE00084F83C006AB1042A0FD0082A11D00C2ACD
:101AF00013D00125002084F83C00284670BD022048
:101B000070BD206801F048FCF4E7206801F074FC27
:101B1000F0E7206801F0A6FCECE7206801F0D6FCB5
:101B2000E8E700002DE9F84F4FF0000BADF800B0EA
:101B30005F46ADF800B05E46ADF800B00168F94808
:101B40005D46814271D1F8480068C1684FF00209D2
:101B5000C94389074FF0010468D4221FF24902618A
:101B60000868416AADF80010F0494A68BDF80030D5
:101B70001A444263EE48C278521CC270C278022AEC
:101B800054D15A4680F803B08A46097831B1012908
:101B90001BD0022970D003296AD153E093468046B6
:101BA0008261C26100221146DE4801F0D5FBDE49A8
:101BB0006FF002000968086100224FF48071DD486F
:101BC000FFF74AF95846414651E08169491C816155
:101BD0009AF801305146002BC36828D05B1EC360C1
:101BE0004B695B1C4B614B68C76907EB43034F694B
:101BF00004EB870793FBF7F34F68FB1A9FB24B6820
:101C0000D0F81CC00CEB4303D1F814C004EB8C0CCF
:101C100093FBFCF80CFB1833C3618B68D0F818C039
:101C2000634506D8C868486120E07AE152E05B1C51
:101C3000D5E70B69BB424BDBC7800B69C2619FB222
:101C4000032014E08169491C81619AF80120514602
:101C5000002AC2680DD0521EC2600A6997B28A6813
:101C600083699A4234D8CA684A61C788484608706E
:101C70002EE0521CF0E7FFE78169491C81619AF868
:101C800001305146002BC36843D05B1EC3604B69D3
:101C90005B1C4B614B68C76907EB43034F6904EB5F
:101CA000870793FBF7F34F68FB1A9FB24B68D0F896
:101CB0001CC00CEB4303D1F814C004EB8C0C93FB59
:101CC000FCF80CFB1833C3614869002800DB0A707C
:101CD000CAF80470DFF85082D8F80000C168C94320
:101CE000490715D46FF004020261D8F80000416A78
:101CF000ADF800108D4F18377968BDF800201144F9
:101D000081638B480179491C01710179022902D054
:101D10009AE05B1CBAE7594680F804B03A7832B1D1
:101D2000012A1BD0022A66D0032A16D14CE08B462A
:101D3000824601624162002204217A4801F00CFBD4
:101D4000D8F800106FF00400086100224FF48061A1
:101D50007848FFF781F88AF801B074E0026A521CF3
:101D600002627A78002A026923D0521E02617A69DF
:101D7000521C7A617A68436A03EB42027B6904EB86
:101D8000830392FBF3F27B689A1A96B27A68436AED
:101D900003EB42027B6904EB830392FBF3FC03FB3E
:101DA0001C224262BA68036A9A4204D8F8687861D1
:101DB0001CE0521CDAE73A69B24244DB06813A6918
:101DC000416296B2032012E0016A491C01627978EF
:101DD000002901690DD0491E016139698EB2B968C7
:101DE000026A91422FD8F9687961068948463870AD
:101DF00029E0491CF0E7026A521C02627A78002A44
:101E000002694AD0521E02617A69521C7A617A686C
:101E1000436A03EB42027B6904EB830392FBF3F218
:101E20007B689A1A96B27A68436A03EB42027B692E
:101E300004EB830392FBF3FC03FB1C2242627869F0
:101E4000002800DB39707E60D8F80010CA68D243E1
:101E5000120766D46FF00802C2460A61D8F8000083
:101E6000416AADF80010314F30377968BDF8002075
:101E70001144C1632E4E7079401C70717079022834
:101E80004FD1D84686F805B0387840B101281DD02A
:101E9000022875D0032818D15AE0521CB3E7C6F8BF
:101EA0002880C6F82C80002208211E4801F054FA30
:101EB000DAF800106FF00800086100224FF480513A
:101EC0001C48FEF7C9FF86F8028082E0B06A401C19
:101ED000B0627878002870692ED0401E70617869F1
:101EE000401C78617868F16A01EB4000796904EB85
:101EF000810190FBF1F07968081A85B27868F16A7F
:101F000001EB4000796904EB810190FBF1F201FBE8
:101F10001200F062B868B16A88420FD8F868786138
:101F200028E057E000000140F800002000050020F4
:101F30001000002000100240401CCFE73869A84282
:101F400047DB75813869C6F82C8085B2032012E022
:101F5000B06A401CB0627878002870690ED0401ECC
:101F60007061386985B2B868B16A884231D8F8685A
:101F700078617589484638702BE001E0401CEFE736
:101F8000B06A401CB06278780028706924D0401E86
:101F900070617869401C78617868F16A01EB4000F3
:101FA000796904EB810190FBF1F07968081A85B238
:101FB0007868F16A01EB4000796904EB810190FBDC
:101FC000F1F201FB1200F0627869002801DB87F86A
:101FD00000807D60BDE8F88F401CD9E710B5040093
:101FE00003D094F83D0010B107E0012010BD00209F
:101FF00084F83C00204600F01EF8022084F83D00E2
:10200000211D206801F03CF9012084F8460084F885
:102010003E0084F83F0084F8400084F8410084F8D2
:10202000420084F8430084F8440084F8450084F8B2
:102030003D00002010BD704730B500250446022247
:1020400049B1042912D008294CD094F84100012844
:1020500053D0012030BD94F83E000128F9D184F816
:102060003E202068C26842F0020209E094F83F0076
:102070000128EED184F83F202068C26842F00402B3
:10208000C2600122206801F067F921492068214AD5
:10209000884201D0904203D1436C43F4004343642F
:1020A0002068884213D0B0F1804F10D01A4988427E
:1020B0000DD01A4988420AD01949884207D0904267
:1020C00005D01849884202D01749884204D1816856
:1020D00001F00701062903D0016841F00101016008
:1020E000284630BD94F840000128B2D184F8402041
:1020F0002068C26842F00802C2E784F841200C2937
:1021000001D00125ECE72068C26842F01002B7E771
:1021100000000140000401400004004000080040AD
:10212000000C0040004001400018004070B504461B
:1021300090F83C0000260D4601280FD0012084F8BD
:102140003C006AB1042A1DD0082A2FD00C2A3FD0A7
:102150000126002084F83C00304670BD022070BD8E
:10216000206801F019F92068816941F00801816156
:102170002068816921F004018161206881692A69F0
:10218000114311E0206801F037F92068816941F4BA
:10219000006181612068816921F48061816120682A
:1021A00081692A6941EA02218161D2E7206801F050
:1021B00059F92068C16941F00801C1612068C1690D
:1021C00021F00401C1612068C1692A69114311E04D
:1021D000206801F07BF92068C16941F40061C161A8
:1021E0002068C16921F48061C1612068C1692A69E0
:1021F00041EA0221C161ACE710B5040003D094F8B4
:102200003D0010B107E0012010BD002084F83C0023
:10221000204600F01EF8022084F83D00211D2068B1
:1022200001F02EF8012084F8460084F83E0084F87E
:102230003F0084F8400084F8410084F8420084F8AC
:10224000430084F8440084F8450084F83D000020F1
:1022500010BD70477047000010B50446022249B116
:1022600004290ED0082913D094F84100012816D073
:10227000012010BD94F83E000128F9D184F83E20D9
:102280000FE094F83F000128F2D184F83F2008E0E5
:1022900094F840000128EBD184F8402001E084F854
:1022A00041200122206801F057F816492068164A9B
:1022B000884201D0904203D1436C43F4004343640D
:1022C0002068884213D0B0F1804F10D00F49884267
:1022D0000DD00F4988420AD00E49884207D090425B
:1022E00005D00D49884202D00C49884204D181684A
:1022F00001F00701062903D0016841F001010160E6
:10230000002010BD00000140000401400004004016
:1023100000080040000C0040004001400018004050
:102320007047704770477047F8B501680446086801
:10233000CA684B6910F00F0F4FF0000559D003F039
:10234000010602F49077374365D0C10705D0D10567
:1023500003D5616C41F001016164410705D5D907DE
:1023600003D0616C41F002016164810705D5D90792
:1023700003D0616C41F004016164010707D502F0EC
:102380002001314303D0616C41F008016164616C4C
:1023900000293AD0800604D5900602D5204601F0E7
:1023A0009BF920684069616CC0F38010090700D474
:1023B00060B3204601F05BF920684069400621D5F2
:1023C0002068143050E8001F21F0400140E800125E
:1023D000002AF5D1E06BA8B16E490165E06BFEF70C
:1023E00084FA002811D0E06B016D01B0BDE8F04027
:1023F000084783060FD593060DD52046BDE8F84063
:1024000001F06AB92046FFF78EFFF8BD2046FFF7BE
:102410008AFF6564F8BD266B2023012E7DD1C60698
:102420007BD5D60679D508684868009048694FF092
:102430000206400641D5E16B086840680004000CC4
:10244000E8D0A28D8242E5D9E085C869B0F5807FE9
:102450002DD020680C3050E8001F21F4807140E836
:102460000012002AF5D12068143050E8001F21F036
:10247000010140E80012002AF5D12068143050E82C
:10248000001F21F0400140E80012002AF5D184F835
:102490004230256320680C3050E8001F21F0100105
:1024A00040E80012002AF5D1E06BFEF7D5F966632B
:1024B000A08DE18D401A81B22AE0A08DE18D401AF5
:1024C00081B2E08D0028A5D00029A3D022680C326B
:1024D00052E8000F20F4907042E80007002FF5D179
:1024E0002068143050E8002F22F0010240E8002755
:1024F000002FF5D184F84230256320680C3050E875
:10250000002F22F0100240E80023002BF5D1666373
:102510002046FFF707FFF8BDFFE705062BD5150698
:1025200029D594F841002128F5D1A068B0F5805F45
:1025300001D12069B0B1206A411C21622168007874
:102540004860E08C401E0004000CE084E3D1206869
:10255000C16821F08001C1602068C16841F040017C
:10256000C160D8E7206A0088C0F308004860206A8C
:10257000801C2062E5E74006CDD55006CBD5CA6861
:10258000204622F04002CA6084F8413000F0CDF9C4
:10259000C1E700007135000870B5040004D094F85C
:1025A0004100002510B106E0012070BD84F84050C4
:1025B000204600F023F8242084F841002068C168F8
:1025C00021F40051C160204601F0E8F8206801695B
:1025D00021F4904101612068416921F02A014161A3
:1025E0002068C16841F40051C1606564202084F80E
:1025F000410084F842006563002070BD2DE9F04F72
:1026000087B0044614216846FDF7A5FEA448A34BF5
:10261000D4F800C0A2491038022603270822DFF8A8
:10262000849200254FF4406B9C4516D10B6843F40F
:1026300000230B60096801F400210591016841F055
:10264000040101600068CDF800B000F00400CDE99D
:102650000420694603974846FEE0934B9C4562D1AF
:102660000B6843F480130B60096801F48011059135
:10267000016841F004010160016801F00401059165
:10268000016841F008010160006802AB00F0080039
:1026900005904FF48050CDE90006904683E8A001F4
:1026A00069464846FEF7E0FA0420CDE9000602AB91
:1026B000694683E8A0017D48FEF7D6FA7D4E7C4846
:1026C0004FF000683060C6E901850715C6E9035779
:1026D0007561B561F561356230467562FEF7E8F9FE
:1026E00008B1FDF7F4FFE663B463724E70486036DC
:1026F000A830E6E802084020A1C66E4846F8145902
:102700006030B561F56135627562FEF7D1F908B1E7
:10271000FDF7DDFFA663002211463520B463FEF706
:102720000FFC35205BE0DFF89081DFF874A1072310
:102730000AF1040AC44557D1DAF8002042F0100229
:10274000CAF80020DAF8001001F0100105910168C4
:1027500041F0010101600068029500F00100059060
:102760004FF4C060CDE90006CDE9037369465348D4
:10277000FEF77AFA4F4E5248C0364FF0006730608D
:10278000C6E901754FF48068C6E903587561B56103
:10279000F561356230467562FEF78AF908B1FDF7DA
:1027A00096FFE663B4634648464E7830E6E8020793
:1027B0004020A6E82101434846F81459B561F56167
:1027C00035627562FEF774F908B1FDF780FFA66304
:1027D000002211462520B463FEF7B2FB2520FEF748
:1027E000A1FB07B0BDE8F08F374CA4451BD10A68A8
:1027F00042F400320A60096801F400310591016871
:1028000041F0080101600068029500F008000590A1
:102810006020CDE90006CDE903732448694600BF76
:10282000FEF722FADDE7294CA44518D10A6842F4E4
:1028300080220A60096801F480210591016841F055
:10284000020101600068CDF800B000F00200CDE99F
:1028500004301F4869460397CDE90165E0E71D494B
:102860008C45BED1DAF8003043F02003CAF80030BE
:10287000DAF8001001F020010591016841F004012F
:1028800001600068029500F004000590C020CDE9C9
:102890000006CDE9037269464846C1E7004C004096
:1028A000403802400008024000500040000C024046
:1028B0001060024080030020001001400000024030
:1028C00040640240A0040020004400400048004052
:1028D000000402400014014090F84230202B01D047
:1028E0000220704721B11AB10023036300F0DCBF5E
:1028F000012070477047704790F84130202B01D07D
:102900000220704779B172B101628284C2840021D1
:102910004164212180F841100068C16841F08001C4
:10292000C16000207047012070477047FEE700003B
:1029300010B5044690F8320000280FD194F82E000C
:1029400001280BD184F82C00032204F12B01044848
:10295000FFF7D2FF002004F82E0F207110BD0000F9
:1029600018020020FFB583B05A48039A00260125BB
:10297000594C4FF40061002A07DA65700122FEF716
:102980006BFA03984042039004E066700022FEF761
:1029900063FA03984FF0FF3701284BD000287CD012
:1029A0009DED060AB8EE400ADFED4C0A80EE801A73
:1029B000BDEEC10A10EE100A20619DED040AF8EE8A
:1029C000400A9FED471A81EE200A10EE100A01F02E
:1029D000CBFB41EC100B00F0C6FF9FED421B51EC0E
:1029E000100B53EC112B01F0F5F99FED401B53EC4C
:1029F000112B01F067F801F0BDF960609DED040A4C
:102A0000DFED3C0AB2EE041AB8EE400A06984043E5
:102A100020EE200AC0EE010A00EE100AB8EE400ACD
:102A200080EE201ABCEEC10A10EE100A8DED000AED
:102A300038B107E06761022020704FF47A7060605F
:102A40002BE00095059903984843DDE904121144F1
:102A5000B0FBF1F0019000B90195DDE9001088426A
:102A600002D80399401A05E0084604994843B0FB90
:102A7000F2F04042E060E06800B9E760E068039986
:102A80000844A06060682169884204DC20696060B5
:102A90000320207000E025706661174845701748D4
:102AA0000068416AADF800106168BDF8002011446B
:102AB000816304211148FFF7BFFA01220421104865
:102AC00000F04AFC07B00122BDE8F04091020D4839
:102AD000FEF7C2B9000C024018050020A1322547BC
:102AE0007059C443000000E0FFC501410000000030
:102AF00000002440CF0FC93E10000020F800002045
:102B000000000140001002400D4810B50B49016063
:102B10001021416000218160C16001614161017645
:102B200041768176C17601774177FDF7D2FD0028A5
:102B300003D0BDE81040FDF7CABD10BD00640040E1
:102B400078000020194808B5016841F400110160BF
:102B5000016801F400110091016841F480010160F5
:102B60000068002200F48000009011460B20FEF760
:102B7000E7F90B20FEF7D6F9002211462F20FEF7C9
:102B8000DFF92F20FEF7CEF9002211463A20FEF79A
:102B9000D7F93A20FEF7C6F9002211464620FEF783
:102BA000CFF9BDE808404620FEF7BCB930380240F6
:102BB0002DE9F04F87B014216846FDF7CCFB504853
:102BC0000024016841F010010160016801F010016A
:102BD0000591016841F080010160016801F0800108
:102BE0000591016841F004010160016801F00401F0
:102BF0000591016841F001010160016801F00101E6
:102C00000591016841F002010160016801F00201D3
:102C10000591016841F0080101600068DFF8E49067
:102C200000F00800059000220F214846FEF714F935
:102C3000DFF8D4A04FF4A856002231465046FEF7E4
:102C40000BF9DFF8C8B045F238070022394658467C
:102C5000FEF702F94FF4E058002241462C48FEF7F7
:102C6000FBF83C2000904FF488100125CDE90105C8
:102C700069465046FDF7F8FF0F200090CDE901545A
:102C8000694648460394FDF7EFFF0096CDE90154ED
:102C9000694650460394FDF7E7FF0097CDE90154DC
:102CA000694658460394FDF7DFFFCDE90085CDE97D
:102CB000025469461648FDF7D7FF00221146082046
:102CC000FEF73EF90820FEF72DF9002211460920F3
:102CD000FEF736F90920FEF725F9002211460A20F1
:102CE000FEF72EF90A20FEF71DF9002211461720E3
:102CF000FEF726F91720FEF715F907B0BDE8F08FAB
:102D00003038024000080240001002400004024037
:102D1000000C02400F4810B50D4901604FF482715C
:102D2000416000218160C1604FF400720161C0E91F
:102D30000512C1610162416281620A21C162FEF72E
:102D4000D3FB002803D0BDE81040FDF7C0BC10BD88
:102D500000380040A000002030B595B000240F944A
:102D600010941194129413941C2168461494FDF746
:102D7000F2FA202107A8FDF7EEFA30482E494FF667
:102D8000FF7502C0262132C040F8104944618461B9
:102D90002A48FEF7C5FC08B1FDF799FC4FF48050B6
:102DA0000F900FA92548FEF721FD08B1FDF78FFC14
:102DB0002248FFF713F908B1FDF789FC139413A912
:102DC0001E481494FEF764FC08B1FDF780FC302027
:102DD0000090CDE9015403940494059400226946BF
:102DE00016480694FEF774FE08B1FDF770FC042245
:102DF00069461248FEF76CFE08B1FDF768FC082230
:102E000069460E48FEF764FE08B1FDF760FC0794C2
:102E1000089409944FF400500A94CDE90B4007A997
:102E200006480E94FEF70AFC08B1FDF750FC034873
:102E3000FEF7E4FD15B030BD00000140F8000020B1
:102E400010B58EB000240794089409940A940B944A
:102E50001C2168460C94FDF77EFA2B484FF0804108
:102E600001605321C0E9011444F61F61C0E9031455
:102E70008461FEF755FC08B1FDF729FC4FF4805042
:102E8000079007A92048FEF7B1FC08B1FDF71FFC29
:102E90001D48FFF7B1F908B1FDF719FC0B940BA918
:102EA00019480C94FEF7F4FB08B1FDF710FC602004
:102EB000009040F2DC50CDE901040022694612483E
:102EC0000494FFF733F908B1FDF701FC04226946C9
:102ED0000D48FFF72BF908B1FDF7F9FB0822694609
:102EE0000948FFF723F908B1FDF7F1FB0C22694609
:102EF0000548FFF71BF908B1FDF7E9FB0248FEF7AB
:102F00007DFD0EB010BD00004001002010B58EB058
:102F100000240794089409940A940B941C21684691
:102F20000C94FDF718FA2B48294901605321C0E998
:102F3000011444F61F61C0E903148461FEF7F0FB3D
:102F400008B1FDF7C4FB4FF48050079007A9214852
:102F5000FEF74CFC08B1FDF7BAFB1E48FFF74CF931
:102F600008B1FDF7B4FB0B940BA91A480C94FEF7BB
:102F70008FFB08B1FDF7ABFB6020009040F2DC5006
:102F8000CDE901040022694612480494FFF7CEF807
:102F900008B1FDF79CFB042269460E48FFF7C6F80E
:102FA00008B1FDF794FB082269460A48FFF7BEF80E
:102FB00008B1FDF78CFB0C2269460648FFF7B6F80E
:102FC00008B1FDF784FB0348FEF718FD0EB010BDF5
:102FD00000040040880100200C4810B50A49016037
:102FE0004FF4E1314160002181600C22C160C0E9F1
:102FF00004128161C161FFF7CFFA002803D0BDE858
:103000001040FDF764BB10BD004C0040D001002013
:103010000C4810B50A4901604FF4E13141600021CC
:1030200081600C22C160C0E904128161C161FFF7B7
:10303000B3FA002803D0BDE81040FDF748BB10BD2F
:1030400000500040180200200C4810B50A490160E9
:103050004FF4E1314160002181600C22C160C0E980
:1030600004128161C161FFF797FA002803D0BDE81F
:103070001040FDF72CBB10BD001001406002002085
:103080000C4810B50A4901604FF4E131416000215C
:1030900081600C22C160C0E904128161C161FFF747
:1030A0007BFA002803D0BDE81040FDF710BB10BD2F
:1030B00000440040A80200200C4810B50A490160F5
:1030C0004FF4E1314160002181600C22C160C0E910
:1030D00004128161C161FFF75FFA002803D0BDE8E7
:1030E0001040FDF7F4BA10BD00480040F002002087
:1030F0000C4810B50A4901604FF4E13141600021EC
:1031000081600C22C160C0E904128161C161FFF7D6
:1031100043FA002803D0BDE81040FDF7D8BA10BD2F
:103120000014014038030020FEE7FEE770477047B7
:1031300030B5184BDFED181A184CDFED190A9FED6A
:10314000192ADFED192A9FED191A002100EB8102DF
:10315000D5699D4201DAC2ED071AD569A54201DDA4
:10316000C2ED070A92ED070A00EB4105491C20EE6B
:10317000023A022983EE220A30EE010ABCEEC00AAE
:1031800010EE102AAA84E1DB0949808C0968886363
:1031900030BD00000000B4420000B44200007043A3
:1031A000000070430000FA440000B4430000FA43FA
:1031B0008801002004489FED030A80ED070AFFF70D
:1031C000B7BF00000000344340000020FDF750BEB0
:1031D00030B593B030216846FDF7BDF814210CA836
:1031E000FDF7B9F81D480025016841F080510160E4
:1031F000006800F0805011901948016841F4804146
:1032000001600068022400F48040119001200390C6
:1032100010200490009406940820CDE90750A820BF
:10322000CDE9090404200B906846FDF7A7FF08B11B
:1032300072B6FEE70CA90F2081E831004FF4A050D0
:103240000F904FF48050109005210CA8FDF7AAFEB6
:10325000002801D072B6FEE713B030BD40380240FE
:10326000007000400248016841F47001016070473D
:1032700088ED00E00148FEF728BB0000F8000020C0
:10328000F0B50268294C2A4D2A4E2B4F2B4B4FF09C
:10329000804CA04209D0604507D0A84205D0B0427A
:1032A00003D0B84201D0984204D122F0700E4A688F
:1032B00042EA0E02A0421BD0604519D0A84217D0A6
:1032C000B04215D0B84213D0984211D01C4DA8423C
:1032D0000ED01C4DA8420BD01B4DA84208D01B4D50
:1032E000A84205D01A4DA84202D01A4DA84203D1D7
:1032F00022F44075CA682A434D6922F080022A43AD
:1033000002608A68C2620A688262A04201D0984262
:1033100001D109690163012141610169C90703D034
:10332000016921F001010161F0BD000000000140D0
:103330000004004000080040000C00400004014070
:103340000040014000440140004801400018004096
:10335000001C00400020004010B501F01F030121B7
:10336000046A99408C430462016A9A4011430162E5
:1033700010BD10B5846842EA032224F47F440A4356
:103380002243826010BD826822F070020A4342F03C
:103390000701816070470000F0B5036A026A22F0FD
:1033A0000102026242688469124E24F073050C68BF
:1033B0002C4323F002058B682B430D4DA84201D00E
:1033C000B04205D123F00807CB683B4323F0040348
:1033D000A84201D0B04205D14D6922F44072154394
:1033E0008A692A4342608461496841630362F0BD8F
:1033F0000000014000040140F0B5026A036A23F0B6
:1034000010030362436884690D6824F4E64444EAC7
:1034100005248D6822F0200242EA05120F4D104E5D
:10342000A84201D0B04206D1CF6822F0800242EA21
:10343000071222F04002A84201D0B04207D14D69E4
:1034400023F4406343EA85038D6943EA85034360BF
:103450008461496881630262F0BD000000000140A0
:1034600000040140F0B5026A036A23F4807303622A
:103470004368C46922F4007224F073050C68124E8C
:103480002C438D6842EA05220E4DA84201D0B0427D
:1034900006D1CF6822F4006242EA072222F4806259
:1034A000A84201D0B04207D14D6923F4405343EA0A
:1034B00005138D6943EA05134360C4614968C1631C
:1034C0000262F0BD000001400004014030B5046A12
:1034D000026A22F4805202624268C3690D6823F4D2
:1034E000E64343EA05238D6824F4005444EA053496
:1034F000084DA84202D0084DA84204D14D6922F4DB
:10350000804242EA85124260C361496801640462F4
:1035100030BD0000000001400004014010B5036A06
:10352000046A24F001040462846924F0F00444EA8B
:10353000021423F00A020A438461026210BD10B52E
:10354000036A046A24F010040462846923F0A0036F
:1035500024F4704444EA023243EA011182610162B8
:1035600010BD00000148FEF7DFBE00001802002079
:1035700010B5806B0021C185C184FEF7D4FE10BD5B
:1035800070B5846B2068406994F84110C0F3C01096
:103590000025212904D118B1E584204600F08EF8D9
:1035A0002068406994F84210C0F38010222904D1A9
:1035B00018B1E585204600F05AF8606C40F0100024
:1035C00060642046FEF7AFFE70BD10B50146806B0B
:1035D000096809684FF00002C9052ED4C285016848
:1035E0000C3151E8003F23F4807341E80034002C93
:1035F000F5D10168143151E8003F23F0010341E89F
:103600000034002CF5D10168143151E8003F23F05B
:10361000400341E80034002CF5D1202180F842100D
:10362000016B012909D101680C3151E8003F23F0F9
:10363000100341E80034002CF5D14263016B0129ED
:1036400002D0FFF757F910BD818DFEF76BFE10BD5C
:1036500010B5806B01214163016B012902D0FFF796
:103660004AF910BD818D4908FEF75CFE10BD016866
:103670000C3151E8002F22F4907241E80023002B16
:10368000F5D10168143151E8002F22F0010241E820
:103690000023002BF5D1016B012909D101680C3100
:1036A00051E8002F22F0100241E80023002BF5D151
:1036B000202180F8421000210163704701680C311D
:1036C00051E8002F22F0C00241E80023002BF5D181
:1036D000202180F84110704708B590F84210222947
:1036E00001D0022008BD82684FF480539A4201D174
:1036F000016921B1816A9A421BD04AB10AE002688D
:10370000816A5268C2F308020A80816A891C08E053
:10371000026972B10268526802F07F020A70816A1F
:10372000491C8162C18D491E0904090CC18503D061
:103730001BE002685268F1E70168CA6822F02002C3
:10374000CA600168CA6822F48072CA6001684A6966
:1037500022F001024A61202180F8421000214163D9
:10376000026B012A03D0FFF7C5F8002008BD0163F2
:1037700001680C3151E8002F22F0100241E80023CB
:10378000002BF5D101680A68D20602D50A6849689B
:103790000091818DFEF7C6FDE7E7000070B5044695
:1037A00000680169E26821F4405111430161216917
:1037B000A068E26908436169114308432168CA6847
:1037C00049F20C639A430243CA6020684169A269C6
:1037D00021F440711143416131492068884202D08F
:1037E0003049884202D1FDF787FC01E0FDF774FC07
:1037F000E2690023192164253226B2F5004F626880
:1038000028D0A0FB0101930F9200FCF72DFD01468B
:10381000B0FBF5F06FF01802504301EB800006EBAF
:103820000010B0FBF5F000F0F002B1FBF5F002EB98
:103830000012B1FBF5F06FF01803584301EB800064
:1038400006EB0010B0FBF5F000F00F00216810440B
:10385000886070BDA0FB010192185B41FCF704FD7C
:103860000146B0FBF5F00201B1FBF5F06FF0180373
:10387000584301EB800006EBC000B0FBF5F000F010
:10388000F80002EB4002B1FBF5F0584301EB800079
:1038900006EBC000B0FBF5F000F00700D6E7000033
:1038A000001001400014014038B581620446828551
:1038B000002013466064222284F84220E56B1B4AF4
:1038C000EA63E56B1A4A2A64E56B1A4AEA64E26B1A
:1038D00010650A462168E06B091DFDF753F9206861
:1038E000016840680090206948B120680C3050E8B9
:1038F000001F41F4807140E80012002AF5D12068D1
:10390000143050E8001F41F0010140E80012002A85
:10391000F5D12068143050E8001F41F0400140E824
:103920000012002AF5D1002038BD0000CB35000878
:1039300051360008813500080148FEF7F5BC00004B
:1039400060020020FEE70907090E002804DB00F1F1
:10395000E02080F80014704700F00F0000F1E02034
:1039600080F8141D704700B52DED048BB0EE409A21
:10397000F0EE609A83B051EC190B00F029FB41EC9A
:10398000180B18EE100A18EE901A8DED008B002817
:1039900018BF0120084320F00040C0F17F6000F113
:1039A000E040C00F14D019EE101A19EE900A8DEDF8
:1039B000009B002918BF0121084320F00040C0F1FE
:1039C0007F6000F1E040C00F04BF0120FCF7F2FC73
:1039D000B0EE480A03B0F0EE680ABDEC048B00BDFF
:1039E000FE2180F82B10002180F82C10FF2280F897
:1039F0002D20417001707047FDF742FAFFF7E8FB98
:103A0000FFF7D6F8FFF79EF8FFF784F9FFF7E4FA1F
:103A1000FFF7FEFAFFF718FBFFF732FBFFF74CFB4F
:103A2000FFF766FBFFF770F8FFF796F9FFF708FA64
:103A3000FFF76CFA00211E48FEF70EFC04211C481B
:103A4000FEF70AFC08211A48FEF706FC0C2118486C
:103A5000FEF702FC04211748FEF7FEFB0C21154877
:103A6000FEF7FAFB14480068C16841F01001C1601C
:103A7000032212491048FEF72FFF10482838FFF79D
:103A8000AFFF0E4C9FED0E0A283C84ED070A0B4851
:103A90002838FFF74DFB607820B10128F7D1FFF7F8
:103AA00089FBF4E705482838FEF742FFEFE70000FE
:103AB000400100208801002018020020680000203A
:103AC000000034432DE9C04130B4DFF8A0C23CEA25
:103AD000111418BF3CEA131400F0EC8081EA0305CE
:103AE0001CEA111444EAD57418BF1CEA131500F03F
:103AF000C780A4EB05044FF0004545EAC12145EA23
:103B0000C32341EA505143EA525304F17F7499426E
:103B100004F500344FEAC0204FEAC22208BF9042A9
:103B200000F09C804FEA13650FF24016765D4FEA75
:103B3000134506FB05F7C7F1807706FB07F74FEA49
:103B4000D737A7FB03687642C8F58038A7FB06CEB7
:103B500038BFA8F1010807FB08E64FF0000EA6FBEE
:103B6000028CE6FB03CEDCF1000CCEF1004E38BF38
:103B7000AEF1010EA6FB0C584FF000074FF0000508
:103B8000E6FB0E87A1FB08C6A0FB07CE16EB0E06D0
:103B900045F10005E1FB076515F1E04E7EBFA4F598
:103BA00080345FEA46066D4116F1800745F1000555
:103BB0004FEA17274FEA066647EA0567A6F1DE4691
:103BC000B6F1805F4FEA15251FD9384624F0010C65
:103BD00005EBC471BCF1FE6F01EB0C1102D8F0BC17
:103BE000BDE8008124425CBF01F5801E9EEAC47FCF
:103BF00002D4F0BCBDE80081244238D4F0BCA1F16D
:103C0000C041BDE8004100F0DDB94FEAD22242EAEE
:103C100043524FEAD323A7FB02864FEAD02040EA63
:103C2000415007FB03661EEA0E0F4FEAD12105FB48
:103C3000026658BFA6EB0056B6EB00564FEA520E8E
:103C40004EEAC37E18EB0E0E56EB530EBDD518EBA5
:103C500002085E417F1C55F10005B6E74FF4801560
:103C60004FF000074FF000064FF00008ADE7F0BC42
:103C70004FF0000001F1C04101F00041BDE80081BA
:103C800011EA0C1F0CEA131500D00CE013EA0C1F0C
:103C900000F025804FF00000F0BC81EA030101F044
:103CA0000041BDE80081F0BCBDE8004181EA0301AC
:103CB00000F088B9F0BCBDE8004170B500F034F9FF
:103CC000097EFC3E00F007B881EA03014FF00000D6
:103CD00001F00041704781EA030100F073B9F0BCC4
:103CE000BDE800414FF0000021497047FFFDFBF99E
:103CF000F7F5F4F2F0EEEDEBE9E8E6E4E3E1E0DE1F
:103D0000DDDBDAD8D7D5D4D3D1D0CFCDCCCBCAC890
:103D1000C7C6C5C4C2C1C0BFBEBDBCBBBAB9B8B7B7
:103D2000B6B5B4B3B2B1B0AFAEADACABAAA9A8A8AA
:103D3000A7A6A5A4A3A3A2A1A09F9F9E9D9C9C9B78
:103D40009A99999897979695959493939291919023
:103D50008F8F8E8E8D8C8C8B8B8A898988888787B4
:103D60008685858484838382828181800000FF0729
:103D70000000F87F4FEA41034FEA5353A3F58063F5
:103D8000D3F11E03C8BFD3F1210C0CDD4FF000426C
:103D900042EAC12242EA505232FA03FC8CEAE17C48
:103DA000ACEBE1707047102BC4BF0020704703F5E7
:103DB000787CBCF1FF3F04D06FF0004282EA210022
:103DC000704770B500F0B0F8499224800020704729
:103DD000F2E70000DFF848C170B51CEA111E1EBFF3
:103DE0001CEA13159EEA0C0F95EA0C0F00F06F8089
:103DF00081EA030423EA4C134EEAD47E21EA4C11F3
:103E000041F4801143F48013AE44A1FB024CA0FBAB
:103E10000365AEF17F7E361955EB0C05A1FB034C13
:103E20004CF10003A0FB021C16EB0C06654153F19C
:103E30000003094218BF46F0010613F4007F0BD1BE
:103E40004FEA03314FEA0530340341EA155140EAA5
:103E500016506FF003020AE04FEAC3214FEAC52073
:103E6000F40241EA555140EA56506FF0020202EB6B
:103E70002E4201EB025585EACE710AD05FEA440C6E
:103E800018BF24F0004450F1000041F1000120EA85
:103E9000D47040F2FE7C624500D270BDA84214BFCF
:103EA0004FF080444FF04044002E08BF0024BEF184
:103EB000806FA8BFA1F1C041BDE8704080F2828050
:103EC0004FF0000001F1C04101F0004170479EEA4F
:103ED0000C0F0CEA131518BF95EA0C0F06D04FF023
:103EE000000081EA030E0EF0004170BD00F01CF8E6
:103EF0008900013E00F007B800F009B84FEA430C12
:103F00005FEA5C5C08D081EA030100F05BB84FEA2D
:103F1000410C5FEA5C5CF6D14FF00000014970474C
:103F20000000FF070000F87F0EF1020E2EF0030ED6
:103F30005EF8046B364205D4012A43EB030515F500
:103F4000001F12D8012841EB010C1CF5001F0CD8F2
:103F50000ED14FEAD17C15F5001F0CEB4C0C0CF187
:103F6000020C08BF4CEBD37C04E04FF0080C01E0DE
:103F70004FEAD37C0CEB4C0526FA05F606F0070653
:103F8000B6F1040C06D20EEB860CBDE870404CF086
:103F9000010C6047DFE80CF0090B02024FF0004112
:103FA0004FF00000A1F5002170BD19461046012810
:103FB00051EB010418BFD4F5001484BF002001F0B8
:103FC000004170BD0808A0F500114FEA31017047AB
:103FD0002DE9F04101F5801CBCF5001FC0F2A9805D
:103FE0004FEA115C21EA0C510CF1FD0C41F48011F7
:103FF0005FEA5C0C0CF5C07C01D34000494130A461
:10400000890241EA905187028E0E0A0CA45D04FBDE
:1040100004F602FB06F6C6F14046A4FB0662F60D66
:1040200046EA422606FB06F4A4FB01235242C3F1F2
:10403000404338BF5B1EA6FB02420024E6FB03247C
:10404000D20B42EA4446A6FB0623A1FB02E2A3FBF5
:1040500007E4E3FB61426442C2F1404E38BFAEF177
:10406000010EA6FB04234FF00002E6FB0E32A2FB7A
:1040700003463400E2FB6264A1FB06E6A4FB07E80A
:10408000E4FB61687642C8F1405838BFA8F10108E6
:10409000A2FB06E4A3FB08E5E2FB6854A1FB05E6EE
:1040A000A7FB04E8E1FB648618F1200556F1000641
:1040B000A809A8F11B08B10908F03F08B8F10A0FD8
:1040C00040EA86601CD901EB0C51BDE8F08100BFCD
:1040D000FCF5EEE8E2DDD8D3CFCBC7C3C0BDB9B69F
:1040E000B4B1AEACA9A7A5A3A19F9D9B9A989695A4
:1040F0009392908F8D8C8B8988878685848382812B
:10410000A0FB006800FB01F208EB4208B8EB87282F
:1041100007D5341858EB0104D5D5401C51F10001E6
:10412000D1E7341A78EB0104CDD4401E71F10001BF
:10413000C9E75FEA4C0C5FEA9C5C0DD105D34FF0F8
:10414000000001F00041BDE8F081BDE8F04170B52C
:10415000FFF7EAFE6DDBFFBEBDE8F0414FF0000067
:10416000004970470000F87F43004FEAD30C4FEA44
:104170003C0C43401FBF40070CF1605113F0FE4F51
:1041800070471CF0006F03D100200CF00041704715
:104190000CF0004343EA507010B540EACC0000F048
:1041A0000EF800BF000000924FEA0001FFF70ABFBF
:1041B0004FF000414FF00000A1F5002170470EF1D3
:1041C000020E2EF0030E5EF8044B244204D44FEA94
:1041D0004102B2F17F4F11D84FEA4003B3F17F4F54
:1041E0000CD80ED14FEAD07CB2F17F4F0CEB4C0CC7
:1041F0000CF1020C08BF4CEBD17C04E04FF0080C32
:1042000001E04FEAD17C0CEB4C0324FA03F404F0F8
:104210000704B4F1040C06D20EEB840CBDE8104088
:104220004CF0010C6047DFE80CF0070802024FF089
:104230000040A0F5800010BD0846420018BFD2F132
:10424000807288BF00F0004010BD4FF04070E1EE7A
:10425000100A704700061016000610160000000035
:104260000000000001020304060708090000000026
:1042700001020304944200080000002040000000F6
:10428000C4010008D442000840000020680B000070
:10429000E001000801000000100000000000000024
:1042A0000024F400000000000000000000000000F6
:1042B00000000000000000000000000000000000FE
:1042C00000000000000000000000000000000000EE
:0442D00000000000EA
:040000050800018965
:00000001FF
