:020000040800F2
:1000000028160020A1010008D14200086B34000826
:10001000493F00082D080008ED55000800000000C9
:10002000000000000000000000000000CB440008B9
:100030004D09000800000000C9440008FD47000801
:10004000BB010008BB010008BB010008BB010008A0
:10005000BB010008BB010008BB010008BB01000890
:1000600063090008690900086F09000831080008E1
:100070003D08000849080008550800086108000804
:100080006D08000879080008BB010008BB010008E2
:10009000BB010008BB010008BB010008750900088E
:1000A000BB010008C1480008A5480008BB010008C2
:1000B000DD480008BB010008BB010008BB010008C7
:1000C000BB010008BB010008BB010008BB01000820
:1000D000BB010008AD500008D5500008E1500008F1
:1000E000BB010008BB010008BB010008F54800087F
:1000F0002D49000811490008BB01000885080008C7
:10010000BB010008BB010008BB010008BB010008DF
:10011000D54C0008E14C0008E9480008BB01000884
:10012000BB010008BB01000891080008BB010008E2
:10013000BB010008BB010008BB010008BB010008AF
:10014000BB010008BB010008BB010008BB0100089F
:10015000BB010008BB0100089D080008BB010008A6
:10016000BB010008BB010008BB010008BB0100087F
:10017000BB010008BB010008BB0100080000000033
:10018000BB010008BB010008DFF810D000F01CFB29
:100190000048004745760008AFF30080281600208D
:1001A0000648804706480047FEE7FEE7FEE7FEE711
:1001B000FEE7FEE7FEE7FEE7FEE7FEE795480008FC
:1001C000890100082DE9F05F0546002092469B4614
:1001D00088460646814640241BE02846414647465D
:1001E000224600F03AFA53465A46C01A914110D3BB
:1001F00011461846224600F021FA2D1A67EB010835
:100200004F4622460120002100F018FA17EB0009A2
:100210004E41201EA4F10104DFDC484631462A4647
:100220004346BDE8F09F40EA01039B0703D009E085
:1002300008C9121F08C0042AFAD203E011F8013BD2
:1002400000F8013B521EF9D27047D2B201E000F82B
:10025000012B491EFBD270470022F6E710B513466A
:100260000A4604461946FFF7F0FF204610BD2DE967
:10027000FE4F804681EA0300C00F0C46009021F03B
:10028000004123F00045B8EB0200A94105D24046E9
:10029000214690461C460B46024623F00040104380
:1002A00047D0270DC7F30A00C3F30A510290401A42
:1002B000019040286BDAC3F3130040F4801B0098D0
:1002C000924620B10023D2EB030A63EB0B0B01989B
:1002D0005946C0F14002504600F0B0F906460D46BE
:1002E00050465946019A00F0C8F910EB08006141E8
:1002F000002487EA115284EAE7731A4340D0009A37
:1003000062B3019A012A4FEA075215DC001B61EB28
:1003100002014FF0004202EA0752CDE90042001C00
:1003200041F5801132462B4600F0FFF903B0BDE8DD
:10033000F08F40462146F9E7001B61EB0201001CEB
:1003400041F5801300185B412018A2F5001747EB18
:10035000030140EAD570B6196D4111E06D084FEA0E
:10036000360645EAC0754FEA0752001B61EB0201F1
:10037000001C41F5801149084FEA30000019514135
:1003800032462B4603B0BDE8F04F00F0BFB90098ED
:10039000012240000023D0EB020263EBE0730098DF
:1003A00021464FEAE074B8EB000061EB0401E9E795
:1003B00083F000435BE781F0004158E72DE9FE4FF1
:1003C00081EA030404F0004421F0004100944FF05E
:1003D000000B23F0004350EA01045ED052EA03040C
:1003E0005BD0C3F30A54C1F30A552C44A4F2F3348E
:1003F0000194A0FB0254C1F3130141F48011C3F333
:10040000130343F4801301FB024400FB034E840AF0
:10041000970A44EA815447EA8357A4FB0768029588
:100420008D0A05FB07854FEA932C04FB0C54270526
:10043000029D4FEA065847EA1637B5EB08056EEB02
:10044000070C870E920E47EA811742EA8312A7FB38
:100450000201B6EB0B0164EB00042B0D43EA0C33F5
:100460005E1844EB1C50DA465146E7FB0201C5F327
:1004700013044FEA0B3343EA14534FEA0432019C4E
:1004800043EA0603A4F10C040294009CCDE900B4F5
:1004900000F04BF903B0BDE8F08F00200146F9E70A
:1004A0002DE9F04D81EA030404F0004B21F00045F2
:1004B00014464FF0000A23F0004150EA050220D014
:1004C00054EA01021DD0C5F30A570246C5F31303CF
:1004D000C1F31300C1F30A5640F4801543F48013AE
:1004E000A7EB0608101BD64608F2FD3873EB050093
:1004F00002D308F1010801E092185B41B8F1000F46
:1005000003DA00200146BDE8F08D00204FF4801191
:10051000064684460EE0171B73EB050705D3121B36
:1005200063EB050306434CEA010C49084FEA30002F
:1005300092185B4150EA0107EDD152EA030012D054
:1005400082EA040083EA0501084305D0101BAB4191
:1005500006D20122002306E000224FF0004302E011
:100560006FF0010253101AEB06004CEB085110EB30
:100570000A0041EB0B01BDE8F04D00F0C7B80EB525
:10058000C10F80EAE0700844CA07002140F23343FB
:100590008DE80E000A460B4600F0C7F803B000BD18
:1005A00070B5C1F30A5201F000450024C1F31301F4
:1005B00040F2FF3341F480119A4201DA002070BD0D
:1005C00040F233439A42A2F2334203DC524200F03B
:1005D00044F800E090402C43F1D0404270BD00F060
:1005E000004230F000400AD0C10D01F56071C0F347
:1005F000160042EA0151C20840071143704700202B
:100600000146704701F0004330B421F0004150EA48
:10061000010206D00A0DA2F56072C1F31301002A8F
:1006200002DC30BC00207047440F44EAC104C10022
:10063000E01830BC00EBC25000F031B8202A04DBD7
:10064000203A00FA02F1002070479140C2F12003E5
:1006500020FA03F3194390407047202A04DB203A24
:1006600021FA02F00021704721FA02F3D040C2F1D2
:1006700020029140084319467047202A06DBCB1719
:10068000203A41FA02F043EAE07306E041FA02F34D
:10069000D040C2F12002914008431946704700291A
:1006A000A8BF7047401C490008BF20F001007047F8
:1006B00010B4B0FA80FC00FA0CF050EA010404BF58
:1006C00010BC704749B1CCF1200421FA04F411FAAE
:1006D0000CF118BF012121430843A3EB0C01CB1DF2
:1006E0004FEA00614FEA102042BF002010BC704763
:1006F00000EBC35010440029A4BF10BC7047401C3D
:10070000490008BF20F0010010BC704710B5141E4E
:1007100073F1000408DA401C41F1000192185B41BA
:100720001A4301D120F0010010BD2DE9F04D924691
:100730009B4611B1B1FA81F202E0B0FA80F22032A8
:100740009046FFF77BFF04460F4640EA0A0041EA65
:100750000B0153465A46084313D0114653EA010091
:1007600019D0C8F140025046FFF777FF05460E4604
:10077000504659464246FFF761FF084305D0012025
:1007800004E020463946BDE8F08D0020054346EAE6
:10079000E0762C4337430A986305E40AA0EB08008F
:1007A0000022FD0A44EA47540A3002D500200146DF
:1007B000E9E7010510196941DDE9084500196941BA
:1007C000BDE8F04DA2E70000064C074D06E0E068EA
:1007D00040F0010394E8070098471034AC42F6D388
:1007E000FFF7D6FC407D0008607D00080C4810B57E
:1007F0000068C16841F01001C16028220949084819
:1008000002F01BFE08480068C16841F01001C16099
:1008100004492822BDE810404931034802F00DBECA
:1008200088040020040C002010050020FEE70000D2
:10083000014800F08FBB00009C060020014800F03A
:1008400089BB0000DC080020014800F083BB0000E9
:10085000DC050020014800F07DBB00003C090020C1
:10086000014800F077BB00003C060020014800F082
:1008700071BB00001C080020014800F06BBB0000A9
:100880007C080020014800F065BB0000FC06002049
:10089000014800F05FBB00005C070020014800F049
:1008A00059BB0000BC07002001681823CAB2103AE7
:1008B000B2FBF3F2054B6FF30901032A9B5CC3659E
:1008C00000D9091D8165084670470000007D0008B9
:1008D00010B5014600208B698A6A4FF0C07453B18D
:1008E000B3F5005F15D072B1012A0CD0022A0AD0EC
:1008F000032A09D104E01AB1012A06D0022A03D141
:10090000C96AC90100D5012010BDC96AA142FAD047
:1009100010BD002AF7D0012AF2D0022AF3D0032A10
:10092000F3D010BD30B50468256825F48025256016
:10093000046863608368402B036803D09960006893
:10094000C26030BD9A600068C16030BD7047002150
:1009500004E00222521C282AFCD3491C8142F8D30D
:100960007047042000F0AABC082000F0A7BC1020AB
:1009700000F0A4BC802000F0A1BC000005489FED61
:10098000040A80ED000A80ED010A80ED020A70473A
:1009900000000000F80B00202DE9F0410D462DED80
:1009A000048BA0B004469846B0EE419AF0EE609AEF
:1009B0001646B0EE408A0027DFED528A8021684655
:1009C000FFF74AFC002C27D0B8F1000F24D0202DCF
:1009D00001D9202502E0032D00D20325B6EB550FE7
:1009E00000D30126207804EB8001401C207081EDAB
:1009F000038A2078A84204D3002020700120607070
:100A000001E0607810B12178684619E088ED008A2D
:100A100084ED018A84ED028A20B0BDEC048BBDE830
:100A2000F08100BF04EB8102491C92ED030A00EB48
:100A30008702C9B282ED000AA94200D300217F1CBF
:100A4000AF42EFD30022A5F1010C16E00021AF1A4E
:100A50007F1E0FE000EB810393ED000A93ED011A76
:100A6000B4EEC10AF1EE10FA03DD83ED001A83ED56
:100A7000010A491C8F42EDD8521C6245E6D37142EF
:100A800005EB4101C9B2AA1B07E000BF00EB8603DA
:100A9000761C93ED000A70EE288AB242F6D800EE7A
:100AA000101AB8EE400A88EE808AB0EE480A06F0C6
:100AB0003DFFB4EEE90AF1EE10FA02DD94ED028A90
:100AC00018E0D4ED020AB0EE480A30EE600A06F0F3
:100AD0002DFFB4EEC90AF1EE10FA0BDD94ED020A17
:100AE000B4EEC80AF1EE10FA02D230EE098A01E043
:100AF00030EE498A84ED028A84ED018A88ED008A0D
:100B00008AE700000000000000280CD000210170DE
:100B100041709FED050A802180ED010A80ED020AF7
:100B20000C30FFF799BB7047000000002DE9F04141
:100B300060482DED028B0068406A5F4A10805F4874
:100B40000068406A50805E480068406A90805D4856
:100B50000068446AA2F10C010020951DAB1D0C60D9
:100B600032F8106035F81070F71B23F8107025F874
:100B70001060401CC0B20328F2D34868201AC1E9B3
:100B80000140C2174FF00044041B72F1FF3201DA3A
:100B9000001C8860B3F9000000EE100AB8EEC00A2D
:100BA000DFED490AF2EE061A484C20EE200A80EEEC
:100BB000211AB5EE000A61EE001AB2EE0C1A81EEAF
:100BC000812A84ED002AB3F9025001EE905AF8EE22
:100BD000E11A61EEA02AFAEE061A82EEA12A22EEAE
:100BE000002AC2EE012AC4ED012AB3F9042002EE64
:100BF000102AC2F10002B8EEC22A62EE202A82EE6A
:100C0000A12A22EE002AC2EE012AC4ED022A8B6834
:100C1000C5F1000102EE103AC3F10003B8EEC22A9A
:100C200062EE200A80EEA12A22EE000AC0EE010A3E
:100C3000C4ED030A06F082FE9FED258AA4F110039D
:100C400094ED000AB3EE0E1AF0EE480A02220A21D1
:100C500003F12C00FFF7A0FEA4F10C0394ED010AB0
:100C6000B3EE0E1AF0EE480A02220A2103F1B40094
:100C7000FFF792FEA4F1080394ED020AB3EE0E1AF8
:100C8000F0EE480A02220A2103F59E70FFF784FE67
:100C900094ED030A231FF0EE480ABDEC028B0222FA
:100CA000BDE8F041B3EE0E1A0A2103F5E270FFF73A
:100CB00073BE0000E0000020200000207001002032
:100CC000B8010020000200200080BB45AC090020D4
:100CD0000000FA4372B6FEE710B5FFF727FF05489C
:100CE00000F1280290EC040A111F2030BDE81040EA
:100CF00006F066BD9C09002070B5040003D094F88E
:100D0000200010B104E0012070BD204600F082F800
:100D10002068016841F00101016000F0DDFB05463B
:100D2000052604E000F0D8FB401B0A2811D82068F3
:100D30004068C007F6D02068016821F00201016018
:100D400000F0CAFB05460BE000F0C6FB401B0A287A
:100D500006D9606A40F40030606284F82060D2E70F
:100D6000206840688007EFD4207E01282068016851
:100D70003DD021F080010160607E0128206801687B
:100D800038D021F040010160A07E01282068016870
:100D900033D021F020010160E07E01282068016845
:100DA0002ED041F010010160207F012820680168E9
:100DB00029D021F008010160607F012820680168C6
:100DC00024D021F004010160D4E902010843D4E9F0
:100DD0000412114308436168491E08432168C86131
:100DE00000206062012084F82000002070BD41F0E6
:100DF0008001C0E741F04001C5E741F02001CAE7AA
:100E000021F01001CFE741F00801D4E741F00401DF
:100E1000D9E70000F0B587B0044614216846FFF713
:100E20001BFA1A49206888422ED11948002501680A
:100E300041F000710160006800F0007005901448F6
:100E40001038016841F001010160016801F0010101
:100E50000591016841F0080101600068022400F07A
:100E6000080005904FF40060032609278DE8F10083
:100E70006946084800F02EFA01AA009482E8F000C2
:100E80006946054800F026FA07B0F0BD006400404E
:100E90004038024000000240000C02402DE9F041C1
:100EA0000446876D00F018FB064694F835000025CF
:100EB000022806D08020606584F834500120BDE807
:100EC000F0812068016821F0160101602068416905
:100ED00021F080014161206C08B9A06C20B120682C
:100EE000016821F0080101602068016821F001011A
:100EF00001600CE000F0F0FA801B052807D92020E3
:100F00006065032084F8350084F83450D7E7206802
:100F10000068C007EED194F85C103F208840B860AC
:100F2000012084F8350084F834500020C7E790F899
:100F30003510022903D08021416501207047052129
:100F400080F835100068016821F00101016000207F
:100F5000704700002DE9F84304464FF00009CDF832
:100F6000009063484FF41651A56D0068B0FBF1F78F
:100F70002E6894F85C10082000FA01F131420FD07D
:100F800021680A6852070BD50A6822F004020A6039
:100F900094F85C108840A860606D40F001006065C6
:100FA00094F85C104FF0010808FA01F0304208D0C4
:100FB00021684969090604D5A860606D40F0020007
:100FC000606594F85C1004208840304208D02168A5
:100FD0000968890704D5A860606D40F00400606569
:100FE00094F85C1010208840304218D021680968BD
:100FF000090714D5A86020680168490304D5006872
:10100000000308D5A16C07E00168C90503D4016895
:1010100021F008010160216C09B12046884794F84D
:101020005C1020208840304231D021680968C90610
:101030002DD5A86094F8350005282068016806D0F1
:10104000490347D5006800031DD4616C1CE021F002
:10105000160101602068416921F080014161206C26
:1010600008B9A06C20B12068016821F00801016076
:1010700094F85C103F208840A86084F8358084F89C
:101080003490216D1FE0E16B09B120468847606D07
:1010900000282BD0606DC00714D0052084F83500DF
:1010A0002068016821F0010101600098401C009057
:1010B000B84203D820680068C007F6D184F83580AC
:1010C00084F83490E16C002910D001B02046BDE8CE
:1010D000F04308470168C905D5D4016821F0100123
:1010E000016084F8358084F83490CCE7BDE8F8835B
:1010F000100000202DE9F041044600F0EDF906460D
:101100005CB1022084F83500002584F83450206852
:10111000016821F0010101600DE00120BDE8F081CE
:1011200000F0DAF9801B052805D92020606503202E
:1011300084F83500F2E720680068C007F0D1226823
:10114000116820480140D4E901031843D4E903366B
:101150003343184363691843A3691843E369184389
:10116000236A18430843616A042903D1D4E90B13A5
:1011700019430843106020684069666A20F007013F
:1011800030460E43012704280CD1A06A0643E06ACA
:1011900040B12046FFF79CFB20B14020606584F8F9
:1011A0003570BAE7206846612046FFF77DFB94F86A
:1011B0005C203F2191408160656584F83570002096
:1011C000ACE700003F8010F02DE9F0410446866D49
:1011D00090F83400002501280DD0012084F8340057
:1011E00094F835700020012F07D084F834000225D0
:1011F0002846BDE8F0810220FBE7022784F835701D
:1012000060652046FFF78EFB94F85C103F20884015
:10121000B0602068016841F016010160206C20B1C7
:101220002068016841F0080101602068016841F010
:1012300001010160DCE7000070B50546142005F0EF
:1012400063FA1848042D0FD0174C082D15D0102D17
:1012500021D0802D07D18021144800F033F90128D6
:1012600001D10420207070BD042100F02BF900286A
:10127000F9D10F490120087070BD082100F022F952
:101280000028F9D1022020700A4890ED000A0A488F
:1012900080ED000A70BD102100F014F90128F9D189
:1012A0000320DFE7001002403C000020000C024059
:1012B000000000205400002050000020044910B518
:1012C0000A68024202D00860FFF7B6FF10BD0000B6
:1012D000143C01402DE9F84FDFF8BCA100220125A4
:1012E00003264FF00F090AF1040BAAF1040E00BF08
:1012F0000B6805FA02F42340A34270D10F7907F07E
:101300000307012F01D0022F16D187684FEA420848
:1013100006FA08FC27EA0C07D1F80CC00CFA08FC06
:101320004CEA070CC0F808C04768A7430C79C4F31F
:10133000001494403C4344600C79E443A4070AD071
:10134000C4684FEA420C06FA0CF7BC438F6807FAF0
:101350000CF72743C7600C7904F00304022C12D168
:10136000D40800EB840CDCF820405707FF0E09FA84
:1013700007F824EA0804D1F8108008FA07F848EAC8
:101380000408CCF8208004684FEA420C06FA0CF7F7
:10139000BC430F7907F0030707FA0CF727430760F0
:1013A0004C6814F4403F70D03C4C276847F48047A9
:1013B0002760246822F0030704F480440094384C2A
:1013C00007EB040CDCF8084897074FEA177809FA8E
:1013D00008F7BC43334FB84202D1002724E054E061
:1013E000314FB84201D101271EE0304FB84201D140
:1013F000022719E02E4FB84201D1032714E02D4FE8
:10140000B84201D104270FE02B4FB84201D1052784
:101410000AE02A4FB84201D1062705E0284FB8421A
:1014200001D1072700E0082707FA08F72743CCF87F
:101430000878DAF800405746D1F804C09C435FEAC8
:10144000CC2C00D51C433C60DBF800405F46D1F853
:1014500004C09C435FEA8C2C00D51C433C60DEF842
:1014600000407746D1F804C09C435FEA8C3C00D52D
:101470001C433C60084F083F3C68D1F804C09C43C3
:101480005FEACC3C00D51C433C60521C102AFFF4A0
:101490002FAFBDE8F88F0000083C014044380240FF
:1014A00000300140000002400004024000080240F9
:1014B000000C0240001002400014024000180240DC
:1014C000001C02400069084000D0012070470AB1AA
:1014D000816170470904FBE701488068704700009C
:1014E0000400002070B5040025D094F83D000025CC
:1014F00020B984F83C50204600F0B8F8242084F845
:101500003D002068016821F0010101602068016848
:1015100041F4004101602068016821F4004101604C
:1015200000F00CFA4D4A6168914201D84C4900E044
:101530004C49884201D2012070BD4B492368B0FB61
:10154000F1F15E6826F03F060E435E6063689342E9
:1015500006D94FF4967359434FF47A73B1FBF3F104
:101560002368491C1E6A26F03F06314319626168F0
:10157000914210D84900401EB0FBF1F2521CC2F358
:101580000B02042A01D2042022E0B0FBF1F0401C3F
:10159000C0F30B001CE0A268F2B301EBC10303EB44
:1015A0000116431EB3FBF6F35B1C43F480431B059B
:1015B00049D092B301EBC10202EB0111401EB0FB16
:1015C000F1F0401CC0F30B0040F4804040F40040B8
:1015D0002168CA694CF6FF739A431043C861D4E985
:1015E000071001432068026822F0C0021143016025
:1015F000D4E9030101432068826848F2FF339A432B
:1016000011438160D4E9050108432168CA6822F0CA
:10161000FF021043C86001E00EE016E02068016898
:1016200041F0010101602564202084F83D0025631C
:1016300084F83E50002070BD01EB4106431EB3FB11
:10164000F6F35B1CB3E70120C2E701EB4101401E4A
:10165000B0FBF1F0401CC0F30B00B7E7A08601001F
:1016600080841E0000093D0040420F0010B586B086
:10167000044614216846FEF7EFFD134920688842AE
:1016800020D112480021026842F002020260006884
:1016900000F002000590C02000901220CDE9010169
:1016A000032003900420049069460948FFF712FEC6
:1016B00006481030016841F400110160006800F430
:1016C0000010059006B010BD0054004030380240B4
:1016D000000402400248816802781144816070472A
:1016E000040000200B4810B5016841F4007101604E
:1016F000016841F480610160016841F4807101601A
:10170000032000F06FF80F2000F006F800F024F836
:10171000002010BD003C024070B50D4D04464FF452
:101720007A712878B1FBF0F00A490968B1FBF0F052
:1017300000F00AFB48B9102C07D200222146501EA7
:1017400000F030F800206C6070BD012070BD00001A
:1017500004000020100000200A4808B5016841F488
:1017600080410160006800F4804000900548001F3F
:10177000016841F080510160006800F080500090E5
:1017800008BD000044380240002809DB00F01F02B9
:10179000012191404009800000F1E020C0F80011D3
:1017A00070470000F0B40E4B1B680C46C3F30223D5
:1017B000C3F10705042D00D90425191D072901D2FD
:1017C000002300E0DB1E012606FA05F1491E214038
:1017D00099409E40761E16403143F0BC03F097BFFF
:1017E0000CED00E0064900F0070208684FF6FF0321
:1017F000184040EA0220034A104308607047000086
:101800000CED00E00000FA052DE9F0470E4605005A
:1018100065D0DFF81481D8F80000F7B200F00700B7
:10182000B04207D288F80070D8F8000000F0070036
:10183000B04254D128683D4C810712D5400703D5EA
:10184000206840F4E05020602878000703D5206825
:1018500040F4604020602068A96820F0F000084350
:1018600020602878C0072DD03049686808390128E1
:1018700012D0022813D0032811D009688907002943
:101880002DDA216821F0030101432160FFF724FED6
:10189000814641F2883A0EE009688903EFE709685A
:1018A0008901ECE7FFF718FEA0EB0901514502D9C9
:1018B0000320BDE8F0872068696800F00C00B0EBF9
:1018C000810FEFD1D8F80010404601F00701B14276
:1018D00007D90770006800F00700B04201D001206E
:1018E000E7E72878400705D52068E96820F4E0504C
:1018F000084320602878000706D52068296920F46D
:10190000604040EAC100206000F038F82168084AD1
:10191000C1F30311515CC8400649086006480068DD
:10192000FFF7FAFE0020C4E7003C024008380240FE
:10193000087D000810000020080000200448054928
:1019400000680968044AC1F38221515CC8407047AD
:101950001000002008380240187D0008044805499E
:1019600000680968044AC1F34231515CC8407047BD
:101970001000002008380240187D0008154810B5F6
:10198000006810F00C02144813D04110042A0FD044
:10199000082A0ED10F4C241F2268236802F03F0250
:1019A0005B0207D52068C0F38810A0FB010106E0A8
:1019B000084610BD2168C1F38811A1FB0001002376
:1019C000FEF700FC2168C1F30141491C4900B0FB4E
:1019D000F1F010BD083802400024F4002DE9F84F62
:1019E00004006ED02078DFF84C93C007A9F10405FD
:1019F0004AD009F104000168C1F38101012908D02E
:101A00000068C0F3810002280AD1D9F80000400222
:101A100006D52868800337D560680028E1D033E018
:101A20006068B0F5803F10D0B0F5A02F286810D0C6
:101A300020F480302860286820F4802028606068C6
:101A4000A8B1FFF749FD06460DE0286840F4803054
:101A5000F4E740F480202860F7E700BFFFF73CFD83
:101A6000801B642873D828688003F7D50CE0FFF743
:101A700033FD064605E000BFFFF72EFD801B6428FE
:101A8000F0D828688003F7D42078DFF8AC8280078C
:101A90004FF0000A3ED5A748001D016811F00C0F59
:101AA00008D00068C0F3810002280BD1D9F80000EB
:101AB000400207D42868800716D5E068012800D1C5
:101AC00012E033E1E068B8B10120C8F80000FFF788
:101AD00003FD064605E000BFFFF7FEFC801B022861
:101AE000C0D828688007F7D52868216920F0F80059
:101AF00040EAC10028600DE0C8F800A0FFF7ECFC48
:101B0000064604E0FFF7E8FC801B02281FD828687F
:101B10008007F7D42078000722D5864F874861696F
:101B2000703771B101210160FFF7D6FC064604E071
:101B3000FFF7D2FC801B022809D838688007F7D548
:101B40000EE0C0F800A0FFF7C7FC064605E082E003
:101B5000FFF7C2FC801B02287DD838688007F7D4C5
:101B60002078400768D5DFF8CCB100270BF13C0B9B
:101B7000DBF80000C0000BD4DBF8001041F080510E
:101B8000CBF80010DBF80000012700F08050009037
:101B90006B4E3068C00510D4306840F480703060FF
:101BA000FFF79AFC009005E0FFF796FC0099401AB9
:101BB000022850D83068C005F6D55E4EA0686C3655
:101BC00001280FD00528306810D020F001003060C7
:101BD000306820F004003060A068B8B1FFF77CFCEA
:101BE00000900FE0306840F00100F4E740F004009E
:101BF0003060F7E7FFF770FC0099411A41F2883036
:101C0000814266D830688007F4D50EE0FFF764FCA7
:101C1000009007E0FFF760FC0099411A41F288301C
:101C2000814256D830688007F4D42FB1DBF8001019
:101C300021F08051CBF80010A069C8B33D49091DBF
:101C40000968C1F3810102294AD00228504607D011
:101C5000C8F8600000E03CE0FFF73EFC04463BE0D3
:101C60004746C8F86000FFF737FC064605E000BFAE
:101C7000FFF732FC801B02282BD828688001F7D49C
:101C8000D4E907010843A16A2E4A490802EB014141
:101C9000626A41EA8211084394F82C1040EA01611B
:101CA000C9F8001001203866FFF716FC044606E06C
:101CB0003EE000BFFFF710FC001B022809D828688F
:101CC0008001F7D534E000BFFFF706FC001B0228B7
:101CD00002D90320BDE8F88F28688001F4D427E0FA
:101CE0000128F7D0D9F80000E26900F480019142A0
:101CF0001CD1226A00F03F01914217D147F6C07112
:101D0000626A0140B1EB821F10D1A26A4FF0FF332B
:101D100000F4403103EB5202B1EB024F06D194F8CC
:101D20002C1000F07060B0EB016F01D00120D1E702
:101D30000020CFE70438024000004742800E4742AF
:101D4000007000400000FFFF10B5401EB0F1807F22
:101D500001D3012010BD4FF0E02460610F21601716
:101D600003F0D5FC0020A06107202061002010BDF9
:101D70007047704710B590F83C20012A22D001220C
:101D800080F83C20CA688C6822F4407222434C6878
:101D900022F4806222430C6822F4006222430C6920
:101DA00022F4805222434C6922F400522243C96932
:101DB000002322F480420A4301684A6480F83C30E0
:101DC000002010BD022010BD70B590F83C20012A03
:101DD00032D0012480F83C40022280F83D20036884
:101DE0005A689D6822F070060A6832435A60134BA5
:101DF00002689A4214D0B2F1804F11D0104B9A422F
:101E00000ED0104B9A420BD00F4B9A4208D00F4B7A
:101E10009A4205D00E4B9A4202D00E4B9A4204D100
:101E2000496825F080031943916080F83D40002106
:101E300080F83C10084670BD022070BD00000140D3
:101E40000004004000080040000C00400004014075
:101E5000004001400018004010B5040003D094F881
:101E60003D0010B107E0012010BD002084F83C00C7
:101E7000204600F01FF8022084F83D00211D206854
:101E800002F062FD012084F8460084F83E0084F8E8
:101E90003F0084F8400084F8410084F8420084F850
:101EA000430084F8440084F8450084F83D00002095
:101EB00010BD0000F0B587B0044614216846FEF757
:101EC000CBF97C4B266800247A49103B02257A48DE
:101ED000B6F1804F14D0794A964244D1086840F058
:101EE000100008600868002200F0100005901146FC
:101EF0003620FFF757FC3620FFF746FC07B0F0BD51
:101F00000A6842F001020A60096801F001010591C6
:101F1000196841F001011960196801F0010105918A
:101F2000196841F002011960196802AA01F0020162
:101F300005912C21CDE90015012682E87000694643
:101F4000FFF7C8F90820CDE9000502AA694682E832
:101F500070005B48FFF7BEF9002211461C20FFF716
:101F600021FC1C20C8E7534A564F121DBE4218D10F
:101F7000106840F0020010601068002200F00200BB
:101F8000059011462B20FFF70DFC2B20FFF7FCFBE3
:101F9000002211462C20FFF705FC2C20FFF7F4FB54
:101FA00081E0494FBE4208D1106840F48030106093
:101FB000106800F480300590A0E7444FBE420ED177
:101FC000106840F4003010601068002200F4003007
:101FD000059011461920FFF7E5FB19208CE73C4FCF
:101FE000BE420ED1106840F48020106010680022BC
:101FF00000F48020059011461A20FFF7D3FB1A2029
:102000007AE7344A96420ED1086840F040000860F2
:102010000868002200F04000059011462B20FFF7D1
:10202000C1FB2B2068E72C4F0922BE421FD10E684E
:1020300046F080060E60096801F08001059119687C
:1020400041F001011960196801F001010591402179
:102050000091CDE90154CDE903426946FFF73AF911
:10206000002211462C20FFF79DFB2C2044E71B4F3C
:10207000BE42A1D10E6846F480760E60096801F474
:1020800080710591196841F001011960196801F02A
:102090000101059180210091CDE90154CDE9034270
:1020A0006946FFF717F9002211462D20FFF77AFB4A
:1020B0002D2021E74038024000000240001000407F
:1020C000000402400004014000400140004401407F
:1020D0000048014000180040001C00400020004063
:1020E00090F83D10012901D001207047022180F8AD
:1020F0003D100168CA6842F00102CA6000681149D7
:10210000884214D0B0F1804F11D00F4988420ED0D0
:102110000E4988420BD00E49884208D00D498842AA
:1021200005D00D49884202D00C49884204D181680B
:1021300001F00701062903D0016841F001010160A7
:1021400000207047000001400004004000080040EB
:10215000000C004000040140004001400018004015
:1021600070B5044690F83C000025012817D00126E0
:1021700084F83C60022084F83D002068826822F0E8
:10218000770222F47F4282600868502838D00DDC44
:1021900020284FD005DC90B3102811D14AE002204E
:1021A00070BD302846D040280AD13BE060282FD0AF
:1021B00070280DD0B0F5805F03D0B0F5005F12D06D
:1021C000012584F83D60002084F83C00284670BD5D
:1021D000CB68D1E90121206802F027FC20688168E2
:1021E00041F0770109E0CB68D1E90121206802F0D4
:1021F0001CFC2068816841F480418160E1E719E0BE
:10220000CA684968206802F0E5FC5021206806E0B1
:10221000CA684968206802F02FFD6021206802F03A
:102220000EFCCEE7CA684968206802F0D3FC402162
:102230002068F4E7226801461046F0E72DE9F041F6
:102240000D46040003D094F83D0018B108E00120C9
:10225000BDE8F081002084F83C00204600F040F802
:10226000022084F83D002068816844F2070291430F
:102270008160211D206802F067FB226890689169E7
:10228000166A2B68AF69034340F20330814341EA89
:102290000721A868EF6908434FF6FC418843E968C5
:1022A00040EA0720014328692F6A000140EA07300D
:1022B000084369686D6926F0AA0646EA05152943B0
:1022C00093602268906154F8460B0162012004F883
:1022D0001F09E0752076E0762077A0750020B7E72B
:1022E000F0B587B0044614216846FDF7B5FF4F48A6
:1022F000226800244E4902254E4E824240D14C486D
:102300001430026842F001020260006800F001002F
:102310000590086840F010000860086800F01000A0
:102320000590086840F0010008600868012700F087
:1023300001000590C8140090CDE90154CDE9034790
:1023400069463D48FEF7C6FFE8010090CDE901541B
:10235000CDE9034769463046FEF7BCFF002211462F
:102360001920FFF71FFA1920FFF70EFA0022114675
:102370001A20FFF717FA1A20FFF706FA07B0F0BD88
:102380002B482E4B10309A4216D1026842F00202BE
:102390000260006800F002000590086840F002004A
:1023A00008600868694600F002000590302000903F
:1023B000CDE90154224819E0224B9A421BD1026810
:1023C00042F004020260006800F004000590086812
:1023D00040F0080008600868694600F008000590B1
:1023E0004FF440500090CDE901541748CDE9034522
:1023F000FEF770FFC2E7154B9A42BFD1026842F068
:1024000008020260006800F008000590086840F0CB
:10241000010008600868694600F00100059003208B
:102420000090CDE901543046E0E700000000014093
:10243000303802400000024000100240000400401A
:102440000004024000080040000C0240000C004064
:1024500070B590F83E60044690F83F5090F84230D6
:1024600090F84320022021B104290ED0012E1BD167
:1024700014E0012E18D1012B16D184F83E0084F807
:10248000420001220021206820E0012D0CD1012A08
:102490000AD184F83F0084F8430014E0012D03D1F1
:1024A000012B01D1012A01D0012070BD84F83E002A
:1024B00084F83F0084F8420084F8430001220021A0
:1024C000206802F0A5FA01220421206802F0A0FA97
:1024D0002068016841F001010160002070BD00002A
:1024E0000D4A01681268914214D1007F012808D07A
:1024F000022809D004280AD008280BD1002002F0B5
:1025000039BF002002F05EBE002002F0EFBD0020C7
:1025100002F0C4BE70470000280100202DE9F04100
:10252000054690F83C0000260C46012810D00120FA
:1025300085F83C0072B1042A1CD0082A2CD00C2A41
:1025400050D00126002085F83C003046BDE8F081DF
:102550000220FBE7D4E90012E368286802F04CFB94
:102560002868816921F00C01816128688169A2686D
:1025700011430FE0D4E90012E368286802F08EFBF3
:102580002868816921F44061816128688169A268B5
:1025900041EA02218161D5E72868D4E9002C277B34
:1025A000016A21F480710162C169036A21F00301AB
:1025B00041EA0C0121F0F00C39074FF420674CEA96
:1025C000116123F4206307EA02221A43C161026207
:1025D0002868C16921F00C01C1612868C169A2683D
:1025E000114328E02868D4E90027E168036A23F44E
:1025F00080530362D0F81CC0036A2CF4407C4CEA80
:1026000007274FF6FF7C27F470470CEA0131394366
:102610004FF4204723F4204307EA02321A43C161F2
:1026200002622868C16921F44061C1612868C169FA
:10263000A26841EA0221C16184E710B5040003D019
:1026400094F83D0010B107E0012010BD002084F88F
:102650003C00204600F01EF8022084F83D00211DB9
:10266000206802F071F9012084F8460084F83E00E9
:1026700084F83F0084F8400084F8410084F8420068
:1026800084F8430084F8440084F8450084F83D0051
:10269000002010BD7047000030B50446002551B140
:1026A00004290DD0082910D094F8410094F8452051
:1026B000012811D10EE094F83E0094F84220F7E78B
:1026C00094F83F0094F84320F2E794F8400094F81F
:1026D0004420EDE7012A01D0012030BD022059B18C
:1026E000042912D0082919D084F8410084F8450043
:1026F0000C2944D0012540E084F83E0084F84200D3
:102700002068C26842F0020210E084F83F0084F8BA
:1027100043002068C26842F0040207E084F84000E9
:1027200084F844002068C26842F00802C2600122B6
:10273000206802F06DF914492068884214D0B0F185
:10274000804F11D0114988420ED0114988420BD0D8
:102750001049884208D01049884205D00F49884264
:1027600002D00F49884204D1816801F0070106298F
:1027700003D0016841F001010160284630BD2068A6
:10278000C26842F01002D1E700000140000400409E
:1027900000080040000C00400004014000400140DF
:1027A0000018004070B50446006801694FF000054C
:1027B000C943890715D4C168C943890711D4E91EE3
:1027C000016101202077206880698007204602D0BF
:1027D000FFF786FE04E000F015F9204600F0A7F9A7
:1027E000257720680169C943490717D4C168C943DF
:1027F000490713D46FF0040101610220207720689B
:10280000806910F4407F204602D0FFF769FE04E0A3
:1028100000F0F8F8204600F08AF925772068016971
:10282000C943090716D4C168C943090712D46FF018
:1028300008010161042020772068C06980072046D4
:1028400002D0FFF74DFE04E000F0DCF8204600F077
:102850006EF9257720680169C943C90617D4C16894
:10286000C943C90613D46FF0100101610820207715
:102870002068C06910F4407F204602D0FFF730FE88
:1028800004E000F0BFF8204600F051F925772068F9
:102890000169C943C90708D1C168C943C90704D13F
:1028A000891E0161204600F0A7F920680169C9432B
:1028B000090609D4C168C943090605D46FF080012F
:1028C00001612046FFF754FA20680169C9434906AF
:1028D00009D4C168C943490605D46FF040010161BC
:1028E000204600F0D2F920680169C94389060BD45B
:1028F000C168C943890607D46FF0200101612046F1
:10290000BDE87040FFF735BA70BD000070B586B005
:10291000044614216846FDF79FFC314823680022D5
:1029200030490224032583420ED1086840F0040098
:1029300008600868694600F00400059028020090CD
:10294000CDE90142284810E02848834214D10868A4
:1029500040F0100008600868694600F0100005901B
:1029600060200090CDE901422148CDE9032500BF58
:10297000FEF7B0FC06B070BD1E4E1F48B34209D131
:102980000B6843F002030B60096801F00201059136
:1029900081150BE0194EB3420DD10B6843F00203D1
:1029A0000B60096801F00201059171150091CDE9F4
:1029B00001426946D9E7124DAB42DBD10B6843F0C7
:1029C00002030B60096801F002010591E900009122
:1029D000CDE901420921CDE903216946C8E700009C
:1029E000000401403038024000080240004001402D
:1029F0000010024000440140000402400048014031
:102A000000180040704770B5044690F83C0000265E
:102A10000D4601280FD0012084F83C006AB1042A39
:102A20001DD0082A2FD00C2A3FD00126002084F880
:102A30003C00304670BD022070BD206802F008F8EE
:102A40002068816941F0080181612068816921F075
:102A500004018161206881692A69114311E02068BD
:102A600002F026F82068816941F4006181612068E4
:102A7000816921F480618161206881692A6941EA64
:102A800002218161D2E7206802F048F82068C1691C
:102A900041F00801C1612068C16921F00401C161F0
:102AA0002068C1692A69114311E0206802F06AF8C0
:102AB0002068C16941F40061C1612068C16921F4E5
:102AC0008061C1612068C1692A6941EA0221C1614E
:102AD000ACE710B5040003D094F83D0010B107E056
:102AE000012010BD002084F83C00204600F01EF8B4
:102AF000022084F83D00211D206801F025FF0120FF
:102B000084F8460084F83E0084F83F0084F84000D2
:102B100084F8410084F8420084F8430084F84400BB
:102B200084F8450084F83D00002010BD70477047D0
:102B300010B50446022249B104290ED0082913D049
:102B400094F84100012816D0012010BD94F83E00F1
:102B50000128F9D184F83E200FE094F83F000128C5
:102B6000F2D184F83F2008E094F840000128EBD12E
:102B700084F8402001E084F841200122206801F01F
:102B800047FF16492068164A884201D0904203D177
:102B9000436C43F4004343642068884213D0B0F18F
:102BA000804F10D00F4988420DD00F4988420AD07B
:102BB0000E49884207D0904205D00D49884202D084
:102BC0000C49884204D1816801F00701062903D02D
:102BD000016841F001010160002010BD00000140CA
:102BE000000401400004004000080040000C0040C8
:102BF000004001400018004010B515490446006827
:102C0000096888420BD1012002F0DCFA012002F0B1
:102C10006DFA012002F042FB012002F0ABFB0D49EE
:102C200020680968884211D1FEF756F80A480078F2
:102C300001280BD1094890ED000AB5EEC00AF1EE6B
:102C400010FA03D0BDE8104001F01CBA10BD00001E
:102C50002801002048020020000000205000002031
:102C60000246002041B1042909D008290AD00C29C4
:102C700001D11068006C70471068406B7047106895
:102C8000806B70471068C06B70477047704710B515
:102C900004460068406994F83D10C0F3C010212933
:102CA00011D180B12068143050E8001F21F080015C
:102CB00040E80012002AF5D1606B08B1FEF7EEF88B
:102CC000204602F0B5F82068406994F83E10C0F341
:102CD0008010222911D180B12068143050E8001FE3
:102CE00021F0400140E80012002AF5D1A06B08B1A4
:102CF000FEF7D4F8204602F074F8002010BD7047AB
:102D0000F8B5016804460868CA684B6910F00F0FEF
:102D10004FF0000559D003F0010602F490773743D5
:102D200065D0C10705D0D10503D5216C41F0010163
:102D30002164410705D5D90703D0216C41F0020178
:102D40002164810705D5D90703D0216C41F0040126
:102D50002164010707D502F02001314303D0216C23
:102D600041F008012164216C00293AD0800604D585
:102D7000900602D5204602F069F820684069216C6F
:102D8000C0F38010090700D460B3204602F029F890
:102D900020684069400621D52068143050E8001FA3
:102DA00021F0400140E80012002AF5D1A06BA8B143
:102DB0006C490165A06BFEF7BAF8002811D0A06B32
:102DC000016D01B0BDE8F040084783060FD59306BA
:102DD0000DD52046BDE8F84002F038B82046FFF790
:102DE0008EFFF8BD2046FFF78AFF2564F8BD266BED
:102DF0002023012E79D1C60677D5D60675D5086869
:102E0000486800904869400640D5A16B0868406852
:102E10000004000CEAD0A28D8242E7D9E085C8699F
:102E2000B0F5807F2DD020680C3050E8001F21F4D1
:102E3000807140E80012002AF5D12068143050E873
:102E4000001F21F0010140E80012002AF5D120689E
:102E5000143050E8001F21F0400140E80012002A21
:102E6000F5D184F83E30256320680C3050E8001F0F
:102E700021F0100140E80012002AF5D1A06BFEF706
:102E80000DF8A08DE18D401A81B229E0A08DE18D71
:102E9000401A81B2E08D0028A8D00029A6D0206871
:102EA0000C3050E8002F22F4907240E80026002EEB
:102EB000F5D12068143050E8002F22F0010240E8DC
:102EC0000026002EF5D184F83E30256320680C30B2
:102ED00050E8002F22F0100240E80023002BF5D12B
:102EE0002046FFF7D3FEF8BDFFE705062BD51506F4
:102EF00029D594F83D002128F5D1A068B0F5805F70
:102F000001D12069B0B1206A411C2162216800789A
:102F10004860E08C401E0004000CE084E3D120688F
:102F2000C16821F08001C1602068C16841F04001A2
:102F3000C160D8E7206A0088C0F308004860206AB2
:102F4000801C2062E5E74006CDD55006CBD5CA6887
:102F5000204622F04002CA6084F83D3000F084FA36
:102F6000C1E70000ED4C000870B5040004D094F8EF
:102F70003D00002510B106E0012070BD84F83C50F2
:102F8000204600F023F8242084F83D002068C16822
:102F900021F40051C160204601F0B8FF20680169AA
:102FA00021F4904101612068416921F02A014161C9
:102FB0002068C16841F40051C1602564202084F874
:102FC0003D0084F83E00002070BD00002DE9F04F68
:102FD00087B0044614216846FDF73EF9FF48DFF844
:102FE000F88310380221D4F800C0FC4B0322DFF82C
:102FF000F0E300258F0606154FF0080A4FF0400950
:10300000C44556D1D3F800C04CF4002CC3F800C01E
:103010001B6803F400230593036843F00403036073
:10302000006800F00400059090028DE82300CDE9CF
:10303000032A69467046FEF74DF9DFF8AC83E9498B
:103040004046C8F80010C0E90175C0E90356C8F849
:103050001450C8F81850C8F81C50C8F82050BA4688
:10306000C8F82450FEF746F808B1FDF733FEDE4FEE
:10307000C4F838806037C8F83840C7F80890C7E906
:1030800003567D61BD61D748FD613D6230307D6290
:10309000C7E9000A3846FEF72DF808B1FDF71AFE19
:1030A0006763002211463420BC63FEF77BFB3420AB
:1030B00077E0DFF83883C44579D1D3F800C0A8465B
:1030C0004CF4801CC3F800C01B6803F48013059304
:1030D000036843F004030360036803F004030593EB
:1030E000036843F00803036000688B4600F00800A3
:1030F00005904FF48050CDE900010320CDE9025046
:103100006946CDF810A07046FEF7E4F80420CDE93A
:10311000000B0320CDE902506946CDF810A0B44859
:10312000FEF7D8F8DFF8C0A2AE490AF1C00A30397C
:103130005046CAF80010C0E90175C0E90356CAF844
:103140001450CAF81850CAF81C50CAF82050CAF8CF
:103150002450FDF7CFFF08B1FDF7BCFDA148A54DF8
:10316000C4F838A07830CAF8384085E88102C5E94B
:103170000386C5F81480C5F81880C5F81C80C5F80A
:1031800020802846C5F82480FDF7B4FF08B1FDF77C
:10319000A1FD6563002211463520AC63FEF702FBFA
:1031A0003520FEF7F1FA07B0BDE8F08FFFE7DFF852
:1031B00048824FF0070AC4455ED1884BAB461B1DC1
:1031C000D3F800C04CF0100CC3F800C01B6803F02B
:1031D00010030593036843F001030360006800F0E7
:1031E000010005904FF4C0608DE82300CDE9032A6B
:1031F00069468248FEF76EF8DFF8F881804908F1E9
:1032000060084046C8F80010C0E90175C0E90356DF
:10321000C8F81450C8F81850C8F81C50C8F8205006
:10322000C8F82450FDF766FF08B1FDF753FD714D56
:103230007348C4F83880C0357830C8F8384085E81D
:103240008102C5E903B6C5F814B0C5F818B0C5F8D1
:103250001CB0C5F820B02846C5F824B0FDF74AFFD9
:1032600008B1FDF737FD6563002211462520AC63E8
:10327000FEF798FA252094E7DFF88881C4455AD1F3
:10328000D3F800C0A8464CF4003CC3F800C01B684B
:1032900003F400330593036843F0080303600068F8
:1032A00000F00800059060208DE82300CDE9032A96
:1032B00069464F48FEF70EF84A49DFF84CA14831FD
:1032C0005046CAF80010C0E90175C0E90356CAF8B3
:1032D0001450CAF81850CAF81C50CAF82050CAF83E
:1032E0002450FDF707FF08B1FDF7F4FC464D3D48BB
:1032F000C4F838A060356030CAF8384085E88102EB
:10330000C5E90386C5F81480C5F81880C5F81C8087
:10331000C5F820802846C5F82480FDF7EBFE08B1EB
:10332000FDF7D8FC6563002211462620AC63FEF74A
:1033300039FA262035E7DFF8D480C4457FF433AF6F
:10334000D3F800C0A8464CF4802CC3F800C01B681A
:1033500003F480230593036843F0080303600068C7
:1033600000F0080005904FF440708DE82300CDE98F
:10337000032A69461E48FDF7ADFFDFF88CA0194906
:103380000AF1C00A18395046CAF80010C0E90175A0
:10339000C0E90356CAF81450CAF81850CAF81C50AD
:1033A000CAF82050CAF82450FDF7A4FE08B1FDF772
:1033B00091FC0C48164DC4F838A01830CAF83840B3
:1033C00085E88102C5E90386C5F81480C5F8188030
:1033D000C5F81C801EE00000004C00404038024050
:1033E0000008024040600240DC0500200050004020
:1033F000000C0240FC0600200010014000000240CA
:1034000040640240004400401C0800200048004086
:103410003C090020C5F820802846C5F82480FDF727
:1034200069FE08B1FDF756FC6563002211462720AE
:10343000AC63FEF7B7F92720B3E690F83E30202BB7
:103440000ED159B152B190F83C30012B08D0012374
:1034500080F83C300023036301F0DEBD012070479B
:1034600002207047704770477047FEE70F4950F8D9
:103470000B2F0A6042684A6002890A81807A88724A
:103480004878532810D1B1F90600DFED090A00EEA3
:10349000100A0948B8EEC00A20EE200ADFED050A3E
:1034A00020EE200A80ED000A70470000F81100208D
:1034B00000000038000034435400002010EE100AD1
:1034C0000649884202DD9FED060A7047B5EEC00A44
:1034D000F1EE10FAF9D29FED030A704700007F4326
:1034E00000007F43000000000D4810B50B4901604B
:1034F0001021416000218160C1600161416101765C
:1035000041768176C17601774177FDF7F5FB00289A
:1035100003D0BDE81040FDF7DDBB10BD00640040E6
:1035200064000020314808B5016841F400110160D1
:10353000016801F400110091016841F4800101600B
:103540000068002200F48000009011460B20FEF776
:1035500029F90B20FEF718F9002211460C20FEF77E
:1035600021F90C20FEF710F9002211460D20FEF77C
:1035700019F90D20FEF708F9002211460E20FEF77A
:1035800011F90E20FEF700F9002211460F20FEF778
:1035900009F90F20FEF7F8F8002211461020FEF777
:1035A00001F91020FEF7F0F8002211461120FEF775
:1035B000F9F81120FEF7E8F8002211462F20FEF757
:1035C000F1F82F20FEF7E0F8002211463A20FEF72E
:1035D000E9F83A20FEF7D8F8002211464620FEF717
:1035E000E1F8BDE808404620FEF7CEB8303802408A
:1035F0002DE9F04F87B014216846FCF72DFE664890
:103600000024016841F010010160016801F010011F
:103610000591016841F004010160016801F00401B5
:103620000591016841F080010160016801F08001AD
:103630000591016841F001010160016801F001019B
:103640000591016841F002010160016801F0020189
:103650000591016841F0080101600068DFF83CA1B4
:1036600000F0080048F2F307059000223946504662
:10367000FDF72DFF002210214948FDF728FF012208
:1036800011464848FDF723FF002204214548FDF775
:103690001EFFDFF814B14DF2835800224146584610
:1036A000FDF715FF4FF44C49012249463F48FDF70D
:1036B0000EFF1C204FF40416CDE9000601256946D3
:1036C00002955846FDF706FE0097CDE9015469467C
:1036D00050460394FDF7FEFD0C20CDE90004694639
:1036E00050460294FDF7F6FD10200090CDE90154FC
:1036F00069462B480394FDF7EDFD05200090CDE9C8
:103700000154694627480394FDF7E4FDCDF8008095
:10371000CDE90154694658460394FDF7DBFDCDF829
:103720000090CDE90154694620480394FDF7D2FD8D
:103730004FF41040CDE90004694619480294FDF7A2
:10374000C9FD8020CDE90006694602951748FDF7BE
:10375000C1FD002211460820FEF724F80820FEF7DC
:1037600013F8002211460920FEF71CF80920FEF785
:103770000BF8002211460A20FEF714F80A20FEF783
:1037800003F8002211461720FEF70CF81720FDF76A
:10379000FBFF07B0BDE8F08F303802400008024060
:1037A000000002400004024000100240000C0240F1
:1037B0000D4810B50B4901600C49416000214FF4E0
:1037C00080428160C0E9031241618161C16101628F
:1037D000FDF788FE002803D0BDE81040FDF77ABA57
:1037E00010BD0000005400408C000020A0860100A5
:1037F00010B588B01C216846FCF72EFD1548144909
:1038000000240160A721C0E9011441F61F41C0E96D
:1038100003148461FEF720FB08B1FDF75BFA0D4845
:10382000FFF757F908B1FDF755FA6020CDE900041C
:1038300002940022694607480494FFF7E4F808B1AF
:10384000FDF748FA0348FFF761F808B010BD000023
:10385000004401402003002010B588B01C216846B8
:10386000FCF7FAFC1548144900240160A721C0E9BF
:10387000011441F61F41C0E903148461FEF7ECFA1C
:1038800008B1FDF727FA0D48FFF723F908B1FDF756
:1038900021FA6020CDE9000402940022694607481D
:1038A0000494FFF7B0F808B1FDF714FA0348FFF7E6
:1038B0002DF808B010BD000000480140680300204A
:1038C00010B58CB000240794089409941C21684614
:1038D0000A94FCF7C1FC1E481C4901605321C0E951
:1038E000011441F61F41C0E903148461FEF7B4FAE4
:1038F00008B1FDF7EFF94FF48050079007A914487D
:10390000FEF72EFC08B1FDF7E5F91148FFF7E1F8E5
:1039100008B1FDF7DFF96020CDE900040294002230
:1039200069460B480494FFF76EF808B1FDF7D2F929
:10393000042269460648FFF766F808B1FDF7CAF9A0
:103940000348FEF7E3FF0CB010BD00000018004074
:10395000B00300201FB50024144800940194029481
:1039600011490394C0E900144FF6FF71C0E9024108
:1039700004618461FEF770FA08B1FDF7ABF90B48FA
:10398000FEF75BFE08B1FDF7A5F90120CDE9004087
:1039900002940022694605480394FEF7BFFD002803
:1039A00001D0FDF797F91FBD001C0040F80300206F
:1039B0001FB5002414480094019402941149039403
:1039C000C0E900144FF6FF71C0E90241046184614F
:1039D000FEF742FA08B1FDF77DF90B48FEF72DFE20
:1039E00008B1FDF777F90120CDE9004002940022EB
:1039F000694605480394FEF791FD002801D0FDF7C4
:103A000069F91FBD002000404004002010B58CB0B3
:103A100024216846FCF720FC002416480994144928
:103A20000A94C0E900144FF6FF71C0E90241046135
:103A3000446184610320CDE900040120CDE9020442
:103A40000494CDE90540079469460A480894FEF7B6
:103A5000F5FB08B1FDF73EF9099409A905480A9458
:103A6000FEF7B2F9002801D0FDF734F90CB010BD13
:103A700000000140E000002010B58AB000242E486C
:103A8000049405940694079408940994009401946E
:103A900002944FF08041039401605321C0E9011466
:103AA0004FF6FF71C0E9031480218161FEF7D4F95C
:103AB00008B1FDF70FF94FF48050049004A91E4897
:103AC000FEF74EFB08B1FDF705F91B48FEF7B5FD03
:103AD00008B1FDF7FFF8089408A917480994FEF704
:103AE00073F908B1FDF7F6F80120CDE90040029422
:103AF0000022694610480394FEF710FD08B1FDF757
:103B0000E9F8042269460C48FEF708FD08B1FDF704
:103B1000E1F8082269460848FEF700FD08B1FDF704
:103B2000D9F80C2269460448FEF7F8FC002801D0B9
:103B3000FDF7D0F80AB010BD2801002010B58CB0F8
:103B400024216846FCF788FB002416480994144990
:103B50000A94C0E900144FF6FF71C0E90241046104
:103B600084610320CDE900040120CDE9020404941E
:103B7000CDE90540079469460A480894FEF75EFBC4
:103B800008B1FDF7A7F8099409A906480A94FEF7B9
:103B90001BF9002801D0FDF79DF80CB010BD000006
:103BA000000400407001002010B58CB0242168464C
:103BB000FCF752FB00241648099414490A94C0E902
:103BC00000144FF6FF71C0E90241046184610320D3
:103BD000CDE900040120CDE902040494CDE90540BB
:103BE000079469460A480894FEF728FB08B1FDF7D8
:103BF00071F8099409A906480A94FEF7E5F8002827
:103C000001D0FDF767F80CB010BD000000080040BF
:103C1000B801002010B58CB024216846FCF71CFBCD
:103C200000241548099413490A94C0E90014611E40
:103C3000C0E90241046184610320CDE90004012050
:103C4000CDE902040494CDE90540079469460A4889
:103C50000894FEF7F3FA08B1FDF73CF8099409A9B6
:103C600005480A94FEF7B0F8002801D0FDF732F8B5
:103C70000CB010BD000C0040000200201CB5002458
:103C80000F4800940D490194016040F24731C0E9AA
:103C9000011440F2E731C16080218161FEF7DCF858
:103CA00008B1FDF717F80094694605480194FEF73E
:103CB0008BF8002801D0FDF70DF81CBD0010004066
:103CC0004802002010B596B000240F94109411946F
:103CD000129413941C2168461494FCF7BDFA202119
:103CE00007A8FCF7B9FA2C482A490160A721C0E9C6
:103CF000011441F61F41C0E9031444618461FEF7D9
:103D0000ABF808B1FCF7E6FF4FF480500F900FA915
:103D10002148FEF725FA08B1FCF7DCFF1E48FEF744
:103D2000D8FE08B1FCF7D6FF139413A91A481494CF
:103D3000FEF74AF808B1FCF7CDFF6020CDE900049A
:103D40000294039404940594082269461248069448
:103D5000FEF759FE08B1FCF7BDFF0C2269460E487C
:103D6000FEF751FE08B1FCF7B5FF079408940994DB
:103D70004FF400500A94CDE90B4007A906480E9471
:103D8000FDF7F8FF08B1FCF7A5FF0348FEF7BEFDFD
:103D900016B010BD000401409002002010B58CB098
:103DA00000240794089409941C2168460A94FCF79F
:103DB00053FA1E481C490160A721C0E901144FF6BF
:103DC000FF71C0E903148461FEF746F808B1FCF7FF
:103DD00081FF4FF48050079007A91448FEF7C0F9FF
:103DE00008B1FCF777FF1148FEF773FE08B1FCF746
:103DF00071FF6020CDE900040294002269460B485F
:103E00000494FEF700FE08B1FCF764FF0422694643
:103E10000648FEF7F8FD08B1FCF75CFF0348FEF723
:103E200075FD0CB010BD000000400140D80200201C
:103E30000C4810B50A4901604FF416514160002149
:103E400081600C22C160C0E904128161C161FFF789
:103E50008BF8002803D0BDE81040FCF73BBF10BD35
:103E6000004C0040880400200C4810B50A4901604D
:103E70004FF4E1314160002181600C22C160C0E952
:103E800004128161C161FFF76FF8002803D0BDE81B
:103E90001040FCF71FBF10BD00500040CC040020B4
:103EA0000C4810B50A4901604FF4E131416000212E
:103EB00081600C22C160C0E904128161C161FFF719
:103EC00053F8002803D0BDE81040FCF703BF10BD35
:103ED00000100140100500200C4810B50A4901608F
:103EE0004FF4E1314160002181600C22C160C0E9E2
:103EF00004128161C161FFF737F8002803D0BDE8E3
:103F00001040FCF7E7BE10BD0044004054050020FF
:103F10000C4810B50A4901604FF416514160002168
:103F200081600C22C160C0E904128161C161FFF7A8
:103F30001BF8002803D0BDE81040FCF7CBBE10BD35
:103F40000048004098050020FEE700002DE9F047FA
:103F50000E46074641F69C0148421C4615468F42D4
:103F600001DD0F4602E0874200DA07468E4201DD9E
:103F70000E4602E0864200DA06468D4201DD0D461D
:103F800002E0854200DA05468C4201DD0C4602E083
:103F9000844200DA0446DFF8D480002F06DB0122D9
:103FA00011464046FDF793FA002205E00022012168
:103FB0004046FDF78CFA012202214046FDF787FAC0
:103FC000002E06DB012210214046FDF780FA002278
:103FD00005E0002210214046FDF779FA0122202158
:103FE0004046FDF774FADFF88890DFF88880002DEE
:103FF00006DB012280214046FDF769FA002205E038
:10400000002280214046FDF762FA01220421484641
:10401000FDF75DFA002C06DB012202214046FDF788
:1040200056FA002205E0002202214046FDF74FFA31
:10403000012201214046FDF74AFA002F00DA7F42B3
:104040000D4800684763002E00DA76420B4800688E
:104050004663002D00DA6D4209480168CD63002CEB
:1040600000DA644200680464BDE8F087000802409A
:1040700000040240001002402003002068030020DA
:10408000900200201448C078112824D2DFE800F004
:10409000090B0F13171B1F232323230D1115191DA4
:1040A000210000F013BA02F04FBB01F085BD02F011
:1040B0009BBC01F06FBE02F0CBBD01F0C7BF02F0A8
:1040C00003BF02F0AFB803F041B802F087B903F0C4
:1040D00079B902F073BA70474400002010B52DED95
:1040E000088BDFED5E8AF0EE682A9FED5D9AB0EEF8
:1040F000492ADFED5C9AF0EE691A9FED5B8AB0EE1B
:10410000481A9FED5AAAF0EE4A0ADFED59AA01219A
:104110005848B0EE6A0A00F09BF9F0EE682AB0EE5B
:10412000492AF0EE691AB0EE481A9FED53BA514889
:10413000B0EE6A0AF0EE4B0A0121503000F088F927
:10414000F0EE682AB0EE492AF0EE691AB0EE481A8D
:10415000F0EE4B0A9FED490A46480121A03000F0DD
:1041600077F9F0EE682AB0EE492AF0EE691AB0EE5F
:10417000481AF0EE4A0A9FED420A3E480121F0300B
:1041800000F066F9DFED3F8A9FED3F1AF0EE480A36
:10419000F0EE682AB0EE682AF0EE681A9FED3B0A4E
:1041A00001213B4800F054F99FED3A9AB0EE481ACD
:1041B000F0EE480AF0EE492AB0EE492AF0EE491A2C
:1041C0009FED350A0121354800F042F93348F0EE01
:1041D000492AB0EE492AF0EE491AB0EE481AF0EE3C
:1041E000480AB3EE000A0121503000F031F92B48A3
:1041F000F0EE682AB0EE682AF0EE681AB0EE481ABF
:10420000F0EE480ABBEE070A0121A03000F020F9C9
:10421000DFED231A2148F3EE042AB0EE612AB0EE56
:10422000481AF0EE480AB0EE480A0121F03000F0DA
:104230000FF9F0EE682AB0EE682AF0EE681AB0EED8
:10424000481AF0EE480ABDEC088BB3EE090A0121CA
:10425000BDE81040134800F0FBB8000000004843E0
:1042600000409C450080BB4500000000B81E053F93
:104270009A99F941780C002014AE073F9A990442AC
:1042800033B300420000C8426F12833A6666263F8D
:10429000B80D00200000F0420000ACC1080E002064
:1042A00000007042480F002010B5084800F0EEF8FA
:1042B0000648503000F0EAF80448A03000F0E6F874
:1042C0000248BDE81040F03000F0E0B8780C002063
:1042D000FEE7000010B590ED121A044680ED131AA7
:1042E000D0ED110AB7EE002AC0ED120A90ED070AD0
:1042F000D0ED081A534830EE610AD0ED001A32EEC4
:10430000612A20EE020A01EEA00A84ED110A20784B
:10431000012802D002285FD05BE0D4ED010A60EEF4
:10432000800AC4ED0B0A03F001FBD4ED060AB4EEDB
:10433000E00AF1EE10FA09D294ED0C0AD4ED020A6B
:1043400094ED111A00EE810A84ED0C0AD4ED0C0AEA
:1043500094ED050AF4EEC00AF1EE10FA06DCB1EEB7
:10436000400AF4EEC00AF1EE10FA01D284ED0C0A14
:10437000D4ED090A94ED080A9FED331A84ED090A79
:1043800070EEC00A94ED0E0A84ED0F0A20EE010AC9
:104390009FED2E1A00EE810A84ED0E0AD4ED030A79
:1043A00020EE800A84ED0D0AD4ED0B0A94ED0C1A70
:1043B00070EE810A30EE800A3AE000BFC4ED0A0ACE
:1043C00007E000BFF1EE600AB4EEE00AF1EE10FA89
:1043D000F4D394ED0A0A10BD70EE601A94ED012A30
:1043E00061EE821AC4ED0B1A94ED022A22EE002A25
:1043F00084ED0C2AD4ED0F2AC4ED102AD4ED0E2A38
:10440000C4ED0F2AF0EE002A00EEE20A30EE010AB7
:1044100084ED0E0AD4ED030A20EE800A71EE820AC2
:1044200084ED0D0A30EE800AD4ED0A0A30EE200A3F
:1044300084ED0A0AD4ED040AB4EEE00AF1EE10FAB3
:10444000C0DDBBE7340000209A99993E3333333FF7
:1044500000F8041BA0EC060A9FED0B0A80ED090A88
:1044600080ED080A80ED070A80ED030A80ED060A58
:1044700080ED050A80ED040A80ED0C0A80ED0B0A40
:1044800080ED0A0A70470000000000009FED0D0A51
:1044900080ED130A80ED120A80ED110A80ED100AFA
:1044A00080ED0F0A80ED0E0A80ED0D0A80ED0C0AFA
:1044B00080ED0B0A80ED0A0A80ED070A80ED080AFC
:1044C0007047000000000000704770472DE9F05F62
:1044D0002DED048B9FEDBD8ABD4C2079DFEDBD8AAB
:1044E000BD4FBE4DDFF8F8924FF4004A4FF001087F
:1044F00078B300266FF07E5B012866D002287DD05D
:1045000003285ED14FF4A0720021052003F0DCFAED
:1045100000EE100A4FF4806A0022F8EEC08A51467D
:104520003846FCF7D4FF2820FCF711FA0122514647
:104530003846FCF7CCFFD5ED020A10EE900A58443D
:10454000B0F1027F7ED2B1EE0C0A022003F05CFBD8
:104550001FE1FFE74FF496720021052003F0B4FA43
:1045600000EE100AB8EEC09A03F092FB09EE288A1A
:10457000FDEEC80A10EE900AFDEEC90A10EE901A80
:1045800003F056F90022564651463846FCF79FFF85
:104590002820FCF7DCF9012231463846FCF797FF6A
:1045A00099ED010A03F0C2F910EE100A8D49884214
:1045B00007DD8D496868884203DAFCF7DFF984F883
:1045C0000480BDEC048BBDE8F09F002251463846C4
:1045D000FCF77DFF2820FCF7BAF901225146384646
:1045E000FCF775FFD5ED010A10EE900A00EB0B0108
:1045F0007E48814208D2B1EE0E0A00E05CE0012064
:1046000003F014FBB0EE408A4FF496710A460A207C
:1046100003F05AFA00EE100AB8EEC09A03F038FB25
:1046200009EE288AFDEEC80A10EE900AFDEEC90ACE
:1046300010EE901A03F0FCF84FF48049002249462E
:10464000384600E09FE0FCF742FF2820FCF77FF9A6
:10465000012249463846FCF73AFF022003F0E8F908
:10466000002003F0E5F95A4818308178012901D07B
:1046700059B114E00078012811D1A07878B9607898
:10468000401C607084F8028009E0007838B958490D
:104690002868884203DDA078012800D1A6706078E0
:1046A00004288ED103F0E4FAFCF768F9FFF7FCFD6B
:1046B0006670A67002205FE0002251463846FCF783
:1046C00006FF2820FCF743F9012251463846FCF743
:1046D000FEFED5ED010A10EE900A00EB0B014348F7
:1046E000814206D2B1EE0E0A012003F09FFAB0EE2D
:1046F000408AB4224FF49671052003F0E5F900EEEC
:10470000100AB8EEC09A03F0C3FA09EE288AF0EE58
:10471000409AFDEEC90A10EE901ABDEEC80A10EEDE
:10472000100AB0EE690A03F083F8002003F080F964
:10473000022003F07DF926481830017819B98078F5
:1047400008B92078D0B120780128AAD199ED010AC2
:1047500003F0ECF810EE100A264988427FF731AFDB
:1047600026706671FFF7A0FDB0EE690A6FF00901CF
:10477000002003F05DF80320207122E7FCF7FEF82B
:1047800084F80080E2E7D9ED010AB1EE040A02F0F4
:104790004BFFB0EE408A03F07BFAFDEEC80A10EE44
:1047A000901AFDEEE80A10EE900A03F041F899ED38
:1047B000000A03F0BBF810EE100A0F498842DCDD56
:1047C000FCF7DCF8267184F80380FAE600000000AC
:1047D00044000020EC51B83D000C024004120020BF
:1047E000F80B00200000A04100004842FFFF070234
:1047F0000000F0410000A04000002042FCF76ABF2A
:1048000030B593B030216846FBF726FD14210CA883
:10481000FBF722FD1D480025016841F08051016031
:10482000006800F0805011901948016841F48041FF
:1048300001600068022400F4804011900120039080
:1048400010200490009406940820CDE90750A82079
:10485000CDE9090404200B906846FDF7BFF808B1C4
:1048600072B6FEE70CA90F2081E831004FF4A0508A
:104870000F904FF48050109005210CA8FCF7C4FF56
:10488000002801D072B6FEE713B030BD40380240B8
:10489000007000400248016841F4700101607047F7
:1048A00088ED00E010B50448FDF77CFFBDE810403E
:1048B0000248FDF777BF0000E000002068030020F9
:1048C00010B50448FDF76EFFBDE810400248FDF743
:1048D00069BF0000E0000020200300200148FDF730
:1048E00061BF0000280100200148FDF75BBF000008
:1048F0004802002010B50448FDF754FFBDE8104001
:104900000248FDF74FBF000090020020B0030020D6
:1049100010B50448FDF746FFBDE810400248FDF71A
:1049200041BF0000900200204004002010B5044860
:10493000FDF738FFBDE810400248FDF733BF000027
:1049400090020020F8030020F0B50268254C264DA7
:10495000264E274F274B4FF0804CA04209D0604590
:1049600007D0A84205D0B04203D0B84201D0984247
:1049700004D122F0700E4A6842EA0E02A0421BD017
:10498000604519D0A84217D0B04215D0B84213D014
:10499000984211D0184DA8420ED0184DA8420BD005
:1049A000174DA84208D0174DA84205D0164DA84271
:1049B00002D0164DA84203D122F44075CA682A439A
:1049C0004D6922F080022A4302608A68C2620A6846
:1049D0008262A04201D0984201D10969016301219C
:1049E0004161F0BD000001400004004000080040AB
:1049F000000C004000040140004001400044014020
:104A00000048014000180040001C00400020004009
:104A100010B501F01F030121046A99408C43046220
:104A2000016A9A401143016210BD10B5846842EAE0
:104A3000032224F47F440A432243826010BD82682B
:104A400022F070020A4342F00701816070470000C3
:104A5000F0B5026A22F001020262036A42688469C8
:104A6000124E24F073050C682C4323F002058B686A
:104A70002B430D4DA84201D0B04205D123F00807C9
:104A8000CB683B4323F00403A84201D0B04205D1D8
:104A90004D6922F4407215438A692A434260846159
:104AA000496841630362F0BD000001400004014019
:104AB000F0B5026A22F010020262026A4368846959
:104AC0000D6824F4E64444EA05248D6822F02002AF
:104AD00042EA05120F4D104EA84201D0B04206D155
:104AE000CF6822F0800242EA071222F04002A84278
:104AF00001D0B04207D14D6923F4406343EA8503F6
:104B00008D6943EA85034360846149688163026279
:104B1000F0BD00000000014000040140F0B5026A51
:104B200022F480720262026A4368C46922F400724D
:104B300024F073050C68124E2C438D6842EA05225E
:104B40000E4DA84201D0B04206D1CF6822F40062D7
:104B500042EA072222F48062A84201D0B04207D183
:104B60004D6923F4405343EA05138D6943EA051365
:104B70004360C4614968C1630262F0BD0000014046
:104B80000004014030B5026A22F480520262046AD5
:104B90004268C3690D6823F4E64343EA05238D6840
:104BA00024F4005444EA0534084DA84202D0084DCC
:104BB000A84204D14D6922F4804242EA8512426043
:104BC000C36149680164046230BD00000000014017
:104BD0000004014010B5036A046A24F00104046271
:104BE000846924F0F00444EA021423F00A020A4320
:104BF0008461026210BD000070B5046A24F00104F3
:104C000004628469056A154EB04214D0B0F1804F39
:104C100011D0134EB0420ED0124EB0420BD0124EF5
:104C2000B04208D0114EB04205D0114EB04202D071
:104C3000104EB04203D124F00304144301E044F0C9
:104C400001041A0724F0F00444EA126225F00A0372
:104C500001F00A0119438261016270BD0000014048
:104C60000004004000080040000C00400004014027
:104C7000004001400018004010B5036A23F0100303
:104C800003628369046A23F4704343EA023224F026
:104C9000A00343EA01118261016210BD30B5046ACC
:104CA00024F0100404628469056A24F4407444EA20
:104CB000022222F470444FF6FF7202EA03322243CA
:104CC000A02425F0A00304EA0111194382610162C6
:104CD00030BD00000148FEF713B800008804002032
:104CE0000148FEF70DB80000CC04002010B5806B21
:104CF0000021C185C184FEF702F810BD70B5846B38
:104D00002068406994F83D10C0F3C01000252129A7
:104D100004D118B1E584204600F08AF82068406983
:104D200094F83E10C0F38010222904D118B1E58513
:104D3000204600F056F8206C40F010002064204619
:104D4000FDF7DDFF70BD10B50146806B096809688D
:104D5000C9052FD40021C18501680C3151E8002F0D
:104D600022F4807241E80023002BF5D10168143150
:104D700051E8002F22F0010241E80023002BF5D179
:104D80000168143151E8002F22F0400241E800236D
:104D9000002BF5D1202180F83E10016B012909D1AB
:104DA00001680C3151E8002F22F0100241E8002385
:104DB000002BF5D1016B012902D0FEF753FB10BD8A
:104DC000818DFDF763FF10BD10B5806B016B01296C
:104DD00002D0FEF748FB10BD818D4908FDF756FF54
:104DE00010BD01680C3151E8002F22F4907241E8A7
:104DF0000023002BF5D10168143151E8002F22F077
:104E0000010241E80023002BF5D1016B012909D1F2
:104E100001680C3151E8002F22F0100241E8002314
:104E2000002BF5D1202180F83E100021016370474E
:104E300001680C3151E8002F22F0C00241E8002344
:104E4000002BF5D1202180F83D10704708B590F86F
:104E50003E10222901D0022008BD82684FF4805301
:104E60009A4201D1016921B1816A9A421BD04AB1AB
:104E70000AE00268816A5268C2F308020A80816A05
:104E8000891C08E0026972B10268526802F07F0270
:104E90000A70816A491C8162C18D491E0904090C8E
:104EA000C18503D019E002685268F1E70168CA6859
:104EB00022F02002CA600168CA6822F48072CA60C7
:104EC00001684A6922F001024A61202180F83E10FF
:104ED000016B012903D0FEF7C5FA002008BD0021AF
:104EE000016301680C3151E8002F22F0100241E803
:104EF0000023002BF5D101680A68D20602D50A68A2
:104F000049680091818DFDF7C1FEE6E770B5044662
:104F100000680169E26821F440511143016121698F
:104F2000A068E26908436169114308432168CA68BF
:104F300049F20C639A430243CA6020684169A2693E
:104F400021F440711143416131492068884202D007
:104F50003049884202D1FCF701FD01E0FCF7EEFC8C
:104F6000E2690023192164253226B2F5004F6268F8
:104F700028D0A0FB0101930F9200FBF723F9014613
:104F8000B0FBF5F06FF01802504301EB800006EB28
:104F90000010B0FBF5F000F0F002B1FBF5F002EB11
:104FA0000012B1FBF5F06FF01803584301EB8000DD
:104FB00006EB0010B0FBF5F000F00F002168104484
:104FC000886070BDA0FB010192185B41FBF7FAF805
:104FD0000146B0FBF5F00201B1FBF5F06FF01803EC
:104FE000584301EB800006EBC000B0FBF5F000F089
:104FF000F80002EB4002B1FBF5F0584301EB8000F2
:1050000006EBC000B0FBF5F000F00700D6E70000AB
:10501000001001400014014038B5816282850025EE
:10502000134604460564222084F83E00A26B1C4807
:10503000D063A26B1B481064A26B1B48D064A06BAA
:105040000A4605652168A06B091DFCF7BDF82068BC
:1050500001684068009084F83C50206948B120689D
:105060000C3050E8001F41F4807140E80012002A23
:10507000F5D12068143050E8001F41F0010140E8EC
:105080000012002AF5D12068143050E8001F41F0CA
:10509000400140E80012002AF5D1002038BD000090
:1050A000474D0008C94D0008FD4C0008084808B5E8
:1050B00000680168C943C90604D4016840680090CB
:1050C00000F0E6FABDE808400148FDF719BE00000F
:1050D000100500200148FDF713BE00005405002014
:1050E0000148FDF70DBE00009805002070B52F4C5B
:1050F000217B0A060ED42E4D002660B1012809D16D
:10510000480607D588074DD526732868016A0162CD
:10511000701E206170BD480631D541F080002073BB
:1051200004212348FDF79CFD80B2E082217B9FEDA6
:10513000211A01F03F0100EB0140A18A401A00EE64
:10514000100A2061F8EE400A80EE810AFEF7B6F9F7
:1051500019481A4BB3EE0E1A80ED010A1348DFED21
:10516000180A012207218C3800F076F92673286886
:10517000016A21F0A00101622868016A10E041F093
:105180004000207304210A48FDF76AFDA0822868C8
:10519000016A21F0A00101622868016A41F0200142
:1051A000016270BD491C217370BD0000C811002050
:1051B000280100200000664214120020081200207E
:1051C00000007F4370B52E4C21780A060ED42D4D79
:1051D000002660B1012809D1480607D588074CD5BB
:1051E00026702868016A0162701E606070BD480602
:1051F00030D541F08000207000212248FDF730FDBD
:1052000080B2608121789FED201A01F03F0100EB10
:1052100001402189401A00EE100A6060F8EE400A51
:1052200080EE810AFEF74AF91848194BB3EE0E1AC0
:1052300080ED000ADFED170A01220721164800F071
:105240000BF926702868016A21F00A0101622868BA
:10525000016A10E041F04000207000210948FDF78C
:10526000FFFC20812868016A21F00A010162286898
:10527000016A41F00201016270BD491C217070BDDC
:10528000C8110020280100200000664214120020EE
:105290000412002000007F43B010002070B52E4C97
:1052A000217E0A060ED42D4D002660B1012809D1B9
:1052B000480607D588074CD526762868016A01621A
:1052C000701EE06170BD480630D541F08000207648
:1052D00008212248FDF7C4FC80B26084217E9FED46
:1052E000201A01F03F0100EB0140218C401A00EE32
:1052F000100AE061F8EE400A80EE810AFEF7DEF85F
:105300001848194BB3EE0E1A80ED020ADFED170AAA
:1053100001220721164800F09FF826762868016AC6
:1053200021F4206101622868016A10E041F0400028
:10533000207608210948FDF793FC20842868016A3B
:1053400021F4206101622868016A41F40071016260
:1053500070BD491C217670BDC811002028010020B5
:1053600000006642141200200C12002000007F434F
:10537000980F002070B5314C94F824100A060FD411
:105380002F4D002668B101280AD1480608D58807A4
:105390004FD584F824602868016A0162701EA062FB
:1053A00070BD480631D541F0800004F8240F0C216F
:1053B0002348FDF755FC80B2608121789FED211ACA
:1053C00001F03F0100EB01402189401A00EE100A74
:1053D0006060F8EE400A80EE810AFEF76FF81A4826
:1053E0001A4BB3EE0E1A80ED030ADFED190A012203
:1053F0000721184800F030F826702868016A21F467
:10540000204101622868016A11E041F0400084F8FF
:1054100024000C210A48FDF723FCA0852868016AB6
:1054200021F4204101622868016A41F400510162BF
:1054300070BD491C84F8241070BD0000C811002004
:1054400028010020000066421412002010120020E3
:1054500000007F43241000202DE9F0410D462DED82
:10546000048BA0B004469846B0EE419AF0EE609AE4
:105470001646B0EE408A0027DFED528A802168464A
:10548000FAF7EAFE002C27D0B8F1000F24D0202D27
:1054900001D9202502E0032D00D20325B6EB550FDC
:1054A00000D30126207804EB8001401C207081EDA0
:1054B000038A2078A84204D3002020700120607065
:1054C00001E0607810B12178684619E088ED008A23
:1054D00084ED018A84ED028A20B0BDEC048BBDE826
:1054E000F08100BF04EB8102491C92ED030A00EB3E
:1054F0008702C9B282ED000AA94200D300217F1CB5
:10550000AF42EFD30022A5F1010C16E00021AF1A43
:105510007F1E0FE000EB810393ED000A93ED011A6B
:10552000B4EEC10AF1EE10FA03DD83ED001A83ED4B
:10553000010A491C8F42EDD8521C6245E6D37142E4
:1055400005EB4101C9B2AA1B07E000BF00EB8603CF
:10555000761C93ED000A70EE288AB242F6D800EE6F
:10556000101AB8EE400A88EE808AB0EE480A02F0BF
:10557000DDF9B4EEE90AF1EE10FA02DD94ED028AEB
:1055800018E0D4ED020AB0EE480A30EE600A02F0EC
:10559000CDF9B4EEC90AF1EE10FA0BDD94ED020A72
:1055A000B4EEC80AF1EE10FA02D230EE098A01E038
:1055B00030EE498A84ED028A84ED018A88ED008A02
:1055C0008AE700000000000000280CD000210170D4
:1055D00041709FED050A802180ED010A80ED020AED
:1055E0000C30FAF739BE704700000000FEE70000FB
:1055F0002DE9F0410C46054641F69C0148428D429A
:1056000001DD0D4602E0854200DA05468C4201DDEF
:105610000C4602E0844200DA04464FF480414F0019
:10562000194E002D05DB01223046FBF750FF00220A
:1056300004E000223046FBF74AFF0122394630469B
:10564000FBF745FF4FF480618F00002C05DB012242
:105650003046FBF73CFF002204E000223046FBF717
:1056600036FF012239463046FBF731FF002D00DAC4
:105670006D42064801684D63002C00DA6442006800
:105680008463BDE8F081000000100240B0030020F8
:1056900010B51148FDF7FBFA104800684068104942
:1056A000C0F12800C0B20870162809D10D49162291
:1056B000A1F12100FAF7B7FD0A482138FDF7D6FE1F
:1056C00028210848FAF7C8FDBDE8104028220549FE
:1056D0000148FDF7B2BE0000100500205C07002065
:1056E000320000204D0C00204100080218BF0420A9
:1056F0000A0E18BF40F001004FF07F4232EA01016C
:1057000008BF40F00200012808BF052070470907C4
:10571000090E002804DB00F1E02080F80014704737
:1057200000F00F0000F1E02080F8141D7047000029
:1057300010EE101A08B5444A6846B2EB410F28D95A
:105740004FF0E640B0EB410F94BF00204FF0FF3028
:1057500000900098002861DB60EE000A10F0010F55
:1057600045D010F0020FDFED391A9FED391A00EE27
:10577000E11ADFED381A40EE811A21EEA01AF0EEA0
:10578000400A40EE010A08BFF1EE600AB0EE600A7E
:1057900008BD314B21F0004293423CD911F0004F3B
:1057A000DFED2E0A20EE201ADFED2D0A19BF31EEB3
:1057B000601A71EE200A31EE201A71EE600ABDEE19
:1057C000E01A11EE100A9FED271A00F0030000EE18
:1057D000C10A9FED251A009000EEC10A9FED231A21
:1057E00000EEC10A9FED221A00EEC10AB1E79FED5B
:1057F000211A9FED210A10F0020F00EE810A9FEDA1
:105800001F1A00EE801AB7EE000A00EE810A18BFD8
:10581000B1EE400A08BD00F00FF99AE710EE100A49
:105820004000B0F17F4F3CBFB7EE000A08BD07D182
:105830004FF0010000F0BAF9BDE8084000F0ECB804
:10584000BDE8084000F0E4B8B61F927E336D4C39D5
:10585000DA82083CA0AA2ABE490E494683F9223FB3
:105860000000004B0000C93F00A0FD390020A2331A
:105870001A61342CB93AB2BACA9F2A3DDDFFFFBE85
:1058800000B510EE101A2DED028B81B0524A684619
:10589000B2EB410F2ED94FF0E640B0EB410F94BF71
:1058A00000204FF0FF3000900098B0EE408A0028B2
:1058B0006ADB10F0010F4BD068EE080A9FED471A23
:1058C0009FED470A00EE810A9FED461A10F0020F85
:1058D00000EE801AB7EE000A00EE810A02BF01B0A6
:1058E000BDEC028B00BD00BF01B0B1EE400ABDECC3
:1058F000028B00BD3C4B21F00042934241D911F094
:10590000004FDFED3A0A20EE201ADFED390A19BF09
:1059100031EE601A71EE200A31EE201A71EE600A43
:10592000BDEEE01A11EE100A9FED321A00F00300EE
:1059300000EEC10A9FED301A009000EEC10A9FED03
:105940002F1A00EEC10A9FED2E1A00EEC10AABE736
:1059500028EE080A9FED2B1ADFED2B0A10F0020F3C
:1059600040EE410A9FED291A00EE201A61EE000A6E
:10597000B0EE480A08EE200AB6D101B0BDEC028BA9
:1059800000BD00F059F88FE718EE100A4000B0F1A2
:105990007F4F0DD218EE100AFFF7A6FE042808BFAD
:1059A00000F042F8B0EE480A01B0BDEC028B00BD39
:1059B00009D1012000F0FAF801B0BDEC028B5DF8CE
:1059C00004EB00F029B801B0B0EE480ABDEC028B40
:1059D0005DF804EB00F01CB8B61F927EB93AB2BA7B
:1059E000CA9F2A3DDDFFFFBE490E494683F9223F8B
:1059F0000000004B0000C93F00A0FD390020A23389
:105A00001A61342C336D4C39DA82083CA0AA2ABEC4
:105A100030EE000A70470000DFED020A80EEA00AB7
:105A200070470000000000009FED020A20EE000A0F
:105A300070470000000000102DE9F0014FF07F4298
:105A4000B2EB410F9FBF4FF0FF310160BDE8F001A5
:105A500070474FF0004242EA0123C1F3C752783A3F
:105A6000551112F01F0C434CCCF120067C44C1F3BD
:105A7000C752A2F178024FEA621204EB820254F894
:105A8000254008BFD2E9015612D0556804FA0CF43B
:105A900025FA06F73C43976805FA0CF527FA06F84D
:105AA000D26807FA0CFCF24045EA08054CEA020607
:105AB000A4FB034CA5FB0352A6FB03631D449D42BC
:105AC00034BF012600261319334416B1934202D97C
:105AD00003E0934201D2012200E00022624402F17D
