:020000040800F2
:10000000F8130020A10100082D430008D134000896
:10001000E93F00080D090008E15600080000000053
:100020000000000000000000000000000345000880
:100030002D0A0008000000000145000809480008DA
:10004000BB010008BB010008BB010008BB010008A0
:10005000BB010008BB010008BB010008BB01000890
:10006000430A0008490A00084F0A0008110900085D
:100070001D09000829090008350900084109000880
:100080004D09000859090008BB010008BB01000820
:10009000BB010008BB010008BB010008550A0008AD
:1000A000BB010008CD480008B1480008BB010008AA
:1000B000E9480008BB010008BB010008BB010008BB
:1000C000BB010008BB010008BB010008BB01000820
:1000D000BB0100086951000891510008B95100089E
:1000E000BB010008BB010008BB0100080149000872
:1000F000394900081D490008BB01000865090008CE
:10010000BB010008BB010008BB010008BB010008DF
:10011000E14C0008094D0008F5480008BB01000843
:10012000BB010008BB01000871090008BB01000801
:10013000BB010008BB010008BB010008BB010008AF
:10014000BB010008BB010008BB010008BB0100089F
:10015000BB010008BB0100087D090008BB010008C5
:10016000BB010008BB010008BB010008BB0100087F
:10017000BB010008BB010008BB0100080000000033
:10018000BB010008BB010008DFF810D000F062FBE3
:100190000048004791760008AFF30080F813002074
:1001A0000648804706480047FEE7FEE7FEE7FEE711
:1001B000FEE7FEE7FEE7FEE7FEE7FEE7A1480008F0
:1001C000890100082DE9F05F0546002092469B4614
:1001D00088460646814640241BE02846414647465D
:1001E000224600F050FA53465A46C01A914110D3A5
:1001F00011461846224600F037FA2D1A67EB01081F
:100200004F4622460120002100F02EFA17EB00098C
:100210004E41201EA4F10104DFDC484631462A4647
:100220004346BDE8F09F40EA01039B0703D009E085
:1002300008C9121F08C0042AFAD203E011F8013BD2
:1002400000F8013B521EF9D27047D2B201E000F82B
:10025000012B491EFBD270470022F6E710B513466A
:100260000A4604461946FFF7F0FF204610BD2DE967
:10027000FE4F804681EA0300C00F0C46009021F03B
:10028000004123F00045B8EB0200A94105D24046E9
:10029000214690461C460B46024623F00040104380
:1002A00047D0270DC7F30A00C3F30A510290401A42
:1002B000019040286BDAC3F3130040F4801B0098D0
:1002C000924620B10023D2EB030A63EB0B0B01989B
:1002D0005946C0F14002504600F0C6F906460D46A8
:1002E00050465946019A00F0DEF910EB08006141D2
:1002F000002487EA115284EAE7731A4340D0009A37
:1003000062B3019A012A4FEA075215DC001B61EB28
:1003100002014FF0004202EA0752CDE90042001C00
:1003200041F5801132462B4600F015FA03B0BDE8C6
:10033000F08F40462146F9E7001B61EB0201001CEB
:1003400041F5801300185B412018A2F5001747EB18
:10035000030140EAD570B6196D4111E06D084FEA0E
:10036000360645EAC0754FEA0752001B61EB0201F1
:10037000001C41F5801149084FEA30000019514135
:1003800032462B4603B0BDE8F04F00F0D5B90098D7
:10039000012240000023D0EB020263EBE0730098DF
:1003A00021464FEAE074B8EB000061EB0401E9E795
:1003B00083F000435BE781F0004158E72DE9FE4FF1
:1003C00081EA030404F0004421F0004100944FF05E
:1003D000000B23F0004350EA01045ED052EA03040C
:1003E0005BD0C3F30A54C1F30A552C44A4F2F3348E
:1003F0000194A0FB0254C1F3130141F48011C3F333
:10040000130343F4801301FB024400FB034E840AF0
:10041000970A44EA815447EA8357A4FB0768029588
:100420008D0A05FB07854FEA932C04FB0C54270526
:10043000029D4FEA065847EA1637B5EB08056EEB02
:10044000070C870E920E47EA811742EA8312A7FB38
:100450000201B6EB0B0164EB00042B0D43EA0C33F5
:100460005E1844EB1C50DA465146E7FB0201C5F327
:1004700013044FEA0B3343EA14534FEA0432019C4E
:1004800043EA0603A4F10C040294009CCDE900B4F5
:1004900000F061F903B0BDE8F08F00200146F9E7F4
:1004A0002DE9F04D81EA030404F0004B21F00045F2
:1004B00014464FF0000A23F0004150EA050220D014
:1004C00054EA01021DD0C5F30A570246C5F31303CF
:1004D000C1F31300C1F30A5640F4801543F48013AE
:1004E000A7EB0608101BD64608F2FD3873EB050093
:1004F00002D308F1010801E092185B41B8F1000F46
:1005000003DA00200146BDE8F08D00204FF4801191
:10051000064684460EE0171B73EB050705D3121B36
:1005200063EB050306434CEA010C49084FEA30002F
:1005300092185B4150EA0107EDD152EA030012D054
:1005400082EA040083EA0501084305D0101BAB4191
:1005500006D20122002306E000224FF0004302E011
:100560006FF0010253101AEB06004CEB085110EB30
:100570000A0041EB0B01BDE8F04D00F0DDB80EB50F
:10058000C10F80EAE0700844CA07002140F23343FB
:100590008DE80E000A460B4600F0DDF803B000BD02
:1005A00070B5C1F30A5201F000450024C1F31301F4
:1005B00040F2FF3341F480119A4201DA002070BD0D
:1005C00040F233439A42A2F2334203DC524200F03B
:1005D0005AF800E090402C43F1D0404270BD00F04A
:1005E000004230F000400AD0C10D01F56071C0F347
:1005F000160042EA0151C20840071143704700202B
:100600000146704701F0004330B421F0004150EA48
:10061000010206D00A0DA2F56072C1F31301002A8F
:1006200002DC30BC00207047440F44EAC104C10022
:10063000E01830BC00EBC25000F047B830B50B46B4
:10064000014600202022012409E021FA02F59D4202
:1006500005D303FA02F5491B04FA02F52844151ED6
:10066000A2F10102F1DC30BD202A04DB203A00FABD
:1006700002F1002070479140C2F1200320FA03F3F9
:10068000194390407047202A04DB203A21FA02F0F7
:100690000021704721FA02F3D040C2F120029140BC
:1006A000084319467047202A06DBCB17203A41FA47
:1006B00002F043EAE07306E041FA02F3D040C2F1EF
:1006C000200291400843194670470029A8BF70478F
:1006D000401C490008BF20F00100704710B4B0FA78
:1006E00080FC00FA0CF050EA010404BF10BC704713
:1006F00049B1CCF1200421FA04F411FA0CF118BF2D
:10070000012121430843A3EB0C01CB1D4FEA0061FB
:100710004FEA102042BF002010BC704700EBC350CE
:1007200010440029A4BF10BC7047401C490008BFFA
:1007300020F0010010BC704710B5141E73F10004C6
:1007400008DA401C41F1000192185B411A4301D1C3
:1007500020F0010010BD2DE9F04D92469B4611B1ED
:10076000B1FA81F202E0B0FA80F220329046FFF74F
:100770007BFF04460F4640EA0A0041EA0B0153465C
:100780005A46084313D0114653EA010019D0C8F164
:1007900040025046FFF777FF05460E465046594641
:1007A0004246FFF761FF084305D0012004E02046E0
:1007B0003946BDE8F08D0020054346EAE0762C433B
:1007C00037430A986305E40AA0EB08000022FD0AFB
:1007D00044EA47540A3002D500200146E9E7010502
:1007E00010196941DDE9084500196941BDE8F04D7E
:1007F000A2E7C1F30A52C1F3130140F2FF3341F4FF
:1008000080119A4202DA00200146704740F23343D9
:100810009A42A2F2334202DC5242FFF734BFFFF7A2
:1008200023BF000030B5041E71F1000404DB4FF05B
:100830000044404264EB0101141E73F1000405DB27
:100840001C464FF00043524263EB0403994208BF39
:10085000904230BD064C074D06E0E06840F00103D1
:1008600094E8070098471034AC42F6D3FFF790FCA9
:10087000907B0008B07B00081E4810B50068C16876
:1008800041F01001C16028221B491A4802F0AEFD58
:100890001A480068C16841F01001C1601649282259
:1008A0002831164802F0A2FD15480068C16841F0E1
:1008B0001001C160104928225031114802F096FD04
:1008C00010480068C16841F01001C1600A4928223F
:1008D00078310C4802F08AFD0B480068C16841F08D
:1008E0001001C16004492822BDE81040C13106480A
:1008F00002F07CBD84040020E40A0020C80400202B
:1009000050050020940500200C050020FEE70000A3
:10091000014800F021BB0000DC060020014800F087
:100920001BBB00001C090020014800F015BB0000A3
:100930001C060020014800F00FBB00007C090020CD
:10094000014800F009BB00007C060020014800F0CF
:1009500003BB00005C080020014800F0FDBA000065
:10096000BC080020014800F0F7BA00003C07002056
:10097000014800F0F1BA00009C070020014800F097
:10098000EBBA0000FC07002001681823CAB2103A35
:10099000B2FBF3F2054B6FF30901032A9B5CC365BD
:1009A00000D9091D8165084670470000707B00086A
:1009B00010B5014600208B698A6A4FF0C07453B1AC
:1009C000B3F5005F15D072B1012A0CD0022A0AD00B
:1009D000032A09D104E01AB1012A06D0022A03D160
:1009E000C96AC90100D5012010BDC96AA142FAD067
:1009F00010BD002AF7D0012AF2D0022AF3D0032A30
:100A0000F3D010BD30B50468256825F48025256035
:100A1000046863608368402B036803D099600068B2
:100A2000C26030BD9A600068C16030BD704700216F
:100A300004E00222521C282AFCD3491C8142F8D32C
:100A40007047042000F03CBC082000F039BC1020A6
:100A500000F036BC802000F033BC000004489FED5D
:100A6000030A80ED000A80ED010A704700000000D3
:100A7000080A002070B54378DFED301A00EB8304DC
:100A80005B1C437084ED030A0578EDB390ED030A17
:100A90002B4C0123F0EE400A84ED010A84ED000A9C
:100AA00013E000BF00EB830696ED031AB4EEC01A04
:100AB000F1EE10FA01DDB0EE410AB4EEE01AF1EE0B
:100AC00010FA01D2F0EE410A5B1C8B42EAD384ECAF
:100AD000020A002307E000BF00EB83045B1C94EDD7
:100AE000031A71EE211A8B42F6D330EE200A8B1EC8
:100AF000012D71EEC00A00EE103AB8EEC01A80EE79
:100B0000810A80ED010A00E00BE00FD110EE103AEF
:100B10000C4CA34206DA82ED000A90ED010A80ED4A
:100B2000020A03E090ED020A82ED000A42788A424E
:100B300003D1012101700021417070BD000000004F
:100B40001400002000409C452DE9F041DFF80C81A5
:100B5000D8F80000406A434D04B241480480296837
:100B6000496A414E0AB242803168496A3F4F09B230
:100B700081803B685B6A00EE104ADFED3D0AF2EED1
:100B8000061AB8EEC00A3B4C1BB2C38020EE201AF6
:100B900081EE210AB5EE001AF2EE0C1A20EE012ABF
:100BA00082EE210A02EE102AA4F1100202F13800AE
:100BB000B8EEC22A22EE203ABAEE062AC3EE022A84
:100BC00084ED000A62EE812A82EEA13A02EE901ACA
:100BD0000521F8EEE22A84ED013A22EEA03AC3EEB6
:100BE000022A62EE812A82EEA13A02EE903AF8EEF3
:100BF000E22A62EEA00AC0EE822A84ED023A62EE98
:100C0000810A80EEA11A84ED031AFFF733FFA4F1E5
:100C10000C0294ED010A052102F16800FFF72AFF9A
:100C2000A4F1080294ED020A052102F19800FFF7F1
:100C300021FF221F94ED030A052102F1C800FFF7EE
:100C400019FFD8F80010002048622968486231680E
:100C5000486239684862BDE8F0810000DC0000208D
:100C60001C0000206C010020B4010020FC010020C9
:100C70000080BB45EC09002072B6FEE710B5FFF717
:100C800063FF194800F1200490EC040A00F12802E7
:100C9000211D203006F0C2FD94ED000ADFED130A9D
:100CA0009FED131A04F10C0020EE200A90ED002AAB
:100CB00060EE011A9FED0F0AC1EE802ADFED0E1AD9
:100CC00002EEA12A80ED002A94ED012A62EE200AAC
:100CD00020EE811AC1EE000A90ED010A00EEA10A91
:100CE00080ED010A10BD0000DC090020C3F5C840FA
:100CF0009A991941000070420AD7233C70B504004C
:100D000003D094F8200010B104E0012070BD20460B
:100D100000F082F82068016841F00101016000F0F4
:100D2000DDFB0546052604E000F0D8FB401B0A2841
:100D300011D820684068C007F6D02068016821F00B
:100D40000201016000F0CAFB05460BE000F0C6FBA3
:100D5000401B0A2806D9606A40F40030606284F8BB
:100D60002060D2E7206840688007EFD4207E012809
:100D7000206801683DD021F080010160607E01287B
:100D80002068016838D021F040010160A07E012870
:100D90002068016833D021F020010160E07E012845
:100DA000206801682ED041F010010160207F0128E9
:100DB0002068016829D021F008010160607F0128C6
:100DC0002068016824D021F004010160D4E9020107
:100DD0000843D4E90412114308436168491E0843DB
:100DE0002168C86100206062012084F82000002092
:100DF00070BD41F08001C0E741F04001C5E741F01E
:100E00002001CAE721F01001CFE741F00801D4E743
:100E100041F00401D9E70000F0B587B00446142181
:100E20006846FFF719FA1A49206888422ED11948F6
:100E30000025016841F000710160006800F0007059
:100E4000059014481038016841F001010160016803
:100E500001F001010591016841F00801016000689D
:100E6000022400F0080005904FF4006003260927D3
:100E70008DE8F1006946084800F02EFA01AA0094B6
:100E800082E8F0006946054800F026FA07B0F0BD98
:100E9000006400404038024000000240000C024064
:100EA0002DE9F0410446876D00F018FB064694F8E2
:100EB00035000025022806D08020606584F8345073
:100EC0000120BDE8F0812068016821F01601016071
:100ED0002068416921F080014161206C08B9A06C53
:100EE00020B12068016821F00801016020680168D4
:100EF00021F0010101600CE000F0F0FA801B0528F0
:100F000007D920206065032084F8350084F8345028
:100F1000D7E720680068C007EED194F85C103F2046
:100F20008840B860012084F8350084F834500020EF
:100F3000C7E790F83510022903D0802141650120D0
:100F40007047052180F835100068016821F0010123
:100F500001600020704700002DE9F84304464FF07F
:100F60000009CDF8009063484FF41651A56D006854
:100F7000B0FBF1F72E6894F85C10082000FA01F13C
:100F800031420FD021680A6852070BD50A6822F057
:100F900004020A6094F85C108840A860606D40F01C
:100FA0000100606594F85C104FF0010808FA01F048
:100FB000304208D021684969090604D5A860606DEF
:100FC00040F00200606594F85C10042088403042D4
:100FD00008D021680968890704D5A860606D40F0D1
:100FE0000400606594F85C1010208840304218D0EE
:100FF00021680968090714D5A860206801684903B9
:1010000004D50068000308D5A16C07E00168C90594
:1010100003D4016821F008010160216C09B1204668
:10102000884794F85C1020208840304231D02168F5
:101030000968C9062DD5A86094F8350005282068F0
:10104000016806D0490347D5006800031DD4616CD0
:101050001CE021F0160101602068416921F0800147
:101060004161206C08B9A06C20B12068016821F0B2
:101070000801016094F85C103F208840A86084F863
:10108000358084F83490216D1FE0E16B09B1204672
:101090008847606D00282BD0606DC00714D00520F4
:1010A00084F835002068016821F001010160009892
:1010B000401C0090B84203D820680068C007F6D1F1
:1010C00084F8358084F83490E16C002910D001B0A8
:1010D0002046BDE8F04308470168C905D5D401683A
:1010E00021F01001016084F8358084F83490CCE759
:1010F000BDE8F883100000202DE9F041044600F01F
:10110000EDF906465CB1022084F83500002584F82C
:1011100034502068016821F0010101600DE00120D8
:10112000BDE8F08100F0DAF9801B052805D9202000
:101130006065032084F83500F2E720680068C00786
:10114000F0D12268116820480140D4E90103184316
:10115000D4E903363343184363691843A36918433A
:10116000E3691843236A18430843616A042903D1D9
:10117000D4E90B1319430843106020684069666A7C
:1011800020F0070130460E43012704280CD1A06A45
:101190000643E06A40B12046FFF70AFC20B1402038
:1011A000606584F83570BAE7206846612046FFF72D
:1011B000EBFB94F85C203F2191408160656584F8E9
:1011C00035700020ACE700003F8010F02DE9F041C1
:1011D0000446866D90F83400002501280DD00120CA
:1011E00084F8340094F835700020012F07D084F87B
:1011F000340002252846BDE8F0810220FBE70227E3
:1012000084F8357060652046FFF7FCFB94F85C10AD
:101210003F208840B0602068016841F016010160FD
:10122000206C20B12068016841F00801016020684D
:10123000016841F001010160DCE7000070B505467E
:10124000142005F045FB1848042D0FD0174C082D2D
:1012500015D0102D21D0802D07D18021144800F009
:1012600033F9012801D10420207070BD042100F061
:101270002BF90028F9D10F490120087070BD082111
:1012800000F022F90028F9D1022020700A4890EDE0
:10129000000A0A4880ED000A70BD102100F014F920
:1012A0000128F9D10320DFE7001002403C000020B4
:1012B000000C0240000000205800002054000020D4
:1012C000044910B50A68024202D00860FFF7B6FF71
:1012D00010BD0000143C01402DE9F84FDFF8BCA11F
:1012E0000022012503264FF00F090AF1040BAAF191
:1012F000040E00BF0B6805FA02F42340A34270D12C
:101300000F7907F00307012F01D0022F16D187684C
:101310004FEA420806FA08FC27EA0C07D1F80CC08D
:101320000CFA08FC4CEA070CC0F808C04768A74351
:101330000C79C4F3001494403C4344600C79E443BA
:10134000A4070AD0C4684FEA420C06FA0CF7BC4363
:101350008F6807FA0CF72743C7600C7904F0030481
:10136000022C12D1D40800EB840CDCF82040570783
:10137000FF0E09FA07F824EA0804D1F8108008FAE9
:1013800007F848EA0408CCF8208004684FEA420CC9
:1013900006FA0CF7BC430F7907F0030707FA0CF7BE
:1013A000274307604C6814F4403F70D03C4C2768DA
:1013B00047F480472760246822F0030704F4804440
:1013C0000094384C07EB040CDCF8084897074FEA08
:1013D000177809FA08F7BC43334FB84202D1002707
:1013E00024E054E0314FB84201D101271EE0304FD4
:1013F000B84201D1022719E02E4FB84201D103278C
:1014000014E02D4FB84201D104270FE02B4FB84212
:1014100001D105270AE02A4FB84201D1062705E08D
:10142000284FB84201D1072700E0082707FA08F73C
:101430002743CCF80878DAF800405746D1F804C0C2
:101440009C435FEACC2C00D51C433C60DBF8004099
:101450005F46D1F804C09C435FEA8C2C00D51C4346
:101460003C60DEF800407746D1F804C09C435FEA58
:101470008C3C00D51C433C60084F083F3C68D1F8C9
:1014800004C09C435FEACC3C00D51C433C60521C2A
:10149000102AFFF42FAFBDE8F88F0000083C014090
:1014A0004438024000300140000002400004024085
:1014B00000080240000C02400010024000140240EC
:1014C00000180240001C02400069084000D00120C2
:1014D00070470AB1816170470904FBE701488068E1
:1014E000704700000400002070B5040025D094F877
:1014F0003D00002520B984F83C50204600F0B8F8A3
:10150000242084F83D002068016821F00101016079
:101510002068016841F4004101602068016821F4FD
:101520000041016000F00CFA4D4A6168914201D817
:101530004C4900E04C49884201D2012070BD4B4922
:101540002368B0FBF1F15E6826F03F060E435E6053
:101550006368934206D94FF4967359434FF47A73F4
:10156000B1FBF3F12368491C1E6A26F03F063143A4
:1015700019626168914210D84900401EB0FBF1F237
:10158000521CC2F30B02042A01D2042022E0B0FB59
:10159000F1F0401CC0F30B001CE0A268F2B301EBB9
:1015A000C10303EB0116431EB3FBF6F35B1C43F4CC
:1015B00080431B0549D092B301EBC10202EB01113C
:1015C000401EB0FBF1F0401CC0F30B0040F4804023
:1015D00040F400402168CA694CF6FF739A431043F7
:1015E000C861D4E9071001432068026822F0C002F4
:1015F00011430160D4E9030101432068826848F285
:10160000FF339A4311438160D4E9050108432168FF
:10161000CA6822F0FF021043C86001E00EE016E045
:101620002068016841F0010101602564202084F8F0
:101630003D00256384F83E50002070BD01EB41065B
:10164000431EB3FBF6F35B1CB3E70120C2E701EBDB
:101650004101401EB0FBF1F0401CC0F30B00B7E7A6
:10166000A086010080841E0000093D0040420F005A
:1016700010B586B0044614216846FEF7EDFD134907
:101680002068884220D112480021026842F00202FC
:101690000260006800F002000590C0200090122057
:1016A000CDE9010103200390042004906946094814
:1016B000FFF712FE06481030016841F40011016086
:1016C000006800F40010059006B010BD0054004002
:1016D0003038024000040240024881680278114418
:1016E00081607047040000200B4810B5016841F488
:1016F00000710160016841F480610160016841F49A
:1017000080710160032000F06FF80F2000F006F8F0
:1017100000F024F8002010BD003C024070B50D4DD3
:1017200004464FF47A712878B1FBF0F00A49096851
:10173000B1FBF0F000F00AFB48B9102C07D20022F0
:101740002146501E00F030F800206C6070BD012072
:1017500070BD000004000020100000200A4808B5F9
:10176000016841F480410160006800F4804000900D
:101770000548001F016841F080510160006800F0D9
:101780008050009008BD000044380240002809DB6A
:1017900000F01F02012191404009800000F1E0208B
:1017A000C0F8001170470000F0B40E4B1B680C46E7
:1017B000C3F30223C3F10705042D00D90425191D25
:1017C000072901D2002300E0DB1E012606FA05F1FD
:1017D000491E214099409E40761E16403143F0BC80
:1017E00004F008B80CED00E0064900F007020868B4
:1017F0004FF6FF03184040EA0220034A10430860F6
:10180000704700000CED00E00000FA052DE9F047FC
:101810000E46050065D0DFF81481D8F80000F7B255
:1018200000F00700B04207D288F80070D8F8000036
:1018300000F00700B04254D128683D4C810712D512
:10184000400703D5206840F4E05020602878000766
:1018500003D5206840F4604020602068A96820F02B
:10186000F000084320602878C0072DD03049686810
:101870000839012812D0022813D0032811D0096892
:10188000890700292DDA216821F003010143216035
:10189000FFF724FE814641F2883A0EE00968890389
:1018A000EFE709688901ECE7FFF718FEA0EB0901F3
:1018B000514502D90320BDE8F0872068696800F02F
:1018C0000C00B0EB810FEFD1D8F80010404601F0CA
:1018D0000701B14207D90770006800F00700B04265
:1018E00001D00120E7E72878400705D52068E9689E
:1018F00020F4E050084320602878000706D52068CF
:10190000296920F4604040EAC100206000F038F806
:101910002168084AC1F30311515CC84006490860B8
:1019200006480068FFF7FAFE0020C4E7003C0240CA
:1019300008380240787B00081000002008000020D2
:101940000448054900680968044AC1F38221515CD2
:10195000C84070471000002008380240887B00080B
:101960000448054900680968044AC1F34231515CE2
:10197000C84070471000002008380240887B0008EB
:10198000154810B5006810F00C02144813D041102F
:10199000042A0FD0082A0ED10F4C241F2268236876
:1019A00002F03F025B0207D52068C0F38810A0FB5D
:1019B000010106E0084610BD2168C1F38811A1FBB2
:1019C00000010023FEF7FEFB2168C1F30141491C21
:1019D0004900B0FBF1F010BD083802400024F400CB
:1019E0002DE9F84F04006ED02078DFF84C93C00743
:1019F000A9F104054AD009F104000168C1F381018D
:101A0000012908D00068C0F3810002280AD1D9F862
:101A10000000400206D52868800337D5606800289A
:101A2000E1D033E06068B0F5803F10D0B0F5A02F72
:101A3000286810D020F480302860286820F48020A6
:101A400028606068A8B1FFF749FD06460DE02868E8
:101A500040F48030F4E740F480202860F7E700BFCE
:101A6000FFF73CFD801B642873D828688003F7D5F6
:101A70000CE0FFF733FD064605E000BFFFF72EFD43
:101A8000801B6428F0D828688003F7D42078DFF81A
:101A9000AC8280074FF0000A3ED5A748001D0168C0
:101AA00011F00C0F08D00068C0F3810002280BD1A0
:101AB000D9F80000400207D42868800716D5E068EE
:101AC000012800D112E033E1E068B8B10120C8F884
:101AD0000000FFF703FD064605E000BFFFF7FEFC30
:101AE000801B0228C0D828688007F7D5286821699C
:101AF00020F0F80040EAC10028600DE0C8F800A01E
:101B0000FFF7ECFC064604E0FFF7E8FC801B022828
:101B10001FD828688007F7D42078000722D5864F81
:101B200087486169703771B101210160FFF7D6FC08
:101B3000064604E0FFF7D2FC801B022809D838686B
:101B40008007F7D50EE0C0F800A0FFF7C7FC0646F7
:101B500005E082E0FFF7C2FC801B02287DD83868D0
:101B60008007F7D42078400768D5DFF8CCB100278C
:101B70000BF13C0BDBF80000C0000BD4DBF80010CD
:101B800041F08051CBF80010DBF80000012700F095
:101B9000805000906B4E3068C00510D4306840F41F
:101BA00080703060FFF79AFC009005E0FFF796FC2C
:101BB0000099401A022850D83068C005F6D55E4E0C
:101BC000A0686C3601280FD00528306810D020F0AE
:101BD00001003060306820F004003060A068B8B1C7
:101BE000FFF77CFC00900FE0306840F00100F4E764
:101BF00040F004003060F7E7FFF770FC0099411AED
:101C000041F28830814266D830688007F4D50EE012
:101C1000FFF764FC009007E0FFF760FC0099411AB1
:101C200041F28830814256D830688007F4D42FB111
:101C3000DBF8001021F08051CBF80010A069C8B388
:101C40003D49091D0968C1F3810102294AD00228D2
:101C5000504607D0C8F8600000E03CE0FFF73EFCCB
:101C600004463BE04746C8F86000FFF737FC0646ED
:101C700005E000BFFFF732FC801B02282BD8286844
:101C80008001F7D4D4E907010843A16A2E4A490824
:101C900002EB0141626A41EA8211084394F82C1078
:101CA00040EA0161C9F8001001203866FFF716FC10
:101CB000044606E03EE000BFFFF710FC001B0228D0
:101CC00009D828688001F7D534E000BFFFF706FC8B
:101CD000001B022802D90320BDE8F88F2868800184
:101CE000F4D427E00128F7D0D9F80000E26900F425
:101CF000800191421CD1226A00F03F01914217D12C
:101D000047F6C071626A0140B1EB821F10D1A26A2E
:101D10004FF0FF3300F4403103EB5202B1EB024FBE
:101D200006D194F82C1000F07060B0EB016F01D078
:101D30000120D1E70020CFE70438024000004742ED
:101D4000800E4742007000400000FFFF10B5401EAB
:101D5000B0F1807F01D3012010BD4FF0E02460611D
:101D60000F21601703F046FD0020A06107202061CD
:101D7000002010BD7047704710B590F83C20012A34
:101D800022D0012280F83C20CA688C6822F440727C
:101D900022434C6822F4806222430C6822F40062E1
:101DA00022430C6922F4805222434C6922F40052EF
:101DB0002243C969002322F480420A4301684A642D
:101DC00080F83C30002010BD022010BD70B590F8A6
:101DD0003C20012A32D0012480F83C40022280F8C5
:101DE0003D2003685A689D6822F070060A683243F5
:101DF0005A60134B02689A4214D0B2F1804F11D04E
:101E0000104B9A420ED0104B9A420BD00F4B9A4275
:101E100008D00F4B9A4205D00E4B9A4202D00E4B7F
:101E20009A4204D1496825F080031943916080F8F3
:101E30003D40002180F83C10084670BD022070BD76
:101E4000000001400004004000080040000C004079
:101E500000040140004001400018004010B504009B
:101E600003D094F83D0010B107E0012010BD002020
:101E700084F83C00204600F01FF8022084F83D0062
:101E8000211D206802F066FD012084F8460084F8D8
:101E90003E0084F83F0084F8400084F8410084F854
:101EA000420084F8430084F8440084F8450084F834
:101EB0003D00002010BD0000F0B587B0044614219D
:101EC0006846FEF7C9F97C4B266800247A49103B26
:101ED00002257A48B6F1804F14D0794A964244D10F
:101EE000086840F0100008600868002200F0100048
:101EF000059011463620FFF757FC3620FFF746FCC9
:101F000007B0F0BD0A6842F001020A60096801F0FA
:101F100001010591196841F001011960196801F08A
:101F200001010591196841F002011960196802AABE
:101F300001F0020105912C21CDE90015012682E86E
:101F400070006946FFF7C8F90820CDE9000502AA2C
:101F5000694682E870005B48FFF7BEF9002211462F
:101F60001C20FFF721FC1C20C8E7534A564F121DC6
:101F7000BE4218D1106840F00200106010680022C4
:101F800000F00200059011462B20FFF70DFC2B20DE
:101F9000FFF7FCFB002211462C20FFF705FC2C204C
:101FA000FFF7F4FB81E0494FBE4208D1106840F4CE
:101FB00080301060106800F480300590A0E7444F36
:101FC000BE420ED1106840F400301060106800224C
:101FD00000F40030059011461920FFF7E5FB1920A9
:101FE0008CE73C4FBE420ED1106840F48020106058
:101FF0001068002200F48020059011461A20FFF797
:10200000D3FB1A207AE7344A96420ED1086840F092
:10201000400008600868002200F04000059011466A
:102020002B20FFF7C1FB2B2068E72C4F0922BE4273
:102030001FD10E6846F080060E60096801F080012D
:102040000591196841F001011960196801F0010159
:10205000059140210091CDE90154CDE90342694643
:10206000FFF73AF9002211462C20FFF79DFB2C20A8
:1020700044E71B4FBE42A1D10E6846F480760E6045
:10208000096801F480710591196841F00101196036
:10209000196801F00101059180210091CDE90154F9
:1020A000CDE903426946FFF717F9002211462D20BA
:1020B000FFF77AFB2D2021E7403802400000024064
:1020C00000100040000402400004014000400140B4
:1020D000004401400048014000180040001C00403E
:1020E0000020004090F83D10012901D001207047E8
:1020F000022180F83D100168CA6842F00102CA60FE
:1021000000681149884214D0B0F1804F11D00F49B6
:1021100088420ED00E4988420BD00E49884208D022
:102120000D49884205D00D49884202D00C498842A9
:1021300004D1816801F00701062903D0016841F04C
:1021400001010160002070470000014000040040D0
:1021500000080040000C0040000401400040014025
:102160000018004070B5044690F83C000025012896
:1021700017D0012684F83C60022084F83D002068D6
:10218000826822F0770222F47F4282600868502839
:1021900038D00DDC20284FD005DC90B3102811D1A9
:1021A0004AE0022070BD302846D040280AD13BE0EA
:1021B00060282FD070280DD0B0F5805F03D0B0F527
:1021C000005F12D0012584F83D60002084F83C00B7
:1021D000284670BDCB68D1E90121206802F02BFCB4
:1021E0002068816841F0770109E0CB68D1E90121DD
:1021F000206802F020FC2068816841F48041816001
:10220000E1E719E0CA684968206802F0E9FC50215A
:10221000206806E0CA684968206802F033FD602142
:10222000206802F012FCCEE7CA684968206802F014
:10223000D7FC40212068F4E7226801461046F0E709
:102240002DE9F0410D46040003D094F83D0018B18B
:1022500008E00120BDE8F081002084F83C00204621
:1022600000F040F8022084F83D002068816844F2C4
:10227000070291438160211D206802F06BFB2268F8
:1022800090689169166A2B68AF69034340F2033086
:10229000814341EA0721A868EF6908434FF6FC41F2
:1022A0008843E96840EA0720014328692F6A000152
:1022B00040EA0730084369686D6926F0AA0646EAD5
:1022C0000515294393602268906154F8460B01621A
:1022D000012004F81F09E0752076E0762077A075CC
:1022E0000020B7E7F0B587B0044614216846FDF733
:1022F000B3FF4F48226800244E4902254E4E8242C9
:1023000040D14C481430026842F00102026000687B
:1023100000F001000590086840F0100008600868AF
:1023200000F010000590086840F00100086008689F
:10233000012700F001000590C8140090CDE9015478
:10234000CDE9034769463D48FEF7C6FFE801009026
:10235000CDE90154CDE9034769463046FEF7BCFF9D
:10236000002211461920FFF71FFA1920FFF70EFA75
:10237000002211461A20FFF717FA1A20FFF706FA73
:1023800007B0F0BD2B482E4B10309A4216D1026890
:1023900042F002020260006800F002000590086846
:1023A00040F0020008600868694600F002000590ED
:1023B00030200090CDE90154224819E0224B9A4286
:1023C0001BD1026842F004020260006800F00400C1
:1023D0000590086840F0080008600868694600F049
:1023E000080005904FF440500090CDE90154174883
:1023F000CDE90345FEF770FFC2E7154B9A42BFD106
:10240000026842F008020260006800F008000590CF
:10241000086840F0010008600868694600F00100A3
:10242000059003200090CDE901543046E0E700001C
:10243000000001403038024000000240001002401D
:10244000000400400004024000080040000C02406C
:10245000000C004070B590F83E60044690F83F5084
:1024600090F8423090F84320022021B104290ED088
:10247000012E1BD114E0012E18D1012B16D184F8A6
:102480003E0084F8420001220021206820E0012D56
:102490000CD1012A0AD184F83F0084F8430014E0EB
:1024A000012D03D1012B01D1012A01D0012070BDE2
:1024B00084F83E0084F83F0084F8420084F843002A
:1024C00001220021206802F0A9FA012204212068DB
:1024D00002F0A4FA2068016841F0010101600020C7
:1024E00070BD00000D4A01681268914214D1007F4E
:1024F000012808D0022809D004280AD008280BD1C6
:10250000002003F019B8002002F016BF002002F0EE
:102510007FBE002002F092BF70470000240100201F
:102520002DE9F041054690F83C0000260C460128B4
:1025300010D0012085F83C0072B1042A1CD0082A72
:102540002CD00C2A50D00126002085F83C003046C3
:10255000BDE8F0810220FBE7D4E90012E3682868B7
:1025600002F050FB2868816921F00C018161286824
:102570008169A26811430FE0D4E90012E36828687A
:1025800002F092FB2868816921F44061816128682A
:102590008169A26841EA02218161D5E72868D4E90E
:1025A000002C277B016A21F480710162C169036AF2
:1025B00021F0030141EA0C0121F0F00C39074FF43E
:1025C00020674CEA116123F4206307EA02221A43D0
:1025D000C16102622868C16921F00C01C1612868EB
:1025E000C169A268114328E02868D4E90027E1689E
:1025F000036A23F480530362D0F81CC0036A2CF4EE
:10260000407C4CEA07274FF6FF7C27F470470CEA22
:10261000013139434FF4204723F4204307EA0232C3
:102620001A43C16102622868C16921F44061C16135
:102630002868C169A26841EA0221C16184E710B536
:10264000040003D094F83D0010B107E0012010BD54
:10265000002084F83C00204600F01EF8022084F898
:102660003D00211D206802F075F9012084F8460024
:1026700084F83E0084F83F0084F8400084F841006C
:1026800084F8420084F8430084F8440084F845004C
:1026900084F83D00002010BD7047000030B50446AE
:1026A000002551B104290DD0082910D094F841001B
:1026B00094F84520012811D10EE094F83E0094F8DA
:1026C0004220F7E794F83F0094F84320F2E794F8AB
:1026D000400094F84420EDE7012A01D0012030BDEC
:1026E000022059B1042912D0082919D084F84100D8
:1026F00084F845000C2944D0012540E084F83E00D0
:1027000084F842002068C26842F0020210E084F8B7
:102710003F0084F843002068C26842F0040207E0EA
:1027200084F8400084F844002068C26842F008023F
:10273000C2600122206802F071F9144920688842C1
:1027400014D0B0F1804F11D0114988420ED01149F8
:1027500088420BD01049884208D01049884205D0E1
:102760000F49884202D00F49884204D1816801F0A4
:102770000701062903D0016841F0010101602846E4
:1027800030BD2068C26842F01002D1E7000001406D
:102790000004004000080040000C0040000401401C
:1027A000004001400018004070B50446006801690F
:1027B0004FF00005C943890715D4C168C94389078B
:1027C00011D4E91E0161012020772068806980070B
:1027D000204602D0FFF786FE04E000F015F92046FF
:1027E00000F0A7F9257720680169C943490717D484
:1027F000C168C943490713D46FF004010161022085
:1028000020772068806910F4407F204602D0FFF7CF
:1028100069FE04E000F0F8F8204600F08AF9257718
:1028200020680169C943090716D4C168C94309076B
:1028300012D46FF008010161042020772068C0697C
:102840008007204602D0FFF74DFE04E000F0DCF8E0
:10285000204600F06EF9257720680169C943C90652
:1028600017D4C168C943C90613D46FF010010161C0
:10287000082020772068C06910F4407F204602D0ED
:10288000FFF730FE04E000F0BFF8204600F051F9F9
:10289000257720680169C943C90708D1C168C943C0
:1028A000C90704D1891E0161204600F0A7F92068FC
:1028B0000169C943090609D4C168C943090605D499
:1028C0006FF0800101612046FFF754FA206801692A
:1028D000C943490609D4C168C943490605D46FF004
:1028E00040010161204600F0C2F920680169C94336
:1028F00089060BD4C168C943890607D46FF020014B
:1029000001612046BDE87040FFF735BA70BD000098
:1029100070B586B0044614216846FDF79DFC314829
:102920002368002230490224032583420ED108681F
:1029300040F0040008600868694600F00400059053
:1029400028020090CDE90142284810E0284883423F
:1029500014D1086840F0100008600868694600F06B
:102960001000059060200090CDE901422148CDE99A
:10297000032500BFFEF7B0FC06B070BD1E4E1F4819
:10298000B34209D10B6843F002030B60096801F000
:102990000201059181150BE0194EB3420DD10B6870
:1029A00043F002030B60096801F002010591711503
:1029B0000091CDE901426946D9E7124DAB42DBD126
:1029C0000B6843F002030B60096801F002010591F6
:1029D000E9000091CDE901420921CDE903216946D1
:1029E000C8E70000000401403038024000080240FF
:1029F0000040014000100240004401400004024039
:102A00000048014000180040704770B5044690F837
:102A10003C0000260D4601280FD0012084F83C0020
:102A20006AB1042A1DD0082A2FD00C2A3FD00126D3
:102A3000002084F83C00304670BD022070BD206844
:102A400002F00CF82068816941F00801816120687A
:102A5000816921F004018161206881692A6911433B
:102A600011E0206802F02AF82068816941F40061D1
:102A700081612068816921F48061816120688169B8
:102A80002A6941EA02218161D2E7206802F04CF80C
:102A90002068C16941F00801C1612068C16921F065
:102AA0000401C1612068C1692A69114311E02068ED
:102AB00002F06EF82068C16941F40061C1612068CC
:102AC000C16921F48061C1612068C1692A6941EA54
:102AD0000221C161ACE710B5040003D094F83D00B9
:102AE00010B107E0012010BD002084F83C00204612
:102AF00000F01EF8022084F83D00211D206801F03E
:102B000029FF012084F8460084F83E0084F83F0045
:102B100084F8400084F8410084F8420084F84300BF
:102B200084F8440084F8450084F83D00002010BD7E
:102B30007047704710B50446022249B104290ED0EF
:102B4000082913D094F84100012816D0012010BDA7
:102B500094F83E000128F9D184F83E200FE094F863
:102B60003F000128F2D184F83F2008E094F84000AB
:102B70000128EBD184F8402001E084F841200122B3
:102B8000206801F04BFF16492068164A884201D0A0
:102B9000904203D1436C43F400434364206888426D
:102BA00013D0B0F1804F10D00F4988420DD00F499B
:102BB00088420AD00E49884207D0904205D00D497C
:102BC000884202D00C49884204D1816801F0070193
:102BD000062903D0016841F001010160002010BD09
:102BE00000000140000401400004004000080040D3
:102BF000000C0040004001400018004010B50E4994
:102C000004460068096888420BD1012002F094FB59
:102C1000012002F0FDFA012002F010FC012002F078
:102C20008BFC064920680968884204D1FEF726F823
:102C300003490120087010BD240100204402002037
:102C4000010000200246002041B1042909D00829D2
:102C50000AD00C2901D11068006C70471068406BD5
:102C600070471068806B70471068C06B7047704782
:102C7000704710B504460068406994F83D10C0F3F1
:102C8000C010212911D180B12068143050E8001FF4
:102C900021F0800140E80012002AF5D1606B08B1F4
:102CA000FEF7FEF8204602F0E5F82068406994F847
:102CB0003E10C0F38010222911D180B12068143059
:102CC00050E8001F21F0400140E80012002AF5D131
:102CD000A06B08B1FEF7E4F8204602F0A4F800204B
:102CE00010BD7047F8B5016804460868CA684B69AA
:102CF00010F00F0F4FF0000559D003F0010602F459
:102D00009077374365D0C10705D0D10503D5216C35
:102D100041F001012164410705D5D90703D0216C99
:102D200041F002012164810705D5D90703D0216C48
:102D300041F004012164010707D502F0200131436D
:102D400003D0216C41F008012164216C00293AD0A4
:102D5000800604D5900602D5204602F099F8206836
:102D60004069216CC0F38010090700D460B320468D
:102D700002F059F820684069400621D520681430D7
:102D800050E8001F21F0400140E80012002AF5D170
:102D9000A06BA8B16C490165A06BFEF7CAF80028CA
:102DA00011D0A06B016D01B0BDE8F040084783066B
:102DB0000FD593060DD52046BDE8F84002F068B85F
:102DC0002046FFF78EFFF8BD2046FFF78AFF2564F7
:102DD000F8BD266B2023012E79D1C60677D5D606FD
:102DE00075D50868486800904869400640D5A16BD1
:102DF000086840680004000CEAD0A28D8242E7D93E
:102E0000E085C869B0F5807F2DD020680C3050E88F
:102E1000001F21F4807140E80012002AF5D12068DB
:102E2000143050E8001F21F0010140E80012002A90
:102E3000F5D12068143050E8001F21F0400140E82F
:102E40000012002AF5D184F83E30256320680C304A
:102E500050E8001F21F0100140E80012002AF5D1CF
:102E6000A06BFEF71DF8A08DE18D401A81B229E01C
:102E7000A08DE18D401A81B2E08D0028A8D00029F4
:102E8000A6D020680C3050E8002F22F4907240E861
:102E90000026002EF5D12068143050E8002F22F0D3
:102EA000010240E80026002EF5D184F83E3025636B
:102EB00020680C3050E8002F22F0100240E8002378
:102EC000002BF5D12046FFF7D3FEF8BDFFE705063E
:102ED0002BD5150629D594F83D002128F5D1A068F9
:102EE000B0F5805F01D12069B0B1206A411C216238
:102EF000216800784860E08C401E0004000CE084EB
:102F0000E3D12068C16821F08001C1602068C168F8
:102F100041F04001C160D8E7206A0088C0F3080092
:102F20004860206A801C2062E5E74006CDD5500647
:102F3000CBD5CA68204622F04002CA6084F83D30F2
:102F400000F0C5FAC1E70000314D000870B504007B
:102F500004D094F83D00002510B106E0012070BDBA
:102F600084F83C50204600F023F8242084F83D00EB
:102F70002068C16821F40051C160204601F0E8FFDB
:102F80002068016921F4904101612068416921F0C4
:102F90002A0141612068C16841F40051C160256483
:102FA000202084F83D0084F83E00002070BD000021
:102FB0002DE9F04F87B0044614216846FDF74CF91F
:102FC000FB48DFF8E8830221D4F800C0F84A103843
:102FD00003270823DFF8DCE300258E064FF0400AC4
:102FE0004FF48069C44549D1D2F800C04CF4002C9C
:102FF000C2F800C0126802F400220592026842F092
:10300000040202600068049300F004000590B80216
:103010008DE8A30069467046FEF75EF9E74FE64883
:103020003860C7E90165C7E903597D61BD61FD618C
:103030003D6238467D62FEF75FF808B1FDF71CFE81
:10304000A763BC63DD4FDC4860373030C7E9035904
:103050007D61BD61FD613D627D6287E84104384666
:10306000FEF74AF808B1FDF707FE67630022114634
:103070003420BC63FEF798FB342068E0DFF840831F
:10308000C44569D1D2F800C04CF4801CC2F800C01D
:10309000126802F480120592026842F00402026093
:1030A000026802F004020592026842F0080202601F
:1030B0000068884600F0080005904FF48050CDE984
:1030C00000080DF1080C9B468CE8A0086946704684
:1030D000FEF702F90420CDE900080DF10808694661
:1030E00088E8A008B748FEF7F7F8B44FB248C037F1
:1030F00030383860C7E90165C7E903597D61BD61B2
:10310000FD61B0463D624E4638467D62FDF7F4FFF4
:1031100008B1FDF7B1FDA763BC63AB4FA648C7E993
:1031200003567D61BD61FD613D6278307D6287E857
:1031300001053846FDF7E0FF08B1FDF79DFD676327
:10314000002211463520BC63FEF72EFB3520FEF72A
:103150001DFB07B0BDE8F08FDFF870824FF0070B62
:10316000C4454AD1924A121D136843F010031360FC
:10317000126802F010020592026842F00102026039
:10318000006800F0010005904FF4C0608DE8A308CE
:1031900069468F48FEF7A0F88B4F8E48603738603D
:1031A000C7E90165C7E903597D61BD61FD613D6204
:1031B00038467D62FDF7A0FF08B1FDF75DFDA7630E
:1031C000BC63814F8348C0377830C7E903597D61BC
:1031D000BD61FD613D627D6287E841043846FDF7CF
:1031E0008BFF08B1FDF748FD6763002211462520DB
:1031F000BC63FEF7D9FA2520A9E7DFF8DC81C445D6
:1032000057D11368A84643F400331360126802F4E0
:1032100000320592026842F008020260006800F085
:103220000800059060208DE8A30869466548FEF710
:1032300053F86149DFF8A4B148315846CBF8001083
:10324000C0E90165C0E90359CBF81450CBF8185018
:10325000CBF81C50CBF820504F46CBF82450FDF74C
:103260004BFF08B1FDF708FD5C4D5348C4F838B07A
:1032700060356030CBF8384085E84104C5E9038704
:10328000C5F81480C5F81880C5F81C80C5F82080E2
:103290002846C5F82480FDF72FFF08B1FDF7ECFCA8
:1032A0006563002211462620AC63FEF77DFA2620D6
:1032B0004DE7DFF82C81C44559D11368A84643F483
:1032C00080231360126802F480220592026842F0A3
:1032D00008020260006800F0080005904FF440709A
:1032E0008DE8A30869463748FDF7F6FFDFF8ECB034
:1032F00031490BF1C00B18395846CBF80010C0E922
:103300000165C0E90359CBF81450CBF81850CBF83D
:103310001C50CBF820504F46CBF82450FDF7ECFE64
:1033200008B1FDF7A9FC24482E4DC4F838B0183078
:10333000CBF8384085E84104C5E90387C5F8148017
:10334000C5F81880C5F81C80C5F820802846C5F847
:103350002480FDF7D1FE08B1FDF78EFC65630022E5
:1033600011462720AC63FEF71FFA2720EFE61E4A1E
:1033700094457FF4EEAE0E4A121D146844F020040A
:103380001460126802F020020592026842F0040202
:1033900002600068049300F004000590C0208DE8EE
:1033A000A30069467046FDF797FFD2E6004C004047
:1033B0004038024000080240406002401C060020E5
:1033C00000500040000C02403C070020001001406B
:1033D0000000024040640240004400405C080020BD
:1033E000004800407C0900200014014090F83E3065
:1033F000202B0ED159B152B190F83C30012B08D09E
:10340000012380F83C300023036301F027BE012034
:103410007047022070477047704700002DE9F8435D
:10342000044690F83D001F4616460D4620284CD114
:10343000C5B1BEB194F83C00012846D0012084F803
:103440003C004FF00008C4F84080212084F83D0083
:10345000FEF744F8A6848146E684A068B0F5805F54
:1034600003D004E00120BDE8F883206928B12E468E
:103470005FF0000584F83C800EE00026FAE780212A
:10348000204601F035FEA0B9AEB116F8010B216857
:103490004860E08C401EE084E08C4B464FF0000218
:1034A00000970028EBD14FF04001204601F020FEAC
:1034B00030B10320D7E735F8020BC0F30800E6E788
:1034C000202084F83D000020CDE70220CBE77047A4
:1034D000FEE700000F4950F8162F0A6042684A6064
:1034E00002890A81807A88724878532810D1B1F90C
:1034F0000600DFED090A00EE100A0948B8EEC00A1E
:1035000020EE200ADFED050A20EE200A80ED000AF9
:1035100070470000CC0F002000000038000034434A
:103520005800002010EE100A0649884202DD9FED87
:10353000060A7047B5EEC00AF1EE10FAF9D29FED17
:10354000030A704700007F4300007F430000000033
:103550000D4810B50B4901601021416000218160C8
:10356000C16001614161017641768176C176017762
:103570004177FDF7C3FB002803D0BDE81040FDF7FD
:103580007BBB10BD0064004060000020314808B5DE
:10359000016841F400110160016801F4001100911B
:1035A000016841F4800101600068002200F480009D
:1035B000009011460B20FEF7F7F80B20FEF7E6F817
:1035C000002211460C20FEF7EFF80C20FEF7DEF883
:1035D000002211460D20FEF7E7F80D20FEF7D6F881
:1035E000002211460E20FEF7DFF80E20FEF7CEF87F
:1035F000002211460F20FEF7D7F80F20FEF7C6F87D
:10360000002211461020FEF7CFF81020FEF7BEF87A
:10361000002211461120FEF7C7F81120FEF7B6F878
:10362000002211462F20FEF7BFF82F20FEF7AEF83C
:10363000002211463A20FEF7B7F83A20FEF7A6F826
:10364000002211464620FEF7AFF8BDE808404620AC
:10365000FEF79CB8303802402DE9F04F87B01421B6
:103660006846FCF7F9FD66480024016841F0100146
:103670000160016801F010010591016841F0040149
:103680000160016801F004010591016841F08001C9
:103690000160016801F080010591016841F00101BC
:1036A0000160016801F001010591016841F002012A
:1036B0000160016801F002010591016841F0080113
:1036C00001600068DFF83CA100F0080048F2330711
:1036D0000590002239465046FDF7FBFE00221021DE
:1036E0004948FDF7F6FE012211464848FDF7F1FE74
:1036F000002204214548FDF7ECFEDFF814B14DF23D
:103700008358002241465846FDF7E3FE4FF44C49EA
:10371000012249463F48FDF7DCFE1C204FF4041609
:10372000CDE900060125694602955846FDF7D4FD0E
:103730000097CDE90154694650460394FDF7CCFD4E
:103740000C20CDE90004694650460294FDF7C4FD03
:1037500010200090CDE9015469462B480394FDF7F1
:10376000BBFD05200090CDE901546946274803942C
:10377000FDF7B2FDCDF80080CDE901546946584609
:103780000394FDF7A9FDCDF80090CDE901546946F9
:1037900020480394FDF7A0FD4FF41040CDE900044C
:1037A000694619480294FDF797FD8020CDE900068F
:1037B000694602951748FDF78FFD00221146082043
:1037C000FDF7F2FF0820FDF7E1FF00221146092076
:1037D000FDF7EAFF0920FDF7D9FF002211460A2074
:1037E000FDF7E2FF0A20FDF7D1FF00221146172066
:1037F000FDF7DAFF1720FDF7C9FF07B0BDE8F08F2E
:10380000303802400008024000000240000402403C
:1038100000100240000C02400D4810B50B49016039
:103820000C49416000214FF480428160C0E90312DD
:1038300041618161C1610162FDF756FE002803D03C
:10384000BDE81040FDF718BA10BD0000005400405C
:1038500088000020A086010010B588B01C216846B1
:10386000FCF7FAFC1548144900240160A721C0E9BF
:10387000011441F61F41C0E903148461FEF7EEFA1A
:1038800008B1FDF7F9F90D48FFF725F908B1FDF783
:10389000F3F96020CDE9000402940022694607484C
:1038A0000494FFF7B2F808B1FDF7E6F90348FFF713
:1038B0002FF808B010BD0000004401401C03002098
:1038C00010B588B01C216846FCF7C6FC15481449A1
:1038D00000240160A721C0E9011441F61F41C0E99D
:1038E00003148461FEF7BAFA08B1FDF7C5F90D4873
:1038F000FFF7F1F808B1FDF7BFF96020CDE900044A
:1039000002940022694607480494FFF77EF808B144
:10391000FDF7B2F90348FEF7FBFF08B010BD000049
:10392000004801406403002010B58CB000240794C7
:10393000089409941C2168460A94FCF78DFC1E48E3
:103940001C4901605321C0E9011441F61F41C0E93F
:1039500003148461FEF782FA08B1FDF78DF94FF484
:103960008050079007A91448FEF7FCFB08B1FDF74B
:1039700083F91148FFF7AFF808B1FDF77DF9602032
:10398000CDE900040294002269460B480494FFF735
:103990003CF808B1FDF770F9042269460648FFF7C4
:1039A00034F808B1FDF768F90348FEF7B1FF0CB031
:1039B00010BD000000180040AC0300201FB500241B
:1039C000144800940194029411490394C0E900142E
:1039D0004FF6FF71C0E9024104618461FEF73EFACF
:1039E00008B1FDF749F90B48FEF729FE08B1FDF7CC
:1039F00043F90120CDE900400294002269460548C0
:103A00000394FEF78DFD002801D0FDF735F91FBDA9
:103A1000001C0040F40300201FB50024144800944B
:103A20000194029411490394C0E900144FF6FF7108
:103A3000C0E9024104618461FEF710FA08B1FDF7A4
:103A40001BF90B48FEF7FBFD08B1FDF715F9012046
:103A5000CDE9004002940022694605480394FEF730
:103A60005FFD002801D0FDF707F91FBD00200040D1
:103A70003C04002010B58CB024216846FCF7ECFB18
:103A800000241648099414490A94C0E900144FF61A
:103A9000FF71C0E902410461446184610320CDE902
:103AA00000040120CDE902040494CDE90540079407
:103AB00069460A480894FEF7C3FB08B1FDF7DCF835
:103AC000099409A905480A94FEF780F9002801D055
:103AD000FDF7D2F80CB010BD00000140DC00002062
:103AE00010B58AB000242E480494059406940794D7
:103AF000089409940094019402944FF08041039437
:103B000001605321C0E901144FF6FF71C0E90314AD
:103B100080218161FEF7A2F908B1FDF7ADF84FF4FD
:103B20008050049004A91E48FEF71CFB08B1FDF765
:103B3000A3F81B48FEF783FD08B1FDF79DF8089434
:103B400008A917480994FEF741F908B1FDF794F860
:103B50000120CDE9004002940022694610480394F8
:103B6000FEF7DEFC08B1FDF787F8042269460C4831
:103B7000FEF7D6FC08B1FDF77FF808226946084831
:103B8000FEF7CEFC08B1FDF777F80C226946044831
:103B9000FEF7C6FC002801D0FDF76EF80AB010BD94
:103BA0002401002010B58CB024216846FCF754FB9A
:103BB00000241648099414490A94C0E900144FF6E9
:103BC000FF71C0E90241046184610320CDE9000472
:103BD0000120CDE902040494CDE90540079469462B
:103BE0000A480894FEF72CFB08B1FDF745F8099444
:103BF00009A906480A94FEF7E9F8002801D0FDF764
:103C00003BF80CB010BD0000000400406C01002027
:103C100010B58CB024216846FCF71EFB0024164822
:103C2000099414490A94C0E900144FF6FF71C0E9E1
:103C30000241046184610320CDE900040120CDE943
:103C400002040494CDE90540079469460A480894A3
:103C5000FEF7F6FA08B1FDF70FF8099409A906482E
:103C60000A94FEF7B3F8002801D0FDF705F80CB070
:103C700010BD000000080040B401002010B58CB059
:103C800024216846FCF7E8FA0024154809941349F2
:103C90000A94C0E90014611EC0E902410461846114
:103CA0000320CDE900040120CDE902040494CDE90C
:103CB0000540079469460A480894FEF7C1FA08B11E
:103CC000FCF7DAFF099409A905480A94FEF77EF883
:103CD000002801D0FCF7D0FF0CB010BD000C004054
:103CE000FC0100201CB500240F4800940D490194EC
:103CF000016040F24731C0E9011440F2E731C16090
:103D000080218161FEF7AAF808B1FCF7B5FF0094A5
:103D1000694605480194FEF759F8002801D0FCF7E0
:103D2000ABFF1CBD001000404402002010B596B04F
:103D300000240F9410941194129413941C2168463B
:103D40001494FCF789FA202107A8FCF785FA2C487F
:103D50002A490160A721C0E9011441F61F41C0E9C9
:103D6000031444618461FEF779F808B1FCF784FF1D
:103D70004FF480500F900FA92148FEF7F3F908B1D6
:103D8000FCF77AFF1E48FEF7A6FE08B1FCF774FFA9
:103D9000139413A91A481494FEF718F808B1FCF705
:103DA0006BFF6020CDE90004029403940494059411
:103DB0000822694612480694FEF727FE08B1FCF770
:103DC0005BFF0C2269460E48FEF71FFE08B1FCF7A8
:103DD00053FF0794089409944FF400500A94CDE9D6
:103DE0000B4007A906480E94FDF7C6FF08B1FCF783
:103DF00043FF0348FEF78CFD16B010BD00040140E0
:103E00008C02002010B58CB000240794089409940B
:103E10001C2168460A94FCF71FFA1E481C490160E1
:103E2000A721C0E901144FF6FF71C0E903148461B2
:103E3000FEF714F808B1FCF71FFF4FF4805007900D
:103E400007A91448FEF78EF908B1FCF715FF1148D1
:103E5000FEF741FE08B1FCF70FFF6020CDE900043A
:103E60000294002269460B480494FEF7CEFD08B187
:103E7000FCF702FF042269460648FEF7C6FD08B1BA
:103E8000FCF7FAFE0348FEF743FD0CB010BD00003E
:103E900000400140D40200200C4810B50A490160DE
:103EA0004FF416514160002181600C22C160C0E9CD
:103EB00004128161C161FFF749F8002803D0BDE811
:103EC0001040FCF7D9BE10BD004C00408404002017
:103ED0000C4810B50A4901604FF4E13141600021FE
:103EE00081600C22C160C0E904128161C161FFF7E9
:103EF0002DF8002803D0BDE81040FCF7BDBE10BD72
:103F000000500040C80400200C4810B50A49016068
:103F10004FF4E1314160002181600C22C160C0E9B1
:103F200004128161C161FFF711F8002803D0BDE8D8
:103F30001040FCF7A1BE10BD001001400C05002090
:103F40000C4810B50A4901604FF4E131416000218D
:103F500081600C22C160C0E904128161C161FEF779
:103F6000F5FF002803D0BDE81040FCF785BE10BD6A
:103F700000440040500500200C4810B50A4901607B
:103F80004FF416514160002181600C22C160C0E9EC
:103F900004128161C161FEF7D9FF002803D0BDE89A
:103FA0001040FCF769BE10BD004800409405002099
:103FB0000C4810B50A4901604FF4E131416000211D
:103FC00081600C22C160C0E904128161C161FEF709
:103FD000BDFF002803D0BDE81040FCF74DBE10BD6A
:103FE00000140140D8050020FEE700002DE9F0474D
:103FF0000E4607464FF4E15148421C4615468F4293
:1040000001DD0F4602E0874200DA07468E4201DDFD
:104010000E4602E0864200DA06468D4201DD0D467C
:1040200002E0854200DA05468C4201DD0C4602E0E2
:10403000844200DA0446DFF8D480002F06DB012238
:1040400011464046FDF745FA002205E00022012115
:104050004046FDF73EFA012202214046FDF739FABB
:10406000002E06DB012210214046FDF732FA002225
:1040700005E0002210214046FDF72BFA0122202105
:104080004046FDF726FADFF88890DFF88880002D9B
:1040900006DB012280214046FDF71BFA002205E0E5
:1040A000002280214046FDF714FA012204214846EF
:1040B000FDF70FFA002C06DB012202214046FDF736
:1040C00008FA002205E0002202214046FDF701FA2D
:1040D000012201214046FDF7FCF9002F00DA7F4262
:1040E0000D4800684763002E00DA76420B480068EE
:1040F0004663002D00DA6D4209480168CD63002C4B
:1041000000DA644200680464BDE8F08700080240F9
:1041100000040240001002401C0300206403002041
:104120008C0200201448C078112824D2DFE800F067
:10413000090B0F13171B1F232323230D1115191D03
:10414000210000F0DFB902F0E3BB01F0B9BF02F0DB
:10415000FBBC02F07DB802F017BE02F043B902F0DA
:104160002FBF02F007BA03F04BB802F0CDBA03F04C
:1041700063B902F091BB70474800002010B52DEDE7
:10418000068BDFED528AF0EE682AB0EE682A9FEDCA
:10419000509AF0EE491A9FED4F8AB0EE481ADFEDC3
:1041A0004E0A9FED4E0A01214D4800F06DF9F0EEE8
:1041B000682AB0EE682AF0EE491AB0EE481ADFED30
:1041C000499AF0EE690A9FED48AA45480121B0EEF0
:1041D0004A0A4C3000F058F9F0EE682AB0EE682A2E
:1041E000F0EE491AB0EE481ADFED400A9FED400AA2
:1041F0003B480121983000F047F93948F0EE682A31
:10420000B0EE682AF0EE491AB0EE481AF0EE690AEC
:10421000B0EE4A0A0121E43000F036F9F2EE042A49
:10422000B2EE042AF3EE0E1A9FED321AF0EE480AAF
:104230009FED310A0121314800F026F9F3EE0E2AF4
:10424000B3EE0E2AF3EE0E1ABFEE001AF0EE480A95
:10425000BAEE040A01212A4800F016F92848F3EEC4
:104260000E2AB3EE0E2AF3EE0E1AB3EE051AF0EE96
:10427000480AB3EE060A01214C3000F005F9204847
:10428000F3EE0E2AB3EE0E2AF3EE0E1AB8EE081A6B
:10429000F0EE480ABBEE0B0A0121983000F0F4F86A
:1042A000B0EE481AF0EE480AB0EE480ABDEC068BB4
:1042B0000121F3EE0E2AB3EE0E2A1148BDE810409C
:1042C000F3EE0E1AE43000F0DFB8000000803B454A
:1042D0000080BB4500000000EC51383E0000104259
:1042E000D00B00200AD7233E00000042CDCC4C3E2C
:1042F000000020423333B33E6666E63E000D0020E8
:104300004C0D002010B5084800F0DCF806484C3091
:1043100000F0D8F80448983000F0D4F80248BDE81E
:104320001040E43000F0CEB8D00B0020FEE70000D3
:1043300090ED111A534980ED121AD0ED100AB7EE24
:10434000002AC0ED110A90ED070AD0ED081A30EEF0
:10435000610AD1ED001A32EE612A20EE020A01EE66
:10436000A00A80ED100A0178012902D0022948D064
:1043700085E090ED011A21EE001A80ED0A1AD0EDC9
:10438000061AB4EEE10AF1EE10FA0ED2F1EE611A5D
:10439000B4EEE10AF1EE10FA07DDD0ED0B1A90ED64
:1043A000022A42EE001AC0ED0B1AD0ED0E1A30EEC2
:1043B000600AC0ED0F1AD0ED0D1AC0ED0E1A80ED97
:1043C0000D0AD0ED030A60EE801AC0ED0C1AD0ED94
:1043D0000B0A90ED050AF4EEC00AF1EE10FA09DCC2
:1043E000B1EE400AF4EEC00AF1EE10FA02D390EDFD
:1043F0000B0A01E080ED0B0A31EE000A30EE210AD3
:104400002BE070EE601A90ED012A61EE821AC0ED89
:104410000A1A90ED022A22EE002A80ED0B2AD0ED36
:104420000E2AC0ED0F2AD0ED0D2AC0ED0E2AF0EEB7
:10443000002A00EEE20A30EE010A80ED0D0AD0ED0E
:10444000030A20EE800A71EE820A80ED0C0A30EE3B
:10445000800AD0ED090A30EE200A80ED090AD0ED7D
:10446000040AB4EEE00AF1EE10FA06DCF1EE600A9E
:10447000B4EEE00AF1EE10FA01D2C0ED090A90EDB7
:10448000090A70473000002000F8041BA0EC060A5F
:104490009FED0B0A80ED080A80ED070A80ED060A01
:1044A00080ED020A80ED050A80ED040A80ED030A22
:1044B00080ED0B0A80ED0A0A80ED090A70470000C2
:1044C000000000009FED0D0A80ED120A80ED110A38
:1044D00080ED100A80ED0F0A80ED0E0A80ED0D0AC6
:1044E00080ED0C0A80ED0B0A80ED0A0A80ED090AC6
:1044F00080ED070A80ED080A704700000000000008
:10450000704770472DE9F05F2DED048BDFEDB08A29
:10451000B04C0027B04E2079B04DB0EE688A4FF411
:1045200000484FF0010B00285AD04FF4806A6FF01A
:104530007E5901287ED002287DD003284CD14FF42B
:1045400096720021142003F027FA00EE100A0022D0
:104550005446F8EEC08A51463046FCF7BAFF282090
:10456000FCF765FA012221463046FCF7B2FFD5ED93
:10457000020A10EE900A4844B0F1027F06D2B1EE72
:104580000C0A022003F0A8FAB0EE408A03F0B8FA51
:10459000FDEEC80A10EE901AFDEEE80A10EE900A41
:1045A00003F074F90022444641463046FCF791FF7F
:1045B0002820FCF73CFA012221463046FCF789FF0F
:1045C0008749686808448749884205D2FCF746FA5B
:1045D0008048077180F803B0BDEC048BBDE8F09F04
:1045E0004FF496720021142003F0D6F900EE100A61
:1045F000B8EEC08A03F084FAFDEEC80A384610EE21
:10460000901A03F043F90022474641463046FCF732
:1046100060FF2820FCF70BFA012239463046FCF7F0
:1046200058FF714890ED010A03F0AEF910EE100A40
:104630006E4901E00BE075E08842CDDD6C496868A9
:104640008842C9DAFCF70AFA84F804B0C4E7002209
:1046500041463046FCF73DFF2820FCF7E8F90122EF
:1046600041463046FCF735FFD5ED010A10EE900AC1
:1046700000EB09015F48814206D2B1EE040A012035
:1046800003F02AFAB0EE408A4FF496710A461420DD
:1046900003F082F900EE100AF8EEC08A03F030FA57
:1046A000FDEEE80A10EE901AFDEEC80A10EE900A30
:1046B00003F0ECF8DFF840914FF48058414648464B
:1046C000FCF702FF012806D1A07820B96078401CD1
:1046D000607084F802B041464846FCF7F5FE18B910
:1046E000A078012800D1A770002251463046FCF77F
:1046F000F0FE2820FCF79BF9012251463046FCF7DA
:10470000E8FE60780528A1D33C49A86888429DDA74
:104710003B4988429ADDFCF7A1F9FFF7F3FD67708A
:10472000022053E0C3464146B04600224046FCF713
:10473000D0FE2820FCF77BF9012259463046FCF7D1
:10474000C8FED5ED010A4E4610EE900A811929489F
:10475000814206D2B1EE040A012003F0BDF9B0EEA9
:10476000408AE6224FF49671142003F015F900EE0A
:10477000100AB8EEC09A03F0C3F9FDEEC90A10EEB4
:10478000901AFDEEC80A10EE900A03F07FF800229E
:1047900051464046FCF79DFE2820FCF748F90122CF
:1047A00051464046FCF795FEA868164930448842B9
:1047B000BFF44CAFFCF752F96771FFF7A3FD00217E
:1047C000B0EE680A084603F061F80320207103E7A1
:1047D0000000000048000020000C0240D80F00201C
:1047E000FFFF8FBDFFFFD700080A00200000C8426E
:1047F00000004842FFFFEF0100000240000020429D
:1048000000004040FFFF0702FCF766BF30B593B0E1
:1048100030216846FBF720FD14210CA8FBF71CFD96
:104820001D480025016841F080510160006800F0DA
:10483000805011901948016841F48041016000687E
:10484000022400F480401190012003901020049075
:10485000009406940820CDE90750A820CDE909046A
:1048600004200B906846FDF7BBF808B172B6FEE76E
:104870000CA90F2081E831004FF4A0500F904FF4A5
:104880008050109005210CA8FCF7C0FF002801D033
:1048900072B6FEE713B030BD4038024000700040F1
:1048A0000248016841F470010160704788ED00E042
:1048B00010B50448FDF778FFBDE810400248FDF749
:1048C00073BF0000DC0000206403002010B5044822
:1048D000FDF76AFFBDE810400248FDF765BF000024
:1048E000DC0000201C0300200148FDF75DBF000034
:1048F000240100200148FDF757BF000044020020BA
:1049000010B50448FDF750FFBDE810400248FDF720
:104910004BBF00008C020020AC03002010B50448FF
:10492000FDF742FFBDE810400248FDF73DBF000023
:104930008C0200203C04002010B50448FDF734FF31
:10494000BDE810400248FDF72FBF00008C02002098
:10495000F4030020F0B50268254C264D264E274F63
:10496000274B4FF0804CA04209D0604507D0A842A9
:1049700005D0B04203D0B84201D0984204D122F011
:10498000700E4A6842EA0E02A0421BD0604519D060
:10499000A84217D0B04215D0B84213D0984211D0D7
:1049A000184DA8420ED0184DA8420BD0174DA84262
:1049B00008D0174DA84205D0164DA84202D0164D7A
:1049C000A84203D122F44075CA682A434D6922F0F7
:1049D00080022A4302608A68C2620A688262A04238
:1049E00001D0984201D10969016301214161F0BD03
:1049F000000001400004004000080040000C00409E
:104A000000040140004001400044014000480140D2
:104A100000180040001C00400020004010B501F0CC
:104A20001F030121046A99408C430462016A9A4081
:104A30001143016210BD10B5846842EA032224F4D8
:104A40007F440A432243826010BD826822F07002D4
:104A50000A4342F00701816070470000F0B5026A26
:104A600022F001020262036A42688469124E24F055
:104A700073050C682C4323F002058B682B430D4D06
:104A8000A84201D0B04205D123F00807CB683B43D0
:104A900023F00403A84201D0B04205D14D6922F4AD
:104AA000407215438A692A434260846149684163C0
:104AB0000362F0BD0000014000040140F0B5026A4D
:104AC00022F010020262026A436884690D6824F4CD
:104AD000E64444EA05248D6822F0200242EA0512E9
:104AE0000F4D104EA84201D0B04206D1CF6822F03F
:104AF000800242EA071222F04002A84201D0B042EE
:104B000007D14D6923F4406343EA85038D6943EA85
:104B1000850343608461496881630262F0BD0000DF
:104B20000000014000040140F0B5026A22F48072E6
:104B30000262026A4368C46922F4007224F07305B9
:104B40000C68124E2C438D6842EA05220E4DA84295
:104B500001D0B04206D1CF6822F4006242EA0722B7
:104B600022F48062A84201D0B04207D14D6923F4FB
:104B7000405343EA05138D6943EA05134360C4615A
:104B80004968C1630262F0BD0000014000040140B9
:104B900030B5026A22F480520262046A4268C36934
:104BA0000D6823F4E64343EA05238D6824F400549A
:104BB00044EA0534084DA84202D0084DA84204D169
:104BC0004D6922F4804242EA85124260C36149681D
:104BD0000164046230BD0000000001400004014097
:104BE00010B5036A046A24F001040462846924F0A5
:104BF000F00444EA021423F00A020A4384610262C8
:104C000010BD000070B5046A24F0010404628469D8
:104C1000056A154EB04214D0B0F1804F11D0134E3A
:104C2000B0420ED0124EB0420BD0124EB04208D05D
:104C3000114EB04205D0114EB04202D0104EB042DB
:104C400003D124F00304144301E044F001041A07E3
:104C500024F0F00444EA126225F00A0301F00A018C
:104C600019438261016270BD0000014000040040F0
:104C700000080040000C00400004014000400140DA
:104C80000018004010B5036A23F010030362836923
:104C9000046A23F4704343EA023224F0A00343EA97
:104CA00001118261016210BD30B5046A24F0100464
:104CB00004628469056A24F4407444EA022222F4FE
:104CC00070444FF6FF7202EA03322243A02425F01B
:104CD000A00304EA011119438261016230BD0000A2
:104CE000084808B500680168C943C90604D40168CA
:104CF0004068009000F0F0FABDE808400148FDF778
:104D0000F1BF000084040020084808B5006801686D
:104D1000C943C90604D401684068009000F060FAF5
:104D2000BDE808400148FDF7DDBF0000C8040020D1
:104D300010B5806B0021C185C184FDF7D2FF10BD85
:104D400070B5846B2068406994F83D10C0F3C010C2
:104D50000025212904D118B1E584204600F08AF805
:104D60002068406994F83E10C0F38010222904D1D5
:104D700018B1E585204600F056F8206C40F0100090
:104D800020642046FDF7ADFF70BD10B50146806B75
:104D900009680968C9052FD40021C18501680C3153
:104DA00051E8002F22F4807241E80023002BF5D156
:104DB0000168143151E8002F22F0010241E800237C
:104DC000002BF5D10168143151E8002F22F0400288
:104DD00041E80023002BF5D1202180F83E10016B23
:104DE000012909D101680C3151E8002F22F010028D
:104DF00041E80023002BF5D1016B012902D0FEF719
:104E00000AFB10BD818DFDF733FF10BD10B5806B1F
:104E1000016B012902D0FEF7FFFA10BD818D490810
:104E2000FDF726FF10BD01680C3151E8002F22F478
:104E3000907241E80023002BF5D10168143151E84C
:104E4000002F22F0010241E80023002BF5D1016B75
:104E5000012909D101680C3151E8002F22F010021C
:104E600041E80023002BF5D1202180F83E100021DD
:104E70000163704701680C3151E8002F22F0C00235
:104E800041E80023002BF5D1202180F83D10704728
:104E900008B590F83E10222901D0022008BD826892
:104EA0004FF480539A4201D1016921B1816A9A423B
:104EB0001BD04AB10AE00268816A5268C2F3080254
:104EC0000A80816A891C08E0026972B1026852682E
:104ED00002F07F020A70816A491C8162C18D491EFD
:104EE0000904090CC18503D019E002685268F1E792
:104EF0000168CA6822F02002CA600168CA6822F408
:104F00008072CA6001684A6922F001024A61202168
:104F100080F83E10016B012903D0FEF77CFA0020D7
:104F200008BD0021016301680C3151E8002F22F017
:104F3000100241E80023002BF5D101680A68D2066F
:104F400002D50A6849680091818DFDF791FEE6E778
:104F500070B5044600680169E26821F440511143CC
:104F600001612169A068E26908436169114308434E
:104F70002168CA6849F20C639A430243CA602068F8
:104F80004169A26921F440711143416131492068AE
:104F9000884202D03049884202D1FCF7E1FC01E0AE
:104FA000FCF7CEFCE2690023192164253226B2F514
:104FB000004F626828D0A0FB0101930F9200FBF71D
:104FC00001F90146B0FBF5F06FF01802504301EB18
:104FD000800006EB0010B0FBF5F000F0F002B1FB32
:104FE000F5F002EB0012B1FBF5F06FF01803584337
:104FF00001EB800006EB0010B0FBF5F000F00F00B5
:1050000021681044886070BDA0FB010192185B41CB
:10501000FBF7D8F80146B0FBF5F00201B1FBF5F063
:105020006FF01803584301EB800006EBC000B0FBA3
:10503000F5F000F0F80002EB4002B1FBF5F0584348
:1050400001EB800006EBC000B0FBF5F000F00700BC
:10505000D6E70000001001400014014038B581621D
:1050600082850025134604460564222084F83E000C
:10507000A26B1C48D063A26B1B481064A26B1B4838
:10508000D064A06B0A4605652168A06B091DFCF77A
:105090009DF8206801684068009084F83C502069C1
:1050A00048B120680C3050E8001F41F4807140E89E
:1050B0000012002AF5D12068143050E8001F41F09A
:1050C000010140E80012002AF5D12068143050E8B0
:1050D000001F41F0400140E80012002AF5D10020F5
:1050E00038BD00008B4D00080D4E0008414D0008F2
:1050F0002DE9F041984617460E460446069D27E0E6
:10510000681C25D02DB1FCF7E9F9A0EB0800A842F6
:105110001ED920680C3050E8001F21F4D07140E8FF
:105120000012002AF5D12068143050E8001F21F049
:10513000010140E80012002AF5D1202084F83D004A
:1051400084F83E00002084F83C000320BDE8F08194
:105150002068006836EA000004D00020B842CFD0B2
:105160000020F3E70120F9E7084808B50068016866
:10517000C943C90604D401684068009000F002FBEE
:10518000BDE808400148FDF7ADBD00000C0500205A
:10519000084808B500680168C943C90604D4016815
:1051A0004068009000F02CF9BDE808400148FDF788
:1051B00099BD000050050020084808B50068016846
:1051C000C943C90604D401684068009000F09CF906
:1051D000BDE808400148FDF785BD000094050020AA
:1051E00010B50848FDF745FD0748006840682821CC
:1051F0000648FBF731F8BDE8104028220349014872
:10520000FEF7F4B8C8040020DC0600200C0B0020D8
:1052100070B52C4C217B0A060ED42B4D002660B1B4
:10522000012809D1480607D5880748D5267328687C
:10523000016A0162701E206170BD48062CD541F0E4
:105240008000207304212048FDF7FCFC80B2E0823E
:10525000217B9FED1E1A01F03F0100EB0140A18A66
:10526000401A00EE100A2061F8EE400A80EE810A32
:10527000FEF758F91648174A072180ED010A114830
:10528000483800F0C3F926732868016A21F0A001AC
:1052900001622868016A10E041F040002073042197
:1052A0000948FDF7CFFCA0822868016A21F0A0011F
:1052B00001622868016A41F02001016270BD491C49
:1052C000217370BD9C0F0020240100200000664265
:1052D000E80F0020DC0F002010B51248FDF7C9FCD4
:1052E000114800684068C0F12800C0B204280DD100
:1052F0000F480E49B0F80100A1F8010040BA00EED5
:10530000100A0C48B8EE400A80ED000A282108482F
:10531000FAF7A2FFBDE81040282205490148FEF730
:1053200065B80000840400201C0600202400002032
:10533000E40A0020D80F002070B52C4C21780A0612
:105340000ED42B4D002660B1012809D1480607D59F
:10535000880748D526702868016A0162701E60605F
:1053600070BD48062CD541F08000207000212048F7
:10537000FDF768FC80B2608121789FED1E1A01F074
:105380003F0100EB01402189401A00EE100A6060E5
:10539000F8EE400A80EE810AFEF7C4F81648174A74
:1053A000072180ED000A1148903800F02FF926708F
:1053B0002868016A21F00A0101622868016A10E088
:1053C00041F04000207000210948FDF73BFC20819E
:1053D0002868016A21F00A0101622868016A41F027
:1053E0000201016270BD491C217070BD9C0F00203C
:1053F0002401002000006642E80F0020D80F0020A2
:1054000010B50A48FDF735FC0948006840680949AD
:10541000C0F12800087028210748FAF71DFFBDE8F1
:105420001040282204490148FDF7E0BF5005002044
:105430005C08002024000020340B002070B52C4CA8
:10544000217E0A060ED42B4D002660B1012809D119
:10545000480607D5880747D526762868016A01627D
:10546000701EE06170BD48062BD541F080002076AB
:1054700008212048FDF7E6FB80B26084217E9FED85
:105480001E1A01F03F0100EB0140218C401A00EE92
:10549000100AE061F8EE400A80EE810AFEF742F859
:1054A0001648174A072180ED020A164800F0AEF8A8
:1054B00026762868016A21F4206101622868016A61
:1054C00010E041F04000207608210A48FDF7BAFBC1
:1054D00020842868016A21F4206101622868016A39
:1054E00041F40071016270BD491C217670BD00005D
:1054F0009C0F00202401002000006642E80F0020DD
:10550000E00F00207C0E002010B50848FDF7B1FB2D
:1055100007480068406828210648FAF79DFEBDE864
:105520001040282203490148FDF760BF9405002080
:105530001C0900205C0B002070B52F4C94F824103F
:105540000A060FD42D4D002668B101280AD148065D
:1055500008D588074BD584F824602868016A016261
:10556000701EA06270BD48062DD541F0800004F881
:10557000240F0C212148FDF765FB80B26081217862
:105580009FED1F1A01F03F0100EB01402189401AF5
:1055900000EE100A6060F8EE400A80EE810AFDF726
:1055A000C1FF1848184A072180ED030A1248D8386D
:1055B00000F02CF826702868016A21F4204101626D
:1055C0002868016A11E041F0400084F824000C21B1
:1055D0000A48FDF737FBA0852868016A21F42041BD
:1055E00001622868016A41F40051016270BD491CE2
:1055F00084F8241070BD00009C0F002024010020BE
:1056000000006642E80F0020E40F002070B54378E8
:10561000DFED301A00EB83045B1C437084ED030A5A
:105620000578EDB390ED030A2B4C0123F0EE400A10
:1056300084ED010A84ED000A13E000BF00EB83064D
:1056400096ED031AB4EEC01AF1EE10FA01DDB0EED9
:10565000410AB4EEE01AF1EE10FA01D2F0EE410A7E
:105660005B1C8B42EAD384EC020A002307E000BFF4
:1056700000EB83045B1C94ED031A71EE211A8B423C
:10568000F6D330EE200A8B1E012D71EEC00A00EE1B
:10569000103AB8EEC01A80EE810A80ED010A00E0EF
:1056A0000BE00FD110EE103A0C4CA34206DA82ED5B
:1056B000000A90ED010A80ED020A03E090ED020A73
:1056C00082ED000A42788A4203D101210170002153
:1056D000417070BD000000003400002000409C4577
:1056E000FEE700002DE9F0410C464FF4E1514A423B
:1056F0000546884201DD0D4602E0954200DA154676
:105700008C4201DD0C4602E0944200DA14464FF46C
:1057100080414F00194E002D05DB01223046FBF77A
:10572000D8FE002204E000223046FBF7D2FE012220
:1057300039463046FBF7CDFE4FF480618F00002CD8
:1057400005DB01223046FBF7C4FE002204E0002204
:105750003046FBF7BEFE012239463046FBF7B9FE64
:10576000002D00DA6D42064801684D63002C00DA16
:10577000644200688463BDE8F081000000100240CC
:10578000AC03002010B51048FDF773FA0F4800680D
:105790004068C0F12800C0B2212809D10C4921225B
:1057A000A1F12100FAF73FFD09482138FDF792FEEB
:1057B00028210748FAF750FDBDE810402822044987
:1057C0000148FDF713BE00000C0500209C070020D7
:1057D000A50B00200FB4054B10B503A9044A02988D
:1057E00000F0EAF810BC5DF814FB000079760008C0
:1057F0005C0000200907090E002804DB00F1E0200E
:1058000080F80014704700F00F0000F1E02080F8ED
:10581000141D704702E008C8121F08C1002AFAD1FF
:1058200070477047002001E001C1121F002AFBD120
:10583000704700002DE9FF5F82B00021DDE90430F0
:10584000020DDDF840B0034318D044F61050A2F228
:10585000FF3242431514119801281FD0A5EB0B000D
:10586000401C5FEA000A4FF000064E4FDFF8389107
:10587000B046504615D5CAF1000413E01198012432
:105880004AA3012801D16FEA0B010298119AC0E9DD
:105890000031C0E9024206B0BDE8F09FCBF1000044
:1058A000DFE704460021404A491842EB0450CDE9A5
:1058B000001012E0E00707D032463B46404649461A
:1058C000FAF77CFD8046894632463B46104619462B
:1058D000FAF774FD06460F466410002CEAD1DDE9A4
:1058E0000401DDE90023BAF1000F06DAFAF766FDDC
:1058F00042464B46FAF762FD05E0FAF7D1FD424613
:105900004B46FAF7CDFD04460E460022284BFAF727
:1059100089FF03D84FF0FF30014607E00022254BF6
:1059200020463146FAF7A3FCFAF763FF102409E09A
:10593000002C0ADB0A220023FAF744FC039B3032D6
:105940001A55641E50EA0102F2D1641C039AC4F194
:1059500011031444119A012A03D0012208430DD1E6
:105960000AE0084304D000204FF0110B119072E7B9
:10597000A3EB0B056D1E0DE05B4504DD4FF000024F
:1059800005F1010504E003DA4FF00002A5F101057D
:10599000002AECD002981199C0E90231C0E9004513
:1059A00079E70000000014400000F03F30000000E4
:1059B0000000F0430000E03F2DE9FF4F95B09A460C
:1059C000884606460025EEE1252877D100242746A3
:1059D000F94A0121039400E0044316F8013F203BFB
:1059E00001FA03F01042F7D130782A2811D06FF075
:1059F0002F033078A0F13002092A16D8039A44F018
:105A0000020402EB820203EB42021044761C039074
:105A1000EFE758F8042B0392002A03DA504244F4CB
:105A20000054039044F00204761C30782E2816D1DE
:105A300016F8010F44F004042A280DD06FF02F024D
:105A40003078A0F13003092B09D807EB870302EB6C
:105A50004303C718761CF3E758F8047B761C3078AC
:105A60006C280FD006DC4C2817D068280DD06A2887
:105A700014D104E0742810D07A280FD10DE044F43A
:105A800000140AE044F4801401E044F440147278F5
:105A9000824202D104F58014761C761C3078662888
:105AA0000BD013DC582877D009DC002875D04528A6
:105AB000F6D04628F4D047281AD193E118E063289D
:105AC00035D0642879D0652812D18BE1702873D045
:105AD00008DC6728F1D069286FD06E280DD06F28B8
